{"abi":[{"type":"constructor","inputs":[],"stateMutability":"payable"},{"type":"function","name":"allocatedTokens","inputs":[],"outputs":[{"name":"","type":"uint256","internalType":"uint256"}],"stateMutability":"view"},{"type":"function","name":"claim","inputs":[],"outputs":[],"stateMutability":"nonpayable"},{"type":"function","name":"claimableAmount","inputs":[{"name":"_claimer","type":"address","internalType":"address"}],"outputs":[{"name":"","type":"uint256","internalType":"uint256"}],"stateMutability":"view"},{"type":"function","name":"deployManager","inputs":[],"outputs":[{"name":"","type":"address","internalType":"address"}],"stateMutability":"view"},{"type":"function","name":"getDeployManager","inputs":[],"outputs":[{"name":"","type":"address","internalType":"address"}],"stateMutability":"view"},{"type":"function","name":"getInitData","inputs":[{"name":"_deployManager","type":"address","internalType":"address"},{"name":"_token","type":"address","internalType":"address"},{"name":"_owner","type":"address","internalType":"address"}],"outputs":[{"name":"","type":"bytes","internalType":"bytes"}],"stateMutability":"pure"},{"type":"function","name":"initialize","inputs":[{"name":"_initData","type":"bytes","internalType":"bytes"}],"outputs":[{"name":"","type":"bool","internalType":"bool"}],"stateMutability":"nonpayable"},{"type":"function","name":"owner","inputs":[],"outputs":[{"name":"","type":"address","internalType":"address"}],"stateMutability":"view"},{"type":"function","name":"renounceOwnership","inputs":[],"outputs":[],"stateMutability":"nonpayable"},{"type":"function","name":"startVesting","inputs":[{"name":"_beneficiary","type":"address","internalType":"address"},{"name":"_totalAmount","type":"uint256","internalType":"uint256"},{"name":"_startTime","type":"uint256","internalType":"uint256"},{"name":"_cliff","type":"uint256","internalType":"uint256"},{"name":"_duration","type":"uint256","internalType":"uint256"},{"name":"_claimCooldown","type":"uint256","internalType":"uint256"},{"name":"_minClaimAmount","type":"uint256","internalType":"uint256"}],"outputs":[],"stateMutability":"nonpayable"},{"type":"function","name":"supportsInterface","inputs":[{"name":"interfaceId","type":"bytes4","internalType":"bytes4"}],"outputs":[{"name":"","type":"bool","internalType":"bool"}],"stateMutability":"view"},{"type":"function","name":"token","inputs":[],"outputs":[{"name":"","type":"address","internalType":"contract IERC20"}],"stateMutability":"view"},{"type":"function","name":"transferOwnership","inputs":[{"name":"newOwner","type":"address","internalType":"address"}],"outputs":[],"stateMutability":"nonpayable"},{"type":"function","name":"vestings","inputs":[{"name":"","type":"address","internalType":"address"}],"outputs":[{"name":"totalAmount","type":"uint256","internalType":"uint256"},{"name":"startTime","type":"uint256","internalType":"uint256"},{"name":"cliff","type":"uint256","internalType":"uint256"},{"name":"duration","type":"uint256","internalType":"uint256"},{"name":"claimed","type":"uint256","internalType":"uint256"},{"name":"lastClaimTime","type":"uint256","internalType":"uint256"},{"name":"claimCooldown","type":"uint256","internalType":"uint256"},{"name":"minClaimAmount","type":"uint256","internalType":"uint256"}],"stateMutability":"view"},{"type":"function","name":"withdrawUnallocated","inputs":[{"name":"_to","type":"address","internalType":"address"}],"outputs":[],"stateMutability":"nonpayable"},{"type":"event","name":"Claim","inputs":[{"name":"beneficiary","type":"address","indexed":false,"internalType":"address"},{"name":"amount","type":"uint256","indexed":false,"internalType":"uint256"},{"name":"timestamp","type":"uint256","indexed":false,"internalType":"uint256"}],"anonymous":false},{"type":"event","name":"OwnershipTransferred","inputs":[{"name":"previousOwner","type":"address","indexed":true,"internalType":"address"},{"name":"newOwner","type":"address","indexed":true,"internalType":"address"}],"anonymous":false},{"type":"event","name":"TokensWithdrawn","inputs":[{"name":"to","type":"address","indexed":false,"internalType":"address"},{"name":"amount","type":"uint256","indexed":false,"internalType":"uint256"}],"anonymous":false},{"type":"event","name":"VestingCreated","inputs":[{"name":"beneficiary","type":"address","indexed":false,"internalType":"address"},{"name":"amount","type":"uint256","indexed":false,"internalType":"uint256"},{"name":"creationTime","type":"uint256","indexed":false,"internalType":"uint256"}],"anonymous":false},{"type":"error","name":"AlreadyInitialized","inputs":[]},{"type":"error","name":"AmountCantBeZero","inputs":[]},{"type":"error","name":"BelowMinimalClaimAmount","inputs":[]},{"type":"error","name":"CantClaimMoreThanTotalAmount","inputs":[]},{"type":"error","name":"CliffCantBeLongerThanDuration","inputs":[]},{"type":"error","name":"CliffNotReached","inputs":[]},{"type":"error","name":"CooldownCantBeLongerThanDuration","inputs":[]},{"type":"error","name":"CooldownNotPassed","inputs":[]},{"type":"error","name":"DeployManagerCannotBeZero","inputs":[]},{"type":"error","name":"DurationCantBeZero","inputs":[]},{"type":"error","name":"FailedToDeployManager","inputs":[]},{"type":"error","name":"InfsufficientBalance","inputs":[]},{"type":"error","name":"InvalidBeneficiary","inputs":[]},{"type":"error","name":"NotDeployManager","inputs":[]},{"type":"error","name":"NothingToClaim","inputs":[]},{"type":"error","name":"NothingToWithdraw","inputs":[]},{"type":"error","name":"OwnableInvalidOwner","inputs":[{"name":"owner","type":"address","internalType":"address"}]},{"type":"error","name":"OwnableUnauthorizedAccount","inputs":[{"name":"account","type":"address","internalType":"address"}]},{"type":"error","name":"StartTimeShouldBeFuture","inputs":[]},{"type":"error","name":"TransferFailed","inputs":[]},{"type":"error","name":"VestingAlreadyExist","inputs":[]},{"type":"error","name":"VestingNotFound","inputs":[]},{"type":"error","name":"WithdrawTransferFailed","inputs":[]}],"bytecode":{"object":"0x6080604052335f73ffffffffffffffffffffffffffffffffffffffff168173ffffffffffffffffffffffffffffffffffffffff1603610075575f6040517f1e4fbdf700000000000000000000000000000000000000000000000000000000815260040161006c919061018c565b60405180910390fd5b6100848161008a60201b60201c565b506101a5565b5f60015f9054906101000a900473ffffffffffffffffffffffffffffffffffffffff1690508160015f6101000a81548173ffffffffffffffffffffffffffffffffffffffff021916908373ffffffffffffffffffffffffffffffffffffffff1602179055508173ffffffffffffffffffffffffffffffffffffffff168173ffffffffffffffffffffffffffffffffffffffff167f8be0079c531659141344cd1fd0a4f28419497f9722a3daafe3b4186f6b6457e060405160405180910390a35050565b5f73ffffffffffffffffffffffffffffffffffffffff82169050919050565b5f6101768261014d565b9050919050565b6101868161016c565b82525050565b5f60208201905061019f5f83018461017d565b92915050565b611d4e806101b25f395ff3fe608060405234801561000f575f5ffd5b50600436106100f2575f3560e01c80638da5cb5b11610095578063daf4986311610064578063daf498631461025c578063f2fde38b14610293578063f7fc87f2146102af578063fc0c546a146102cd576100f2565b80638da5cb5b146101d457806393394029146101f2578063b3b3e87f14610210578063c475dda91461022c576100f2565b80634e71d92d116100d15780634e71d92d14610174578063715018a61461017e5780637c5590851461018857806389885049146101a4576100f2565b80622f9569146100f657806301ffc9a714610114578063439fab9114610144575b5f5ffd5b6100fe6102eb565b60405161010b919061147b565b60405180910390f35b61012e600480360381019061012991906114fa565b6102f1565b60405161013b919061153f565b60405180910390f35b61015e60048036038101906101599190611694565b61036a565b60405161016b919061153f565b60405180910390f35b61017c610448565b005b610186610778565b005b6101a2600480360381019061019d919061175f565b61078b565b005b6101be60048036038101906101b991906117fc565b610c15565b6040516101cb919061147b565b60405180910390f35b6101dc610c9b565b6040516101e99190611836565b60405180910390f35b6101fa610cc3565b6040516102079190611836565b60405180910390f35b61022a600480360381019061022591906117fc565b610ce7565b005b6102466004803603810190610241919061184f565b610ee0565b60405161025391906118ff565b60405180910390f35b610276600480360381019061027191906117fc565b610f0f565b60405161028a98979695949392919061191f565b60405180910390f35b6102ad60048036038101906102a891906117fc565b610f53565b005b6102b7610fd7565b6040516102c49190611836565b60405180910390f35b6102d5610ffe565b6040516102e291906119f6565b60405180910390f35b60035481565b5f7fb4632c63000000000000000000000000000000000000000000000000000000007bffffffffffffffffffffffffffffffffffffffffffffffffffffffff1916827bffffffffffffffffffffffffffffffffffffffffffffffffffffffff19161480610363575061036282611023565b5b9050919050565b5f600260149054906101000a900460ff16156103b2576040517f0dc149f000000000000000000000000000000000000000000000000000000000815260040160405180910390fd5b5f5f5f848060200190518101906103c99190611a4a565b9250925092506103d88361108c565b8160025f6101000a81548173ffffffffffffffffffffffffffffffffffffffff021916908373ffffffffffffffffffffffffffffffffffffffff16021790555061042181610f53565b6001600260146101000a81548160ff02191690831515021790555060019350505050919050565b5f60045f3373ffffffffffffffffffffffffffffffffffffffff1673ffffffffffffffffffffffffffffffffffffffff1681526020019081526020015f2090505f815f0154116104c4576040517fe146a52b00000000000000000000000000000000000000000000000000000000815260040160405180910390fd5b806002015481600101546104d89190611ac7565b4211610510576040517f392a328700000000000000000000000000000000000000000000000000000000815260040160405180910390fd5b806006015481600501546105249190611ac7565b42101561055d576040517f9e49499400000000000000000000000000000000000000000000000000000000815260040160405180910390fd5b5f61056733610c15565b90505f81116105a2576040517f969bf72800000000000000000000000000000000000000000000000000000000815260040160405180910390fd5b81600701548110156105e0576040517f5dfcc46200000000000000000000000000000000000000000000000000000000815260040160405180910390fd5b815f01548260040154826105f49190611ac7565b111561062c576040517f96a6633000000000000000000000000000000000000000000000000000000000815260040160405180910390fd5b80826004015f82825461063f9190611ac7565b925050819055504282600501819055508060035f8282546106609190611afa565b9250508190555060025f9054906101000a900473ffffffffffffffffffffffffffffffffffffffff1673ffffffffffffffffffffffffffffffffffffffff1663a9059cbb33836040518363ffffffff1660e01b81526004016106c3929190611b2d565b6020604051808303815f875af11580156106df573d5f5f3e3d5ffd5b505050506040513d601f19601f820116820180604052508101906107039190611b7e565b610739576040517f90b8ec1800000000000000000000000000000000000000000000000000000000815260040160405180910390fd5b7f34fcbac0073d7c3d388e51312faf357774904998eeb8fca628b9e6f65ee1cbf733824260405161076c93929190611ba9565b60405180910390a15050565b61078061110d565b6107895f611194565b565b61079361110d565b8560035460025f9054906101000a900473ffffffffffffffffffffffffffffffffffffffff1673ffffffffffffffffffffffffffffffffffffffff166370a08231306040518263ffffffff1660e01b81526004016107f19190611836565b602060405180830381865afa15801561080c573d5f5f3e3d5ffd5b505050506040513d601f19601f820116820180604052508101906108309190611bf2565b61083a9190611afa565b1015610872576040517fac16ee3e00000000000000000000000000000000000000000000000000000000815260040160405180910390fd5b5f86116108ab576040517f46f1397d00000000000000000000000000000000000000000000000000000000815260040160405180910390fd5b5f60045f8973ffffffffffffffffffffffffffffffffffffffff1673ffffffffffffffffffffffffffffffffffffffff1681526020019081526020015f205f01541480610976575060045f8873ffffffffffffffffffffffffffffffffffffffff1673ffffffffffffffffffffffffffffffffffffffff1681526020019081526020015f206004015460045f8973ffffffffffffffffffffffffffffffffffffffff1673ffffffffffffffffffffffffffffffffffffffff1681526020019081526020015f205f0154145b6109ac576040517fda2573cf00000000000000000000000000000000000000000000000000000000815260040160405180910390fd5b4285116109e5576040517f41d33ec100000000000000000000000000000000000000000000000000000000815260040160405180910390fd5b5f8311610a1e576040517faf0a1ac000000000000000000000000000000000000000000000000000000000815260040160405180910390fd5b828410610a57576040517f12e390eb00000000000000000000000000000000000000000000000000000000815260040160405180910390fd5b828210610a90576040517f28a4e6f600000000000000000000000000000000000000000000000000000000815260040160405180910390fd5b5f73ffffffffffffffffffffffffffffffffffffffff168773ffffffffffffffffffffffffffffffffffffffff1603610af5576040517f5566df5c00000000000000000000000000000000000000000000000000000000815260040160405180910390fd5b6040518061010001604052808781526020018681526020018581526020018481526020015f81526020015f81526020018381526020018281525060045f8973ffffffffffffffffffffffffffffffffffffffff1673ffffffffffffffffffffffffffffffffffffffff1681526020019081526020015f205f820151815f01556020820151816001015560408201518160020155606082015181600301556080820151816004015560a0820151816005015560c0820151816006015560e0820151816007015590505085600354610bcb9190611ac7565b6003819055507f9ade76f4385de306666dfb21a52b27d52db0fde8ad0f515fa261f532cac60d21878742604051610c0493929190611ba9565b60405180910390a150505050505050565b5f5f60045f8473ffffffffffffffffffffffffffffffffffffffff1673ffffffffffffffffffffffffffffffffffffffff1681526020019081526020015f20905080600201548160010154610c6a9190611ac7565b421015610c7a575f915050610c96565b8060040154610c8884611257565b610c929190611afa565b9150505b919050565b5f60015f9054906101000a900473ffffffffffffffffffffffffffffffffffffffff16905090565b5f5f9054906101000a900473ffffffffffffffffffffffffffffffffffffffff1681565b610cef61110d565b5f60035460025f9054906101000a900473ffffffffffffffffffffffffffffffffffffffff1673ffffffffffffffffffffffffffffffffffffffff166370a08231306040518263ffffffff1660e01b8152600401610d4d9190611836565b602060405180830381865afa158015610d68573d5f5f3e3d5ffd5b505050506040513d601f19601f82011682018060405250810190610d8c9190611bf2565b610d969190611afa565b90505f8111610dd1576040517fd0d04f6000000000000000000000000000000000000000000000000000000000815260040160405180910390fd5b60025f9054906101000a900473ffffffffffffffffffffffffffffffffffffffff1673ffffffffffffffffffffffffffffffffffffffff1663a9059cbb83836040518363ffffffff1660e01b8152600401610e2d929190611b2d565b6020604051808303815f875af1158015610e49573d5f5f3e3d5ffd5b505050506040513d601f19601f82011682018060405250810190610e6d9190611b7e565b610ea3576040517f69a4751b00000000000000000000000000000000000000000000000000000000815260040160405180910390fd5b7f6352c5382c4a4578e712449ca65e83cdb392d045dfcf1cad9615189db2da244b8282604051610ed4929190611b2d565b60405180910390a15050565b6060838383604051602001610ef793929190611c1d565b60405160208183030381529060405290509392505050565b6004602052805f5260405f205f91509050805f0154908060010154908060020154908060030154908060040154908060050154908060060154908060070154905088565b610f5b61110d565b5f73ffffffffffffffffffffffffffffffffffffffff168173ffffffffffffffffffffffffffffffffffffffff1603610fcb575f6040517f1e4fbdf7000000000000000000000000000000000000000000000000000000008152600401610fc29190611836565b60405180910390fd5b610fd481611194565b50565b5f5f5f9054906101000a900473ffffffffffffffffffffffffffffffffffffffff16905090565b60025f9054906101000a900473ffffffffffffffffffffffffffffffffffffffff1681565b5f7f01ffc9a7000000000000000000000000000000000000000000000000000000007bffffffffffffffffffffffffffffffffffffffffffffffffffffffff1916827bffffffffffffffffffffffffffffffffffffffffffffffffffffffff1916149050919050565b6110958161131a565b6110cb576040517f820fe9f800000000000000000000000000000000000000000000000000000000815260040160405180910390fd5b805f5f6101000a81548173ffffffffffffffffffffffffffffffffffffffff021916908373ffffffffffffffffffffffffffffffffffffffff16021790555050565b61111561145c565b73ffffffffffffffffffffffffffffffffffffffff16611133610c9b565b73ffffffffffffffffffffffffffffffffffffffff16146111925761115661145c565b6040517f118cdaa70000000000000000000000000000000000000000000000000000000081526004016111899190611836565b60405180910390fd5b565b5f60015f9054906101000a900473ffffffffffffffffffffffffffffffffffffffff1690508160015f6101000a81548173ffffffffffffffffffffffffffffffffffffffff021916908373ffffffffffffffffffffffffffffffffffffffff1602179055508173ffffffffffffffffffffffffffffffffffffffff168173ffffffffffffffffffffffffffffffffffffffff167f8be0079c531659141344cd1fd0a4f28419497f9722a3daafe3b4186f6b6457e060405160405180910390a35050565b5f5f60045f8473ffffffffffffffffffffffffffffffffffffffff1673ffffffffffffffffffffffffffffffffffffffff1681526020019081526020015f209050806002015481600101546112ac9190611ac7565b4210156112bc575f915050611315565b5f816002015482600101546112d19190611ac7565b426112dc9190611afa565b905081600301548111156112f257816003015490505b816003015481835f01546113069190611c52565b6113109190611cc0565b925050505b919050565b5f5f73ffffffffffffffffffffffffffffffffffffffff168273ffffffffffffffffffffffffffffffffffffffff1603611380576040517f7cc06ca200000000000000000000000000000000000000000000000000000000815260040160405180910390fd5b5f7f267fcfaf0000000000000000000000000000000000000000000000000000000090508273ffffffffffffffffffffffffffffffffffffffff166301ffc9a7826040518263ffffffff1660e01b81526004016113dd9190611cff565b602060405180830381865afa1580156113f8573d5f5f3e3d5ffd5b505050506040513d601f19601f8201168201806040525081019061141c9190611b7e565b611452576040517f5f0e0ffc00000000000000000000000000000000000000000000000000000000815260040160405180910390fd5b6001915050919050565b5f33905090565b5f819050919050565b61147581611463565b82525050565b5f60208201905061148e5f83018461146c565b92915050565b5f604051905090565b5f5ffd5b5f5ffd5b5f7fffffffff0000000000000000000000000000000000000000000000000000000082169050919050565b6114d9816114a5565b81146114e3575f5ffd5b50565b5f813590506114f4816114d0565b92915050565b5f6020828403121561150f5761150e61149d565b5b5f61151c848285016114e6565b91505092915050565b5f8115159050919050565b61153981611525565b82525050565b5f6020820190506115525f830184611530565b92915050565b5f5ffd5b5f5ffd5b5f601f19601f8301169050919050565b7f4e487b71000000000000000000000000000000000000000000000000000000005f52604160045260245ffd5b6115a682611560565b810181811067ffffffffffffffff821117156115c5576115c4611570565b5b80604052505050565b5f6115d7611494565b90506115e3828261159d565b919050565b5f67ffffffffffffffff82111561160257611601611570565b5b61160b82611560565b9050602081019050919050565b828183375f83830152505050565b5f611638611633846115e8565b6115ce565b9050828152602081018484840111156116545761165361155c565b5b61165f848285611618565b509392505050565b5f82601f83011261167b5761167a611558565b5b813561168b848260208601611626565b91505092915050565b5f602082840312156116a9576116a861149d565b5b5f82013567ffffffffffffffff8111156116c6576116c56114a1565b5b6116d284828501611667565b91505092915050565b5f73ffffffffffffffffffffffffffffffffffffffff82169050919050565b5f611704826116db565b9050919050565b611714816116fa565b811461171e575f5ffd5b50565b5f8135905061172f8161170b565b92915050565b61173e81611463565b8114611748575f5ffd5b50565b5f8135905061175981611735565b92915050565b5f5f5f5f5f5f5f60e0888a03121561177a5761177961149d565b5b5f6117878a828b01611721565b97505060206117988a828b0161174b565b96505060406117a98a828b0161174b565b95505060606117ba8a828b0161174b565b94505060806117cb8a828b0161174b565b93505060a06117dc8a828b0161174b565b92505060c06117ed8a828b0161174b565b91505092959891949750929550565b5f602082840312156118115761181061149d565b5b5f61181e84828501611721565b91505092915050565b611830816116fa565b82525050565b5f6020820190506118495f830184611827565b92915050565b5f5f5f606084860312156118665761186561149d565b5b5f61187386828701611721565b935050602061188486828701611721565b925050604061189586828701611721565b9150509250925092565b5f81519050919050565b5f82825260208201905092915050565b8281835e5f83830152505050565b5f6118d18261189f565b6118db81856118a9565b93506118eb8185602086016118b9565b6118f481611560565b840191505092915050565b5f6020820190508181035f83015261191781846118c7565b905092915050565b5f610100820190506119335f83018b61146c565b611940602083018a61146c565b61194d604083018961146c565b61195a606083018861146c565b611967608083018761146c565b61197460a083018661146c565b61198160c083018561146c565b61198e60e083018461146c565b9998505050505050505050565b5f819050919050565b5f6119be6119b96119b4846116db565b61199b565b6116db565b9050919050565b5f6119cf826119a4565b9050919050565b5f6119e0826119c5565b9050919050565b6119f0816119d6565b82525050565b5f602082019050611a095f8301846119e7565b92915050565b5f611a19826116db565b9050919050565b611a2981611a0f565b8114611a33575f5ffd5b50565b5f81519050611a4481611a20565b92915050565b5f5f5f60608486031215611a6157611a6061149d565b5b5f611a6e86828701611a36565b9350506020611a7f86828701611a36565b9250506040611a9086828701611a36565b9150509250925092565b7f4e487b71000000000000000000000000000000000000000000000000000000005f52601160045260245ffd5b5f611ad182611463565b9150611adc83611463565b9250828201905080821115611af457611af3611a9a565b5b92915050565b5f611b0482611463565b9150611b0f83611463565b9250828203905081811115611b2757611b26611a9a565b5b92915050565b5f604082019050611b405f830185611827565b611b4d602083018461146c565b9392505050565b611b5d81611525565b8114611b67575f5ffd5b50565b5f81519050611b7881611b54565b92915050565b5f60208284031215611b9357611b9261149d565b5b5f611ba084828501611b6a565b91505092915050565b5f606082019050611bbc5f830186611827565b611bc9602083018561146c565b611bd6604083018461146c565b949350505050565b5f81519050611bec81611735565b92915050565b5f60208284031215611c0757611c0661149d565b5b5f611c1484828501611bde565b91505092915050565b5f606082019050611c305f830186611827565b611c3d6020830185611827565b611c4a6040830184611827565b949350505050565b5f611c5c82611463565b9150611c6783611463565b9250828202611c7581611463565b91508282048414831517611c8c57611c8b611a9a565b5b5092915050565b7f4e487b71000000000000000000000000000000000000000000000000000000005f52601260045260245ffd5b5f611cca82611463565b9150611cd583611463565b925082611ce557611ce4611c93565b5b828204905092915050565b611cf9816114a5565b82525050565b5f602082019050611d125f830184611cf0565b9291505056fea2646970667358221220b3be311ca0587a3f6a8c2f799cdcd4da094bd7d5439d15192d5ea34871a946f464736f6c634300081d0033","linkReferences":{}},"methodIdentifiers":{"allocatedTokens()":"002f9569","claim()":"4e71d92d","claimableAmount(address)":"89885049","deployManager()":"93394029","getDeployManager()":"f7fc87f2","getInitData(address,address,address)":"c475dda9","initialize(bytes)":"439fab91","owner()":"8da5cb5b","renounceOwnership()":"715018a6","startVesting(address,uint256,uint256,uint256,uint256,uint256,uint256)":"7c559085","supportsInterface(bytes4)":"01ffc9a7","token()":"fc0c546a","transferOwnership(address)":"f2fde38b","vestings(address)":"daf49863","withdrawUnallocated(address)":"b3b3e87f"},"id":20}