{"abi":[{"type":"constructor","inputs":[],"stateMutability":"payable"},{"type":"function","name":"allocatedTokens","inputs":[],"outputs":[{"name":"","type":"uint256","internalType":"uint256"}],"stateMutability":"view"},{"type":"function","name":"claim","inputs":[],"outputs":[],"stateMutability":"nonpayable"},{"type":"function","name":"claimableAmount","inputs":[{"name":"_claimer","type":"address","internalType":"address"}],"outputs":[{"name":"","type":"uint256","internalType":"uint256"}],"stateMutability":"view"},{"type":"function","name":"deployManager","inputs":[],"outputs":[{"name":"","type":"address","internalType":"address"}],"stateMutability":"view"},{"type":"function","name":"getDeployManager","inputs":[],"outputs":[{"name":"","type":"address","internalType":"address"}],"stateMutability":"view"},{"type":"function","name":"getInitData","inputs":[{"name":"_deployManager","type":"address","internalType":"address"},{"name":"_token","type":"address","internalType":"address"},{"name":"_owner","type":"address","internalType":"address"}],"outputs":[{"name":"","type":"bytes","internalType":"bytes"}],"stateMutability":"pure"},{"type":"function","name":"getVestingInfo","inputs":[{"name":"_claimer","type":"address","internalType":"address"}],"outputs":[{"name":"","type":"tuple","internalType":"struct IVesting.VestingInfo","components":[{"name":"totalAmount","type":"uint256","internalType":"uint256"},{"name":"startTime","type":"uint256","internalType":"uint256"},{"name":"cliff","type":"uint256","internalType":"uint256"},{"name":"duration","type":"uint256","internalType":"uint256"},{"name":"claimed","type":"uint256","internalType":"uint256"},{"name":"lastClaimTime","type":"uint256","internalType":"uint256"},{"name":"claimCooldown","type":"uint256","internalType":"uint256"},{"name":"minClaimAmount","type":"uint256","internalType":"uint256"},{"name":"created","type":"bool","internalType":"bool"}]}],"stateMutability":"view"},{"type":"function","name":"initialize","inputs":[{"name":"_initData","type":"bytes","internalType":"bytes"}],"outputs":[{"name":"","type":"bool","internalType":"bool"}],"stateMutability":"nonpayable"},{"type":"function","name":"initialized","inputs":[],"outputs":[{"name":"","type":"bool","internalType":"bool"}],"stateMutability":"view"},{"type":"function","name":"owner","inputs":[],"outputs":[{"name":"","type":"address","internalType":"address"}],"stateMutability":"view"},{"type":"function","name":"renounceOwnership","inputs":[],"outputs":[],"stateMutability":"nonpayable"},{"type":"function","name":"startVesting","inputs":[{"name":"params","type":"tuple","internalType":"struct IVesting.VestingParams","components":[{"name":"beneficiary","type":"address","internalType":"address"},{"name":"totalAmount","type":"uint256","internalType":"uint256"},{"name":"startTime","type":"uint256","internalType":"uint256"},{"name":"cliff","type":"uint256","internalType":"uint256"},{"name":"duration","type":"uint256","internalType":"uint256"},{"name":"claimCooldown","type":"uint256","internalType":"uint256"},{"name":"minClaimAmount","type":"uint256","internalType":"uint256"}]}],"outputs":[],"stateMutability":"nonpayable"},{"type":"function","name":"supportsInterface","inputs":[{"name":"interfaceId","type":"bytes4","internalType":"bytes4"}],"outputs":[{"name":"","type":"bool","internalType":"bool"}],"stateMutability":"view"},{"type":"function","name":"token","inputs":[],"outputs":[{"name":"","type":"address","internalType":"contract IERC20"}],"stateMutability":"view"},{"type":"function","name":"transferOwnership","inputs":[{"name":"newOwner","type":"address","internalType":"address"}],"outputs":[],"stateMutability":"nonpayable"},{"type":"function","name":"vestedAmount","inputs":[{"name":"_claimer","type":"address","internalType":"address"}],"outputs":[{"name":"","type":"uint256","internalType":"uint256"}],"stateMutability":"view"},{"type":"function","name":"vestings","inputs":[{"name":"","type":"address","internalType":"address"}],"outputs":[{"name":"totalAmount","type":"uint256","internalType":"uint256"},{"name":"startTime","type":"uint256","internalType":"uint256"},{"name":"cliff","type":"uint256","internalType":"uint256"},{"name":"duration","type":"uint256","internalType":"uint256"},{"name":"claimed","type":"uint256","internalType":"uint256"},{"name":"lastClaimTime","type":"uint256","internalType":"uint256"},{"name":"claimCooldown","type":"uint256","internalType":"uint256"},{"name":"minClaimAmount","type":"uint256","internalType":"uint256"},{"name":"created","type":"bool","internalType":"bool"}],"stateMutability":"view"},{"type":"function","name":"withdrawUnallocated","inputs":[{"name":"_to","type":"address","internalType":"address"}],"outputs":[],"stateMutability":"nonpayable"},{"type":"event","name":"Claim","inputs":[{"name":"beneficiary","type":"address","indexed":true,"internalType":"address"},{"name":"amount","type":"uint256","indexed":false,"internalType":"uint256"},{"name":"timestamp","type":"uint256","indexed":false,"internalType":"uint256"}],"anonymous":false},{"type":"event","name":"OwnershipTransferred","inputs":[{"name":"previousOwner","type":"address","indexed":true,"internalType":"address"},{"name":"newOwner","type":"address","indexed":true,"internalType":"address"}],"anonymous":false},{"type":"event","name":"TokensWithdrawn","inputs":[{"name":"to","type":"address","indexed":true,"internalType":"address"},{"name":"amount","type":"uint256","indexed":false,"internalType":"uint256"}],"anonymous":false},{"type":"event","name":"VestingCreated","inputs":[{"name":"beneficiary","type":"address","indexed":true,"internalType":"address"},{"name":"amount","type":"uint256","indexed":false,"internalType":"uint256"},{"name":"creationTime","type":"uint256","indexed":false,"internalType":"uint256"}],"anonymous":false},{"type":"error","name":"AlreadyInitialized","inputs":[]},{"type":"error","name":"AmountCantBeZero","inputs":[]},{"type":"error","name":"BelowMinimalClaimAmount","inputs":[{"name":"minClaimAmount","type":"uint256","internalType":"uint256"},{"name":"claimable","type":"uint256","internalType":"uint256"}]},{"type":"error","name":"ClaimNotAvailable","inputs":[{"name":"blockTimestamp","type":"uint256","internalType":"uint256"},{"name":"availableFrom","type":"uint256","internalType":"uint256"}]},{"type":"error","name":"CooldownCantBeLongerThanDuration","inputs":[]},{"type":"error","name":"CooldownNotPassed","inputs":[{"name":"blockTimestamp","type":"uint256","internalType":"uint256"},{"name":"lastClaimTime","type":"uint256","internalType":"uint256"}]},{"type":"error","name":"DeployManagerCannotBeZero","inputs":[]},{"type":"error","name":"DurationCantBeZero","inputs":[]},{"type":"error","name":"FailedToDeployManager","inputs":[]},{"type":"error","name":"InfsufficientBalance","inputs":[{"name":"availableBalance","type":"uint256","internalType":"uint256"},{"name":"totalAmount","type":"uint256","internalType":"uint256"}]},{"type":"error","name":"InvalidBeneficiary","inputs":[]},{"type":"error","name":"NotDeployManager","inputs":[]},{"type":"error","name":"NothingToClaim","inputs":[]},{"type":"error","name":"NothingToWithdraw","inputs":[]},{"type":"error","name":"OwnableInvalidOwner","inputs":[{"name":"owner","type":"address","internalType":"address"}]},{"type":"error","name":"OwnableUnauthorizedAccount","inputs":[{"name":"account","type":"address","internalType":"address"}]},{"type":"error","name":"StartTimeShouldBeFuture","inputs":[{"name":"startTime","type":"uint256","internalType":"uint256"},{"name":"blockTimestamp","type":"uint256","internalType":"uint256"}]},{"type":"error","name":"VestingAlreadyExist","inputs":[]},{"type":"error","name":"VestingNotFound","inputs":[]}],"bytecode":{"object":"0x6080604052335f73ffffffffffffffffffffffffffffffffffffffff168173ffffffffffffffffffffffffffffffffffffffff1603610075575f6040517f1e4fbdf700000000000000000000000000000000000000000000000000000000815260040161006c919061018c565b60405180910390fd5b6100848161008a60201b60201c565b506101a5565b5f60015f9054906101000a900473ffffffffffffffffffffffffffffffffffffffff1690508160015f6101000a81548173ffffffffffffffffffffffffffffffffffffffff021916908373ffffffffffffffffffffffffffffffffffffffff1602179055508173ffffffffffffffffffffffffffffffffffffffff168173ffffffffffffffffffffffffffffffffffffffff167f8be0079c531659141344cd1fd0a4f28419497f9722a3daafe3b4186f6b6457e060405160405180910390a35050565b5f73ffffffffffffffffffffffffffffffffffffffff82169050919050565b5f6101768261014d565b9050919050565b6101868161016c565b82525050565b5f60208201905061019f5f83018461017d565b92915050565b611f17806101b25f395ff3fe608060405234801561000f575f5ffd5b5060043610610113575f3560e01c806393394029116100a0578063daf498631161006f578063daf49863146102cb578063f2fde38b14610303578063f7fc87f21461031f578063fb897ce41461033d578063fc0c546a1461036d57610113565b80639339402914610245578063a7fa487b14610263578063b3b3e87f1461027f578063c475dda91461029b57610113565b8063439fab91116100e7578063439fab91146101b35780634e71d92d146101e3578063715018a6146101ed57806389885049146101f75780638da5cb5b1461022757610113565b80622f95691461011757806301ffc9a714610135578063158ef93e14610165578063384711cc14610183575b5f5ffd5b61011f61038b565b60405161012c91906115ba565b60405180910390f35b61014f600480360381019061014a9190611639565b610391565b60405161015c919061167e565b60405180910390f35b61016d61040a565b60405161017a919061167e565b60405180910390f35b61019d600480360381019061019891906116f1565b61041b565b6040516101aa91906115ba565b60405180910390f35b6101cd60048036038101906101c89190611858565b610468565b6040516101da919061167e565b60405180910390f35b6101eb610542565b005b6101f561085e565b005b610211600480360381019061020c91906116f1565b610871565b60405161021e91906115ba565b60405180910390f35b61022f6108be565b60405161023c91906118ae565b60405180910390f35b61024d6108e6565b60405161025a91906118ae565b60405180910390f35b61027d600480360381019061027891906118e9565b61090b565b005b610299600480360381019061029491906116f1565b610d2d565b005b6102b560048036038101906102b09190611914565b610f0d565b6040516102c291906119c4565b60405180910390f35b6102e560048036038101906102e091906116f1565b610f3c565b6040516102fa999897969594939291906119e4565b60405180910390f35b61031d600480360381019061031891906116f1565b610f92565b005b610327611016565b60405161033491906118ae565b60405180910390f35b610357600480360381019061035291906116f1565b61103e565b6040516103649190611b42565b60405180910390f35b6103756110ff565b6040516103829190611bb7565b60405180910390f35b60035481565b5f7fb4632c63000000000000000000000000000000000000000000000000000000007bffffffffffffffffffffffffffffffffffffffffffffffffffffffff1916827bffffffffffffffffffffffffffffffffffffffffffffffffffffffff19161480610403575061040282611124565b5b9050919050565b5f5f9054906101000a900460ff1681565b5f61046160045f8473ffffffffffffffffffffffffffffffffffffffff1673ffffffffffffffffffffffffffffffffffffffff1681526020019081526020015f2061118d565b9050919050565b5f5f5f9054906101000a900460ff16156104ae576040517f0dc149f000000000000000000000000000000000000000000000000000000000815260040160405180910390fd5b5f5f5f848060200190518101906104c59190611c0b565b9250925092506104d48361120e565b8160025f6101000a81548173ffffffffffffffffffffffffffffffffffffffff021916908373ffffffffffffffffffffffffffffffffffffffff16021790555061051d81611290565b60015f5f6101000a81548160ff02191690831515021790555060019350505050919050565b5f3390505f60045f8373ffffffffffffffffffffffffffffffffffffffff1673ffffffffffffffffffffffffffffffffffffffff1681526020019081526020015f209050806008015f9054906101000a900460ff166105cd576040517fe146a52b00000000000000000000000000000000000000000000000000000000815260040160405180910390fd5b5f429050816002015482600101546105e59190611c88565b81101561063e5780826002015483600101546106019190611c88565b6040517f0e57b27c000000000000000000000000000000000000000000000000000000008152600401610635929190611cbb565b60405180910390fd5b5f8260050154141580156106655750816006015482600501546106619190611c88565b8111155b156106ad578082600501546040517f9a4efe230000000000000000000000000000000000000000000000000000000081526004016106a4929190611cbb565b60405180910390fd5b5f6106b783611353565b90505f81036106f2576040517f969bf72800000000000000000000000000000000000000000000000000000000815260040160405180910390fd5b8260070154811015610741578260070154816040517f405c7731000000000000000000000000000000000000000000000000000000008152600401610738929190611cbb565b60405180910390fd5b808360040154018360040181905550818360050181905550806003540360038190555060025f9054906101000a900473ffffffffffffffffffffffffffffffffffffffff1673ffffffffffffffffffffffffffffffffffffffff1663a9059cbb85836040518363ffffffff1660e01b81526004016107c0929190611ce2565b6020604051808303815f875af11580156107dc573d5f5f3e3d5ffd5b505050506040513d601f19601f820116820180604052508101906108009190611d33565b610808575f5ffd5b8373ffffffffffffffffffffffffffffffffffffffff167f34fcbac0073d7c3d388e51312faf357774904998eeb8fca628b9e6f65ee1cbf78284604051610850929190611cbb565b60405180910390a250505050565b61086661138d565b61086f5f611290565b565b5f6108b760045f8473ffffffffffffffffffffffffffffffffffffffff1673ffffffffffffffffffffffffffffffffffffffff1681526020019081526020015f20611353565b9050919050565b5f60015f9054906101000a900473ffffffffffffffffffffffffffffffffffffffff16905090565b5f60019054906101000a900473ffffffffffffffffffffffffffffffffffffffff1681565b61091361138d565b5f73ffffffffffffffffffffffffffffffffffffffff16815f01602081019061093c91906116f1565b73ffffffffffffffffffffffffffffffffffffffff1603610989576040517f5566df5c00000000000000000000000000000000000000000000000000000000815260040160405180910390fd5b5f8160800135036109c6576040517faf0a1ac000000000000000000000000000000000000000000000000000000000815260040160405180910390fd5b5f816020013503610a03576040517f46f1397d00000000000000000000000000000000000000000000000000000000815260040160405180910390fd5b5f4290508082604001351015610a56578160400135816040517fbb6a7ff2000000000000000000000000000000000000000000000000000000008152600401610a4d929190611cbb565b60405180910390fd5b81608001358260a001351115610a98576040517f28a4e6f600000000000000000000000000000000000000000000000000000000815260040160405180910390fd5b5f60035460025f9054906101000a900473ffffffffffffffffffffffffffffffffffffffff1673ffffffffffffffffffffffffffffffffffffffff166370a08231306040518263ffffffff1660e01b8152600401610af691906118ae565b602060405180830381865afa158015610b11573d5f5f3e3d5ffd5b505050506040513d601f19601f82011682018060405250810190610b359190611d88565b610b3f9190611db3565b90508260200135811015610b90578083602001356040517f4c7420ef000000000000000000000000000000000000000000000000000000008152600401610b87929190611cbb565b60405180910390fd5b5f60045f855f016020810190610ba691906116f1565b73ffffffffffffffffffffffffffffffffffffffff1673ffffffffffffffffffffffffffffffffffffffff1681526020019081526020015f209050806008015f9054906101000a900460ff1615610c38578060040154815f015414610c37576040517fda2573cf00000000000000000000000000000000000000000000000000000000815260040160405180910390fd5b5b8360200135815f01819055508360400135816001018190555083606001358160020181905550836080013581600301819055508360a0013581600601819055508360c0013581600701819055505f81600401819055505f81600501819055506001816008015f6101000a81548160ff021916908315150217905550836020013560035401600381905550835f016020810190610cd491906116f1565b73ffffffffffffffffffffffffffffffffffffffff167f9ade76f4385de306666dfb21a52b27d52db0fde8ad0f515fa261f532cac60d21856020013585604051610d1f929190611cbb565b60405180910390a250505050565b610d3561138d565b5f60035460025f9054906101000a900473ffffffffffffffffffffffffffffffffffffffff1673ffffffffffffffffffffffffffffffffffffffff166370a08231306040518263ffffffff1660e01b8152600401610d9391906118ae565b602060405180830381865afa158015610dae573d5f5f3e3d5ffd5b505050506040513d601f19601f82011682018060405250810190610dd29190611d88565b610ddc9190611db3565b90505f8103610e17576040517fd0d04f6000000000000000000000000000000000000000000000000000000000815260040160405180910390fd5b60025f9054906101000a900473ffffffffffffffffffffffffffffffffffffffff1673ffffffffffffffffffffffffffffffffffffffff1663a9059cbb83836040518363ffffffff1660e01b8152600401610e73929190611ce2565b6020604051808303815f875af1158015610e8f573d5f5f3e3d5ffd5b505050506040513d601f19601f82011682018060405250810190610eb39190611d33565b610ebb575f5ffd5b8173ffffffffffffffffffffffffffffffffffffffff167f6352c5382c4a4578e712449ca65e83cdb392d045dfcf1cad9615189db2da244b82604051610f0191906115ba565b60405180910390a25050565b6060838383604051602001610f2493929190611de6565b60405160208183030381529060405290509392505050565b6004602052805f5260405f205f91509050805f015490806001015490806002015490806003015490806004015490806005015490806006015490806007015490806008015f9054906101000a900460ff16905089565b610f9a61138d565b5f73ffffffffffffffffffffffffffffffffffffffff168173ffffffffffffffffffffffffffffffffffffffff160361100a575f6040517f1e4fbdf700000000000000000000000000000000000000000000000000000000815260040161100191906118ae565b60405180910390fd5b61101381611290565b50565b5f5f60019054906101000a900473ffffffffffffffffffffffffffffffffffffffff16905090565b61104661155d565b60045f8373ffffffffffffffffffffffffffffffffffffffff1673ffffffffffffffffffffffffffffffffffffffff1681526020019081526020015f20604051806101200160405290815f820154815260200160018201548152602001600282015481526020016003820154815260200160048201548152602001600582015481526020016006820154815260200160078201548152602001600882015f9054906101000a900460ff1615151515815250509050919050565b60025f9054906101000a900473ffffffffffffffffffffffffffffffffffffffff1681565b5f7f01ffc9a7000000000000000000000000000000000000000000000000000000007bffffffffffffffffffffffffffffffffffffffffffffffffffffffff1916827bffffffffffffffffffffffffffffffffffffffffffffffffffffffff1916149050919050565b5f816002015482600101546111a29190611c88565b4210156111b1575f9050611209565b5f826002015483600101546111c69190611c88565b426111d19190611db3565b905082600301548111156111e757826003015490505b826003015481845f01546111fb9190611e1b565b6112059190611e89565b9150505b919050565b61121781611414565b61124d576040517f820fe9f800000000000000000000000000000000000000000000000000000000815260040160405180910390fd5b805f60016101000a81548173ffffffffffffffffffffffffffffffffffffffff021916908373ffffffffffffffffffffffffffffffffffffffff16021790555050565b5f60015f9054906101000a900473ffffffffffffffffffffffffffffffffffffffff1690508160015f6101000a81548173ffffffffffffffffffffffffffffffffffffffff021916908373ffffffffffffffffffffffffffffffffffffffff1602179055508173ffffffffffffffffffffffffffffffffffffffff168173ffffffffffffffffffffffffffffffffffffffff167f8be0079c531659141344cd1fd0a4f28419497f9722a3daafe3b4186f6b6457e060405160405180910390a35050565b5f5f61135e8361118d565b905082600401548111611374575f915050611388565b8260040154816113849190611db3565b9150505b919050565b611395611556565b73ffffffffffffffffffffffffffffffffffffffff166113b36108be565b73ffffffffffffffffffffffffffffffffffffffff1614611412576113d6611556565b6040517f118cdaa700000000000000000000000000000000000000000000000000000000815260040161140991906118ae565b60405180910390fd5b565b5f5f73ffffffffffffffffffffffffffffffffffffffff168273ffffffffffffffffffffffffffffffffffffffff160361147a576040517f7cc06ca200000000000000000000000000000000000000000000000000000000815260040160405180910390fd5b5f7f267fcfaf0000000000000000000000000000000000000000000000000000000090508273ffffffffffffffffffffffffffffffffffffffff166301ffc9a7826040518263ffffffff1660e01b81526004016114d79190611ec8565b602060405180830381865afa1580156114f2573d5f5f3e3d5ffd5b505050506040513d601f19601f820116820180604052508101906115169190611d33565b61154c576040517f5f0e0ffc00000000000000000000000000000000000000000000000000000000815260040160405180910390fd5b6001915050919050565b5f33905090565b6040518061012001604052805f81526020015f81526020015f81526020015f81526020015f81526020015f81526020015f81526020015f81526020015f151581525090565b5f819050919050565b6115b4816115a2565b82525050565b5f6020820190506115cd5f8301846115ab565b92915050565b5f604051905090565b5f5ffd5b5f5ffd5b5f7fffffffff0000000000000000000000000000000000000000000000000000000082169050919050565b611618816115e4565b8114611622575f5ffd5b50565b5f813590506116338161160f565b92915050565b5f6020828403121561164e5761164d6115dc565b5b5f61165b84828501611625565b91505092915050565b5f8115159050919050565b61167881611664565b82525050565b5f6020820190506116915f83018461166f565b92915050565b5f73ffffffffffffffffffffffffffffffffffffffff82169050919050565b5f6116c082611697565b9050919050565b6116d0816116b6565b81146116da575f5ffd5b50565b5f813590506116eb816116c7565b92915050565b5f60208284031215611706576117056115dc565b5b5f611713848285016116dd565b91505092915050565b5f5ffd5b5f5ffd5b5f601f19601f8301169050919050565b7f4e487b71000000000000000000000000000000000000000000000000000000005f52604160045260245ffd5b61176a82611724565b810181811067ffffffffffffffff8211171561178957611788611734565b5b80604052505050565b5f61179b6115d3565b90506117a78282611761565b919050565b5f67ffffffffffffffff8211156117c6576117c5611734565b5b6117cf82611724565b9050602081019050919050565b828183375f83830152505050565b5f6117fc6117f7846117ac565b611792565b90508281526020810184848401111561181857611817611720565b5b6118238482856117dc565b509392505050565b5f82601f83011261183f5761183e61171c565b5b813561184f8482602086016117ea565b91505092915050565b5f6020828403121561186d5761186c6115dc565b5b5f82013567ffffffffffffffff81111561188a576118896115e0565b5b6118968482850161182b565b91505092915050565b6118a8816116b6565b82525050565b5f6020820190506118c15f83018461189f565b92915050565b5f5ffd5b5f60e082840312156118e0576118df6118c7565b5b81905092915050565b5f60e082840312156118fe576118fd6115dc565b5b5f61190b848285016118cb565b91505092915050565b5f5f5f6060848603121561192b5761192a6115dc565b5b5f611938868287016116dd565b9350506020611949868287016116dd565b925050604061195a868287016116dd565b9150509250925092565b5f81519050919050565b5f82825260208201905092915050565b8281835e5f83830152505050565b5f61199682611964565b6119a0818561196e565b93506119b081856020860161197e565b6119b981611724565b840191505092915050565b5f6020820190508181035f8301526119dc818461198c565b905092915050565b5f610120820190506119f85f83018c6115ab565b611a05602083018b6115ab565b611a12604083018a6115ab565b611a1f60608301896115ab565b611a2c60808301886115ab565b611a3960a08301876115ab565b611a4660c08301866115ab565b611a5360e08301856115ab565b611a6161010083018461166f565b9a9950505050505050505050565b611a78816115a2565b82525050565b611a8781611664565b82525050565b61012082015f820151611aa25f850182611a6f565b506020820151611ab56020850182611a6f565b506040820151611ac86040850182611a6f565b506060820151611adb6060850182611a6f565b506080820151611aee6080850182611a6f565b5060a0820151611b0160a0850182611a6f565b5060c0820151611b1460c0850182611a6f565b5060e0820151611b2760e0850182611a6f565b50610100820151611b3c610100850182611a7e565b50505050565b5f61012082019050611b565f830184611a8d565b92915050565b5f819050919050565b5f611b7f611b7a611b7584611697565b611b5c565b611697565b9050919050565b5f611b9082611b65565b9050919050565b5f611ba182611b86565b9050919050565b611bb181611b97565b82525050565b5f602082019050611bca5f830184611ba8565b92915050565b5f611bda82611697565b9050919050565b611bea81611bd0565b8114611bf4575f5ffd5b50565b5f81519050611c0581611be1565b92915050565b5f5f5f60608486031215611c2257611c216115dc565b5b5f611c2f86828701611bf7565b9350506020611c4086828701611bf7565b9250506040611c5186828701611bf7565b9150509250925092565b7f4e487b71000000000000000000000000000000000000000000000000000000005f52601160045260245ffd5b5f611c92826115a2565b9150611c9d836115a2565b9250828201905080821115611cb557611cb4611c5b565b5b92915050565b5f604082019050611cce5f8301856115ab565b611cdb60208301846115ab565b9392505050565b5f604082019050611cf55f83018561189f565b611d0260208301846115ab565b9392505050565b611d1281611664565b8114611d1c575f5ffd5b50565b5f81519050611d2d81611d09565b92915050565b5f60208284031215611d4857611d476115dc565b5b5f611d5584828501611d1f565b91505092915050565b611d67816115a2565b8114611d71575f5ffd5b50565b5f81519050611d8281611d5e565b92915050565b5f60208284031215611d9d57611d9c6115dc565b5b5f611daa84828501611d74565b91505092915050565b5f611dbd826115a2565b9150611dc8836115a2565b9250828203905081811115611de057611ddf611c5b565b5b92915050565b5f606082019050611df95f83018661189f565b611e06602083018561189f565b611e13604083018461189f565b949350505050565b5f611e25826115a2565b9150611e30836115a2565b9250828202611e3e816115a2565b91508282048414831517611e5557611e54611c5b565b5b5092915050565b7f4e487b71000000000000000000000000000000000000000000000000000000005f52601260045260245ffd5b5f611e93826115a2565b9150611e9e836115a2565b925082611eae57611ead611e5c565b5b828204905092915050565b611ec2816115e4565b82525050565b5f602082019050611edb5f830184611eb9565b9291505056fea2646970667358221220f800b685027f1389e563e541151d7ab7ded373e537a37d5cf5cfabd0be61439464736f6c634300081d0033","linkReferences":{}},"methodIdentifiers":{"allocatedTokens()":"002f9569","claim()":"4e71d92d","claimableAmount(address)":"89885049","deployManager()":"93394029","getDeployManager()":"f7fc87f2","getInitData(address,address,address)":"c475dda9","getVestingInfo(address)":"fb897ce4","initialize(bytes)":"439fab91","initialized()":"158ef93e","owner()":"8da5cb5b","renounceOwnership()":"715018a6","startVesting((address,uint256,uint256,uint256,uint256,uint256,uint256))":"a7fa487b","supportsInterface(bytes4)":"01ffc9a7","token()":"fc0c546a","transferOwnership(address)":"f2fde38b","vestedAmount(address)":"384711cc","vestings(address)":"daf49863","withdrawUnallocated(address)":"b3b3e87f"},"id":36}