{"abi":[{"type":"constructor","inputs":[],"stateMutability":"payable"},{"type":"function","name":"allocatedTokens","inputs":[],"outputs":[{"name":"","type":"uint256","internalType":"uint256"}],"stateMutability":"view"},{"type":"function","name":"claim","inputs":[],"outputs":[],"stateMutability":"nonpayable"},{"type":"function","name":"claimableAmount","inputs":[{"name":"_claimer","type":"address","internalType":"address"}],"outputs":[{"name":"","type":"uint256","internalType":"uint256"}],"stateMutability":"view"},{"type":"function","name":"deployManager","inputs":[],"outputs":[{"name":"","type":"address","internalType":"address"}],"stateMutability":"view"},{"type":"function","name":"getDeployManager","inputs":[],"outputs":[{"name":"","type":"address","internalType":"address"}],"stateMutability":"view"},{"type":"function","name":"getInitData","inputs":[{"name":"_deployManager","type":"address","internalType":"address"},{"name":"_token","type":"address","internalType":"address"},{"name":"_owner","type":"address","internalType":"address"}],"outputs":[{"name":"","type":"bytes","internalType":"bytes"}],"stateMutability":"pure"},{"type":"function","name":"initialize","inputs":[{"name":"_initData","type":"bytes","internalType":"bytes"}],"outputs":[{"name":"","type":"bool","internalType":"bool"}],"stateMutability":"nonpayable"},{"type":"function","name":"initialized","inputs":[],"outputs":[{"name":"","type":"bool","internalType":"bool"}],"stateMutability":"view"},{"type":"function","name":"owner","inputs":[],"outputs":[{"name":"","type":"address","internalType":"address"}],"stateMutability":"view"},{"type":"function","name":"renounceOwnership","inputs":[],"outputs":[],"stateMutability":"nonpayable"},{"type":"function","name":"startVesting","inputs":[{"name":"params","type":"tuple","internalType":"struct IVesting.VestingParams","components":[{"name":"beneficiary","type":"address","internalType":"address"},{"name":"totalAmount","type":"uint256","internalType":"uint256"},{"name":"startTime","type":"uint256","internalType":"uint256"},{"name":"cliff","type":"uint256","internalType":"uint256"},{"name":"duration","type":"uint256","internalType":"uint256"},{"name":"claimCooldown","type":"uint256","internalType":"uint256"},{"name":"minClaimAmount","type":"uint256","internalType":"uint256"}]}],"outputs":[],"stateMutability":"nonpayable"},{"type":"function","name":"supportsInterface","inputs":[{"name":"interfaceId","type":"bytes4","internalType":"bytes4"}],"outputs":[{"name":"","type":"bool","internalType":"bool"}],"stateMutability":"view"},{"type":"function","name":"token","inputs":[],"outputs":[{"name":"","type":"address","internalType":"contract IERC20"}],"stateMutability":"view"},{"type":"function","name":"transferOwnership","inputs":[{"name":"newOwner","type":"address","internalType":"address"}],"outputs":[],"stateMutability":"nonpayable"},{"type":"function","name":"vestedAmount","inputs":[{"name":"_claimer","type":"address","internalType":"address"}],"outputs":[{"name":"","type":"uint256","internalType":"uint256"}],"stateMutability":"view"},{"type":"function","name":"vestings","inputs":[{"name":"","type":"address","internalType":"address"}],"outputs":[{"name":"totalAmount","type":"uint256","internalType":"uint256"},{"name":"startTime","type":"uint256","internalType":"uint256"},{"name":"cliff","type":"uint256","internalType":"uint256"},{"name":"duration","type":"uint256","internalType":"uint256"},{"name":"claimed","type":"uint256","internalType":"uint256"},{"name":"lastClaimTime","type":"uint256","internalType":"uint256"},{"name":"claimCooldown","type":"uint256","internalType":"uint256"},{"name":"minClaimAmount","type":"uint256","internalType":"uint256"},{"name":"isCreated","type":"bool","internalType":"bool"}],"stateMutability":"view"},{"type":"function","name":"withdrawUnallocated","inputs":[{"name":"_to","type":"address","internalType":"address"}],"outputs":[],"stateMutability":"nonpayable"},{"type":"event","name":"Claim","inputs":[{"name":"beneficiary","type":"address","indexed":true,"internalType":"address"},{"name":"amount","type":"uint256","indexed":false,"internalType":"uint256"},{"name":"timestamp","type":"uint256","indexed":false,"internalType":"uint256"}],"anonymous":false},{"type":"event","name":"OwnershipTransferred","inputs":[{"name":"previousOwner","type":"address","indexed":true,"internalType":"address"},{"name":"newOwner","type":"address","indexed":true,"internalType":"address"}],"anonymous":false},{"type":"event","name":"TokensWithdrawn","inputs":[{"name":"to","type":"address","indexed":true,"internalType":"address"},{"name":"amount","type":"uint256","indexed":false,"internalType":"uint256"}],"anonymous":false},{"type":"event","name":"VestingCreated","inputs":[{"name":"beneficiary","type":"address","indexed":true,"internalType":"address"},{"name":"amount","type":"uint256","indexed":false,"internalType":"uint256"},{"name":"creationTime","type":"uint256","indexed":false,"internalType":"uint256"}],"anonymous":false},{"type":"error","name":"AlreadyInitialized","inputs":[]},{"type":"error","name":"AmountCantBeZero","inputs":[]},{"type":"error","name":"BelowMinimalClaimAmount","inputs":[{"name":"minClaimAmount","type":"uint256","internalType":"uint256"},{"name":"claimable","type":"uint256","internalType":"uint256"}]},{"type":"error","name":"ClaimNotAvailable","inputs":[{"name":"blockTimestamp","type":"uint256","internalType":"uint256"},{"name":"availableFrom","type":"uint256","internalType":"uint256"}]},{"type":"error","name":"CooldownCantBeLongerThanDuration","inputs":[]},{"type":"error","name":"CooldownNotPassed","inputs":[{"name":"blockTimestamp","type":"uint256","internalType":"uint256"},{"name":"lastClaimTime","type":"uint256","internalType":"uint256"}]},{"type":"error","name":"DeployManagerCannotBeZero","inputs":[]},{"type":"error","name":"DurationCantBeZero","inputs":[]},{"type":"error","name":"FailedToDeployManager","inputs":[]},{"type":"error","name":"InfsufficientBalance","inputs":[{"name":"availableBalance","type":"uint256","internalType":"uint256"},{"name":"totalAmount","type":"uint256","internalType":"uint256"}]},{"type":"error","name":"InvalidBeneficiary","inputs":[]},{"type":"error","name":"NotDeployManager","inputs":[]},{"type":"error","name":"NothingToClaim","inputs":[]},{"type":"error","name":"NothingToWithdraw","inputs":[]},{"type":"error","name":"OwnableInvalidOwner","inputs":[{"name":"owner","type":"address","internalType":"address"}]},{"type":"error","name":"OwnableUnauthorizedAccount","inputs":[{"name":"account","type":"address","internalType":"address"}]},{"type":"error","name":"StartTimeShouldBeFuture","inputs":[{"name":"startTime","type":"uint256","internalType":"uint256"},{"name":"blockTimestamp","type":"uint256","internalType":"uint256"}]},{"type":"error","name":"VestingAlreadyExist","inputs":[]},{"type":"error","name":"VestingNotFound","inputs":[]}],"bytecode":{"object":"0x6080604052335f73ffffffffffffffffffffffffffffffffffffffff168173ffffffffffffffffffffffffffffffffffffffff1603610075575f6040517f1e4fbdf700000000000000000000000000000000000000000000000000000000815260040161006c919061018c565b60405180910390fd5b6100848161008a60201b60201c565b506101a5565b5f60015f9054906101000a900473ffffffffffffffffffffffffffffffffffffffff1690508160015f6101000a81548173ffffffffffffffffffffffffffffffffffffffff021916908373ffffffffffffffffffffffffffffffffffffffff1602179055508173ffffffffffffffffffffffffffffffffffffffff168173ffffffffffffffffffffffffffffffffffffffff167f8be0079c531659141344cd1fd0a4f28419497f9722a3daafe3b4186f6b6457e060405160405180910390a35050565b5f73ffffffffffffffffffffffffffffffffffffffff82169050919050565b5f6101768261014d565b9050919050565b6101868161016c565b82525050565b5f60208201905061019f5f83018461017d565b92915050565b611cd7806101b25f395ff3fe608060405234801561000f575f5ffd5b5060043610610108575f3560e01c80638da5cb5b116100a0578063c475dda91161006f578063c475dda914610290578063daf49863146102c0578063f2fde38b146102f8578063f7fc87f214610314578063fc0c546a1461033257610108565b80638da5cb5b1461021c578063933940291461023a578063a7fa487b14610258578063b3b3e87f1461027457610108565b8063439fab91116100dc578063439fab91146101a85780634e71d92d146101d8578063715018a6146101e257806389885049146101ec57610108565b80622f95691461010c57806301ffc9a71461012a578063158ef93e1461015a578063384711cc14610178575b5f5ffd5b610114610350565b6040516101219190611467565b60405180910390f35b610144600480360381019061013f91906114e6565b610356565b604051610151919061152b565b60405180910390f35b6101626103cf565b60405161016f919061152b565b60405180910390f35b610192600480360381019061018d919061159e565b6103e0565b60405161019f9190611467565b60405180910390f35b6101c260048036038101906101bd9190611705565b61042d565b6040516101cf919061152b565b60405180910390f35b6101e0610507565b005b6101ea610811565b005b6102066004803603810190610201919061159e565b610824565b6040516102139190611467565b60405180910390f35b610224610871565b604051610231919061175b565b60405180910390f35b610242610899565b60405161024f919061175b565b60405180910390f35b610272600480360381019061026d9190611796565b6108be565b005b61028e6004803603810190610289919061159e565b610ce0565b005b6102aa60048036038101906102a591906117c1565b610ec0565b6040516102b79190611871565b60405180910390f35b6102da60048036038101906102d5919061159e565b610eef565b6040516102ef99989796959493929190611891565b60405180910390f35b610312600480360381019061030d919061159e565b610f45565b005b61031c610fc9565b604051610329919061175b565b60405180910390f35b61033a610ff1565b6040516103479190611977565b60405180910390f35b60035481565b5f7fb4632c63000000000000000000000000000000000000000000000000000000007bffffffffffffffffffffffffffffffffffffffffffffffffffffffff1916827bffffffffffffffffffffffffffffffffffffffffffffffffffffffff191614806103c857506103c782611016565b5b9050919050565b5f5f9054906101000a900460ff1681565b5f61042660045f8473ffffffffffffffffffffffffffffffffffffffff1673ffffffffffffffffffffffffffffffffffffffff1681526020019081526020015f2061107f565b9050919050565b5f5f5f9054906101000a900460ff1615610473576040517f0dc149f000000000000000000000000000000000000000000000000000000000815260040160405180910390fd5b5f5f5f8480602001905181019061048a91906119cb565b92509250925061049983611100565b8160025f6101000a81548173ffffffffffffffffffffffffffffffffffffffff021916908373ffffffffffffffffffffffffffffffffffffffff1602179055506104e281610f45565b60015f5f6101000a81548160ff02191690831515021790555060019350505050919050565b5f3390505f60045f8373ffffffffffffffffffffffffffffffffffffffff1673ffffffffffffffffffffffffffffffffffffffff1681526020019081526020015f209050806008015f9054906101000a900460ff16610592576040517fe146a52b00000000000000000000000000000000000000000000000000000000815260040160405180910390fd5b5f429050816002015482600101546105aa9190611a48565b8110156106035780826002015483600101546105c69190611a48565b6040517f0e57b27c0000000000000000000000000000000000000000000000000000000081526004016105fa929190611a7b565b60405180910390fd5b816006015482600501546106179190611a48565b8111610660578082600501546040517f9a4efe23000000000000000000000000000000000000000000000000000000008152600401610657929190611a7b565b60405180910390fd5b5f61066a83611182565b90505f81036106a5576040517f969bf72800000000000000000000000000000000000000000000000000000000815260040160405180910390fd5b82600701548110156106f4578260070154816040517f405c77310000000000000000000000000000000000000000000000000000000081526004016106eb929190611a7b565b60405180910390fd5b808360040154018360040181905550818360050181905550806003540360038190555060025f9054906101000a900473ffffffffffffffffffffffffffffffffffffffff1673ffffffffffffffffffffffffffffffffffffffff1663a9059cbb85836040518363ffffffff1660e01b8152600401610773929190611aa2565b6020604051808303815f875af115801561078f573d5f5f3e3d5ffd5b505050506040513d601f19601f820116820180604052508101906107b39190611af3565b6107bb575f5ffd5b8373ffffffffffffffffffffffffffffffffffffffff167f34fcbac0073d7c3d388e51312faf357774904998eeb8fca628b9e6f65ee1cbf78284604051610803929190611a7b565b60405180910390a250505050565b6108196111bc565b6108225f611243565b565b5f61086a60045f8473ffffffffffffffffffffffffffffffffffffffff1673ffffffffffffffffffffffffffffffffffffffff1681526020019081526020015f20611182565b9050919050565b5f60015f9054906101000a900473ffffffffffffffffffffffffffffffffffffffff16905090565b5f60019054906101000a900473ffffffffffffffffffffffffffffffffffffffff1681565b6108c66111bc565b5f73ffffffffffffffffffffffffffffffffffffffff16815f0160208101906108ef919061159e565b73ffffffffffffffffffffffffffffffffffffffff160361093c576040517f5566df5c00000000000000000000000000000000000000000000000000000000815260040160405180910390fd5b5f816080013503610979576040517faf0a1ac000000000000000000000000000000000000000000000000000000000815260040160405180910390fd5b5f8160200135036109b6576040517f46f1397d00000000000000000000000000000000000000000000000000000000815260040160405180910390fd5b5f4290508082604001351015610a09578160400135816040517fbb6a7ff2000000000000000000000000000000000000000000000000000000008152600401610a00929190611a7b565b60405180910390fd5b81608001358260a001351115610a4b576040517f28a4e6f600000000000000000000000000000000000000000000000000000000815260040160405180910390fd5b5f60035460025f9054906101000a900473ffffffffffffffffffffffffffffffffffffffff1673ffffffffffffffffffffffffffffffffffffffff166370a08231306040518263ffffffff1660e01b8152600401610aa9919061175b565b602060405180830381865afa158015610ac4573d5f5f3e3d5ffd5b505050506040513d601f19601f82011682018060405250810190610ae89190611b48565b610af29190611b73565b90508260200135811015610b43578083602001356040517f4c7420ef000000000000000000000000000000000000000000000000000000008152600401610b3a929190611a7b565b60405180910390fd5b5f60045f855f016020810190610b59919061159e565b73ffffffffffffffffffffffffffffffffffffffff1673ffffffffffffffffffffffffffffffffffffffff1681526020019081526020015f209050806008015f9054906101000a900460ff1615610beb578060040154815f015414610bea576040517fda2573cf00000000000000000000000000000000000000000000000000000000815260040160405180910390fd5b5b8360200135815f01819055508360400135816001018190555083606001358160020181905550836080013581600301819055508360a0013581600601819055508360c0013581600701819055505f81600401819055505f81600501819055506001816008015f6101000a81548160ff021916908315150217905550836020013560035401600381905550835f016020810190610c87919061159e565b73ffffffffffffffffffffffffffffffffffffffff167f9ade76f4385de306666dfb21a52b27d52db0fde8ad0f515fa261f532cac60d21856020013585604051610cd2929190611a7b565b60405180910390a250505050565b610ce86111bc565b5f60035460025f9054906101000a900473ffffffffffffffffffffffffffffffffffffffff1673ffffffffffffffffffffffffffffffffffffffff166370a08231306040518263ffffffff1660e01b8152600401610d46919061175b565b602060405180830381865afa158015610d61573d5f5f3e3d5ffd5b505050506040513d601f19601f82011682018060405250810190610d859190611b48565b610d8f9190611b73565b90505f8103610dca576040517fd0d04f6000000000000000000000000000000000000000000000000000000000815260040160405180910390fd5b60025f9054906101000a900473ffffffffffffffffffffffffffffffffffffffff1673ffffffffffffffffffffffffffffffffffffffff1663a9059cbb83836040518363ffffffff1660e01b8152600401610e26929190611aa2565b6020604051808303815f875af1158015610e42573d5f5f3e3d5ffd5b505050506040513d601f19601f82011682018060405250810190610e669190611af3565b610e6e575f5ffd5b8173ffffffffffffffffffffffffffffffffffffffff167f6352c5382c4a4578e712449ca65e83cdb392d045dfcf1cad9615189db2da244b82604051610eb49190611467565b60405180910390a25050565b6060838383604051602001610ed793929190611ba6565b60405160208183030381529060405290509392505050565b6004602052805f5260405f205f91509050805f015490806001015490806002015490806003015490806004015490806005015490806006015490806007015490806008015f9054906101000a900460ff16905089565b610f4d6111bc565b5f73ffffffffffffffffffffffffffffffffffffffff168173ffffffffffffffffffffffffffffffffffffffff1603610fbd575f6040517f1e4fbdf7000000000000000000000000000000000000000000000000000000008152600401610fb4919061175b565b60405180910390fd5b610fc681611243565b50565b5f5f60019054906101000a900473ffffffffffffffffffffffffffffffffffffffff16905090565b60025f9054906101000a900473ffffffffffffffffffffffffffffffffffffffff1681565b5f7f01ffc9a7000000000000000000000000000000000000000000000000000000007bffffffffffffffffffffffffffffffffffffffffffffffffffffffff1916827bffffffffffffffffffffffffffffffffffffffffffffffffffffffff1916149050919050565b5f816002015482600101546110949190611a48565b4210156110a3575f90506110fb565b5f826002015483600101546110b89190611a48565b426110c39190611b73565b905082600301548111156110d957826003015490505b826003015481845f01546110ed9190611bdb565b6110f79190611c49565b9150505b919050565b61110981611306565b61113f576040517f820fe9f800000000000000000000000000000000000000000000000000000000815260040160405180910390fd5b805f60016101000a81548173ffffffffffffffffffffffffffffffffffffffff021916908373ffffffffffffffffffffffffffffffffffffffff16021790555050565b5f5f61118d8361107f565b9050826004015481116111a3575f9150506111b7565b8260040154816111b39190611b73565b9150505b919050565b6111c4611448565b73ffffffffffffffffffffffffffffffffffffffff166111e2610871565b73ffffffffffffffffffffffffffffffffffffffff161461124157611205611448565b6040517f118cdaa7000000000000000000000000000000000000000000000000000000008152600401611238919061175b565b60405180910390fd5b565b5f60015f9054906101000a900473ffffffffffffffffffffffffffffffffffffffff1690508160015f6101000a81548173ffffffffffffffffffffffffffffffffffffffff021916908373ffffffffffffffffffffffffffffffffffffffff1602179055508173ffffffffffffffffffffffffffffffffffffffff168173ffffffffffffffffffffffffffffffffffffffff167f8be0079c531659141344cd1fd0a4f28419497f9722a3daafe3b4186f6b6457e060405160405180910390a35050565b5f5f73ffffffffffffffffffffffffffffffffffffffff168273ffffffffffffffffffffffffffffffffffffffff160361136c576040517f7cc06ca200000000000000000000000000000000000000000000000000000000815260040160405180910390fd5b5f7f267fcfaf0000000000000000000000000000000000000000000000000000000090508273ffffffffffffffffffffffffffffffffffffffff166301ffc9a7826040518263ffffffff1660e01b81526004016113c99190611c88565b602060405180830381865afa1580156113e4573d5f5f3e3d5ffd5b505050506040513d601f19601f820116820180604052508101906114089190611af3565b61143e576040517f5f0e0ffc00000000000000000000000000000000000000000000000000000000815260040160405180910390fd5b6001915050919050565b5f33905090565b5f819050919050565b6114618161144f565b82525050565b5f60208201905061147a5f830184611458565b92915050565b5f604051905090565b5f5ffd5b5f5ffd5b5f7fffffffff0000000000000000000000000000000000000000000000000000000082169050919050565b6114c581611491565b81146114cf575f5ffd5b50565b5f813590506114e0816114bc565b92915050565b5f602082840312156114fb576114fa611489565b5b5f611508848285016114d2565b91505092915050565b5f8115159050919050565b61152581611511565b82525050565b5f60208201905061153e5f83018461151c565b92915050565b5f73ffffffffffffffffffffffffffffffffffffffff82169050919050565b5f61156d82611544565b9050919050565b61157d81611563565b8114611587575f5ffd5b50565b5f8135905061159881611574565b92915050565b5f602082840312156115b3576115b2611489565b5b5f6115c08482850161158a565b91505092915050565b5f5ffd5b5f5ffd5b5f601f19601f8301169050919050565b7f4e487b71000000000000000000000000000000000000000000000000000000005f52604160045260245ffd5b611617826115d1565b810181811067ffffffffffffffff82111715611636576116356115e1565b5b80604052505050565b5f611648611480565b9050611654828261160e565b919050565b5f67ffffffffffffffff821115611673576116726115e1565b5b61167c826115d1565b9050602081019050919050565b828183375f83830152505050565b5f6116a96116a484611659565b61163f565b9050828152602081018484840111156116c5576116c46115cd565b5b6116d0848285611689565b509392505050565b5f82601f8301126116ec576116eb6115c9565b5b81356116fc848260208601611697565b91505092915050565b5f6020828403121561171a57611719611489565b5b5f82013567ffffffffffffffff8111156117375761173661148d565b5b611743848285016116d8565b91505092915050565b61175581611563565b82525050565b5f60208201905061176e5f83018461174c565b92915050565b5f5ffd5b5f60e0828403121561178d5761178c611774565b5b81905092915050565b5f60e082840312156117ab576117aa611489565b5b5f6117b884828501611778565b91505092915050565b5f5f5f606084860312156117d8576117d7611489565b5b5f6117e58682870161158a565b93505060206117f68682870161158a565b92505060406118078682870161158a565b9150509250925092565b5f81519050919050565b5f82825260208201905092915050565b8281835e5f83830152505050565b5f61184382611811565b61184d818561181b565b935061185d81856020860161182b565b611866816115d1565b840191505092915050565b5f6020820190508181035f8301526118898184611839565b905092915050565b5f610120820190506118a55f83018c611458565b6118b2602083018b611458565b6118bf604083018a611458565b6118cc6060830189611458565b6118d96080830188611458565b6118e660a0830187611458565b6118f360c0830186611458565b61190060e0830185611458565b61190e61010083018461151c565b9a9950505050505050505050565b5f819050919050565b5f61193f61193a61193584611544565b61191c565b611544565b9050919050565b5f61195082611925565b9050919050565b5f61196182611946565b9050919050565b61197181611957565b82525050565b5f60208201905061198a5f830184611968565b92915050565b5f61199a82611544565b9050919050565b6119aa81611990565b81146119b4575f5ffd5b50565b5f815190506119c5816119a1565b92915050565b5f5f5f606084860312156119e2576119e1611489565b5b5f6119ef868287016119b7565b9350506020611a00868287016119b7565b9250506040611a11868287016119b7565b9150509250925092565b7f4e487b71000000000000000000000000000000000000000000000000000000005f52601160045260245ffd5b5f611a528261144f565b9150611a5d8361144f565b9250828201905080821115611a7557611a74611a1b565b5b92915050565b5f604082019050611a8e5f830185611458565b611a9b6020830184611458565b9392505050565b5f604082019050611ab55f83018561174c565b611ac26020830184611458565b9392505050565b611ad281611511565b8114611adc575f5ffd5b50565b5f81519050611aed81611ac9565b92915050565b5f60208284031215611b0857611b07611489565b5b5f611b1584828501611adf565b91505092915050565b611b278161144f565b8114611b31575f5ffd5b50565b5f81519050611b4281611b1e565b92915050565b5f60208284031215611b5d57611b5c611489565b5b5f611b6a84828501611b34565b91505092915050565b5f611b7d8261144f565b9150611b888361144f565b9250828203905081811115611ba057611b9f611a1b565b5b92915050565b5f606082019050611bb95f83018661174c565b611bc6602083018561174c565b611bd3604083018461174c565b949350505050565b5f611be58261144f565b9150611bf08361144f565b9250828202611bfe8161144f565b91508282048414831517611c1557611c14611a1b565b5b5092915050565b7f4e487b71000000000000000000000000000000000000000000000000000000005f52601260045260245ffd5b5f611c538261144f565b9150611c5e8361144f565b925082611c6e57611c6d611c1c565b5b828204905092915050565b611c8281611491565b82525050565b5f602082019050611c9b5f830184611c79565b9291505056fea264697066735822122074204167d4add4fc5ccf48aacfa264cde2b066fb46869cce580ce94b78745bd364736f6c634300081d0033","linkReferences":{}},"methodIdentifiers":{"allocatedTokens()":"002f9569","claim()":"4e71d92d","claimableAmount(address)":"89885049","deployManager()":"93394029","getDeployManager()":"f7fc87f2","getInitData(address,address,address)":"c475dda9","initialize(bytes)":"439fab91","initialized()":"158ef93e","owner()":"8da5cb5b","renounceOwnership()":"715018a6","startVesting((address,uint256,uint256,uint256,uint256,uint256,uint256))":"a7fa487b","supportsInterface(bytes4)":"01ffc9a7","token()":"fc0c546a","transferOwnership(address)":"f2fde38b","vestedAmount(address)":"384711cc","vestings(address)":"daf49863","withdrawUnallocated(address)":"b3b3e87f"},"id":16}