{"abi":[{"type":"constructor","inputs":[],"stateMutability":"payable"},{"type":"function","name":"allocatedTokens","inputs":[],"outputs":[{"name":"","type":"uint256","internalType":"uint256"}],"stateMutability":"view"},{"type":"function","name":"claim","inputs":[],"outputs":[],"stateMutability":"nonpayable"},{"type":"function","name":"claimableAmount","inputs":[{"name":"_claimer","type":"address","internalType":"address"}],"outputs":[{"name":"","type":"uint256","internalType":"uint256"}],"stateMutability":"view"},{"type":"function","name":"deployManager","inputs":[],"outputs":[{"name":"","type":"address","internalType":"address"}],"stateMutability":"view"},{"type":"function","name":"getDeployManager","inputs":[],"outputs":[{"name":"","type":"address","internalType":"address"}],"stateMutability":"view"},{"type":"function","name":"getInitData","inputs":[{"name":"_deployManager","type":"address","internalType":"address"},{"name":"_token","type":"address","internalType":"address"},{"name":"_owner","type":"address","internalType":"address"}],"outputs":[{"name":"","type":"bytes","internalType":"bytes"}],"stateMutability":"pure"},{"type":"function","name":"initialize","inputs":[{"name":"_initData","type":"bytes","internalType":"bytes"}],"outputs":[{"name":"","type":"bool","internalType":"bool"}],"stateMutability":"nonpayable"},{"type":"function","name":"owner","inputs":[],"outputs":[{"name":"","type":"address","internalType":"address"}],"stateMutability":"view"},{"type":"function","name":"renounceOwnership","inputs":[],"outputs":[],"stateMutability":"nonpayable"},{"type":"function","name":"startVesting","inputs":[{"name":"params","type":"tuple","internalType":"struct IVesting.VestingParams","components":[{"name":"beneficiary","type":"address","internalType":"address"},{"name":"totalAmount","type":"uint256","internalType":"uint256"},{"name":"startTime","type":"uint256","internalType":"uint256"},{"name":"cliff","type":"uint256","internalType":"uint256"},{"name":"duration","type":"uint256","internalType":"uint256"},{"name":"claimCooldown","type":"uint256","internalType":"uint256"},{"name":"minClaimAmount","type":"uint256","internalType":"uint256"}]}],"outputs":[],"stateMutability":"nonpayable"},{"type":"function","name":"supportsInterface","inputs":[{"name":"interfaceId","type":"bytes4","internalType":"bytes4"}],"outputs":[{"name":"","type":"bool","internalType":"bool"}],"stateMutability":"view"},{"type":"function","name":"token","inputs":[],"outputs":[{"name":"","type":"address","internalType":"contract IERC20"}],"stateMutability":"view"},{"type":"function","name":"transferOwnership","inputs":[{"name":"newOwner","type":"address","internalType":"address"}],"outputs":[],"stateMutability":"nonpayable"},{"type":"function","name":"vestings","inputs":[{"name":"","type":"address","internalType":"address"}],"outputs":[{"name":"totalAmount","type":"uint256","internalType":"uint256"},{"name":"startTime","type":"uint256","internalType":"uint256"},{"name":"cliff","type":"uint256","internalType":"uint256"},{"name":"duration","type":"uint256","internalType":"uint256"},{"name":"claimed","type":"uint256","internalType":"uint256"},{"name":"lastClaimTime","type":"uint256","internalType":"uint256"},{"name":"claimCooldown","type":"uint256","internalType":"uint256"},{"name":"minClaimAmount","type":"uint256","internalType":"uint256"}],"stateMutability":"view"},{"type":"function","name":"withdrawUnallocated","inputs":[{"name":"_to","type":"address","internalType":"address"}],"outputs":[],"stateMutability":"nonpayable"},{"type":"event","name":"Claim","inputs":[{"name":"beneficiary","type":"address","indexed":false,"internalType":"address"},{"name":"amount","type":"uint256","indexed":false,"internalType":"uint256"},{"name":"timestamp","type":"uint256","indexed":false,"internalType":"uint256"}],"anonymous":false},{"type":"event","name":"OwnershipTransferred","inputs":[{"name":"previousOwner","type":"address","indexed":true,"internalType":"address"},{"name":"newOwner","type":"address","indexed":true,"internalType":"address"}],"anonymous":false},{"type":"event","name":"TokensWithdrawn","inputs":[{"name":"to","type":"address","indexed":false,"internalType":"address"},{"name":"amount","type":"uint256","indexed":false,"internalType":"uint256"}],"anonymous":false},{"type":"event","name":"VestingCreated","inputs":[{"name":"beneficiary","type":"address","indexed":false,"internalType":"address"},{"name":"amount","type":"uint256","indexed":false,"internalType":"uint256"},{"name":"creationTime","type":"uint256","indexed":false,"internalType":"uint256"}],"anonymous":false},{"type":"error","name":"AlreadyInitialized","inputs":[]},{"type":"error","name":"AmountCantBeZero","inputs":[]},{"type":"error","name":"BelowMinimalClaimAmount","inputs":[]},{"type":"error","name":"CantClaimMoreThanTotalAmount","inputs":[]},{"type":"error","name":"CliffCantBeLongerThanDuration","inputs":[]},{"type":"error","name":"CliffNotReached","inputs":[]},{"type":"error","name":"CooldownCantBeLongerThanDuration","inputs":[]},{"type":"error","name":"CooldownNotPassed","inputs":[]},{"type":"error","name":"DeployManagerCannotBeZero","inputs":[]},{"type":"error","name":"DurationCantBeZero","inputs":[]},{"type":"error","name":"FailedToValidateDeployManager","inputs":[]},{"type":"error","name":"InfsufficientBalance","inputs":[]},{"type":"error","name":"InvalidBeneficiary","inputs":[]},{"type":"error","name":"NotDeployManager","inputs":[]},{"type":"error","name":"NothingToClaim","inputs":[]},{"type":"error","name":"NothingToWithdraw","inputs":[]},{"type":"error","name":"OwnableInvalidOwner","inputs":[{"name":"owner","type":"address","internalType":"address"}]},{"type":"error","name":"OwnableUnauthorizedAccount","inputs":[{"name":"account","type":"address","internalType":"address"}]},{"type":"error","name":"StartTimeShouldBeFuture","inputs":[]},{"type":"error","name":"TransferFailed","inputs":[]},{"type":"error","name":"VestingAlreadyExist","inputs":[]},{"type":"error","name":"VestingNotFound","inputs":[]},{"type":"error","name":"WithdrawTransferFailed","inputs":[]}],"bytecode":{"object":"0x6080604052335f73ffffffffffffffffffffffffffffffffffffffff168173ffffffffffffffffffffffffffffffffffffffff1603610075575f6040517f1e4fbdf700000000000000000000000000000000000000000000000000000000815260040161006c919061018c565b60405180910390fd5b6100848161008a60201b60201c565b506101a5565b5f60015f9054906101000a900473ffffffffffffffffffffffffffffffffffffffff1690508160015f6101000a81548173ffffffffffffffffffffffffffffffffffffffff021916908373ffffffffffffffffffffffffffffffffffffffff1602179055508173ffffffffffffffffffffffffffffffffffffffff168173ffffffffffffffffffffffffffffffffffffffff167f8be0079c531659141344cd1fd0a4f28419497f9722a3daafe3b4186f6b6457e060405160405180910390a35050565b5f73ffffffffffffffffffffffffffffffffffffffff82169050919050565b5f6101768261014d565b9050919050565b6101868161016c565b82525050565b5f60208201905061019f5f83018461017d565b92915050565b611d8a806101b25f395ff3fe608060405234801561000f575f5ffd5b50600436106100f2575f3560e01c80639339402911610095578063daf4986311610064578063daf498631461025c578063f2fde38b14610293578063f7fc87f2146102af578063fc0c546a146102cd576100f2565b806393394029146101d6578063a7fa487b146101f4578063b3b3e87f14610210578063c475dda91461022c576100f2565b80634e71d92d116100d15780634e71d92d14610174578063715018a61461017e57806389885049146101885780638da5cb5b146101b8576100f2565b80622f9569146100f657806301ffc9a714610114578063439fab9114610144575b5f5ffd5b6100fe6102eb565b60405161010b919061151b565b60405180910390f35b61012e6004803603810190610129919061159a565b6102f1565b60405161013b91906115df565b60405180910390f35b61015e60048036038101906101599190611734565b61036a565b60405161016b91906115df565b60405180910390f35b61017c610448565b005b610186610778565b005b6101a2600480360381019061019d91906117d5565b61078b565b6040516101af919061151b565b60405180910390f35b6101c0610811565b6040516101cd919061180f565b60405180910390f35b6101de610839565b6040516101eb919061180f565b60405180910390f35b61020e6004803603810190610209919061184a565b61085d565b005b61022a600480360381019061022591906117d5565b610d87565b005b61024660048036038101906102419190611875565b610f80565b6040516102539190611925565b60405180910390f35b610276600480360381019061027191906117d5565b610faf565b60405161028a989796959493929190611945565b60405180910390f35b6102ad60048036038101906102a891906117d5565b610ff3565b005b6102b7611077565b6040516102c4919061180f565b60405180910390f35b6102d561109e565b6040516102e29190611a1c565b60405180910390f35b60035481565b5f7fb4632c63000000000000000000000000000000000000000000000000000000007bffffffffffffffffffffffffffffffffffffffffffffffffffffffff1916827bffffffffffffffffffffffffffffffffffffffffffffffffffffffff191614806103635750610362826110c3565b5b9050919050565b5f600260149054906101000a900460ff16156103b2576040517f0dc149f000000000000000000000000000000000000000000000000000000000815260040160405180910390fd5b5f5f5f848060200190518101906103c99190611a70565b9250925092506103d88361112c565b8160025f6101000a81548173ffffffffffffffffffffffffffffffffffffffff021916908373ffffffffffffffffffffffffffffffffffffffff16021790555061042181610ff3565b6001600260146101000a81548160ff02191690831515021790555060019350505050919050565b5f60045f3373ffffffffffffffffffffffffffffffffffffffff1673ffffffffffffffffffffffffffffffffffffffff1681526020019081526020015f2090505f815f0154116104c4576040517fe146a52b00000000000000000000000000000000000000000000000000000000815260040160405180910390fd5b806002015481600101546104d89190611aed565b4211610510576040517f392a328700000000000000000000000000000000000000000000000000000000815260040160405180910390fd5b806006015481600501546105249190611aed565b42101561055d576040517f9e49499400000000000000000000000000000000000000000000000000000000815260040160405180910390fd5b5f6105673361078b565b90505f81116105a2576040517f969bf72800000000000000000000000000000000000000000000000000000000815260040160405180910390fd5b81600701548110156105e0576040517f5dfcc46200000000000000000000000000000000000000000000000000000000815260040160405180910390fd5b815f01548260040154826105f49190611aed565b111561062c576040517f96a6633000000000000000000000000000000000000000000000000000000000815260040160405180910390fd5b80826004015f82825461063f9190611aed565b925050819055504282600501819055508060035f8282546106609190611b20565b9250508190555060025f9054906101000a900473ffffffffffffffffffffffffffffffffffffffff1673ffffffffffffffffffffffffffffffffffffffff1663a9059cbb33836040518363ffffffff1660e01b81526004016106c3929190611b53565b6020604051808303815f875af11580156106df573d5f5f3e3d5ffd5b505050506040513d601f19601f820116820180604052508101906107039190611ba4565b610739576040517f90b8ec1800000000000000000000000000000000000000000000000000000000815260040160405180910390fd5b7f34fcbac0073d7c3d388e51312faf357774904998eeb8fca628b9e6f65ee1cbf733824260405161076c93929190611bcf565b60405180910390a15050565b6107806111ad565b6107895f611234565b565b5f5f60045f8473ffffffffffffffffffffffffffffffffffffffff1673ffffffffffffffffffffffffffffffffffffffff1681526020019081526020015f209050806002015481600101546107e09190611aed565b4210156107f0575f91505061080c565b80600401546107fe846112f7565b6108089190611b20565b9150505b919050565b5f60015f9054906101000a900473ffffffffffffffffffffffffffffffffffffffff16905090565b5f5f9054906101000a900473ffffffffffffffffffffffffffffffffffffffff1681565b6108656111ad565b806020013560035460025f9054906101000a900473ffffffffffffffffffffffffffffffffffffffff1673ffffffffffffffffffffffffffffffffffffffff166370a08231306040518263ffffffff1660e01b81526004016108c7919061180f565b602060405180830381865afa1580156108e2573d5f5f3e3d5ffd5b505050506040513d601f19601f820116820180604052508101906109069190611c2e565b6109109190611b20565b1015610948576040517fac16ee3e00000000000000000000000000000000000000000000000000000000815260040160405180910390fd5b5f816020013511610985576040517f46f1397d00000000000000000000000000000000000000000000000000000000815260040160405180910390fd5b5f60045f835f01602081019061099b91906117d5565b73ffffffffffffffffffffffffffffffffffffffff1673ffffffffffffffffffffffffffffffffffffffff1681526020019081526020015f205f01541480610a83575060045f825f0160208101906109f391906117d5565b73ffffffffffffffffffffffffffffffffffffffff1673ffffffffffffffffffffffffffffffffffffffff1681526020019081526020015f206004015460045f835f016020810190610a4591906117d5565b73ffffffffffffffffffffffffffffffffffffffff1673ffffffffffffffffffffffffffffffffffffffff1681526020019081526020015f205f0154145b610ab9576040517fda2573cf00000000000000000000000000000000000000000000000000000000815260040160405180910390fd5b42816040013511610af6576040517f41d33ec100000000000000000000000000000000000000000000000000000000815260040160405180910390fd5b5f816080013511610b33576040517faf0a1ac000000000000000000000000000000000000000000000000000000000815260040160405180910390fd5b8060800135816060013510610b74576040517f12e390eb00000000000000000000000000000000000000000000000000000000815260040160405180910390fd5b80608001358160a0013510610bb5576040517f28a4e6f600000000000000000000000000000000000000000000000000000000815260040160405180910390fd5b5f73ffffffffffffffffffffffffffffffffffffffff16815f016020810190610bde91906117d5565b73ffffffffffffffffffffffffffffffffffffffff1603610c2b576040517f5566df5c00000000000000000000000000000000000000000000000000000000815260040160405180910390fd5b604051806101000160405280826020013581526020018260400135815260200182606001358152602001826080013581526020015f81526020015f81526020018260a0013581526020018260c0013581525060045f835f016020810190610c9291906117d5565b73ffffffffffffffffffffffffffffffffffffffff1673ffffffffffffffffffffffffffffffffffffffff1681526020019081526020015f205f820151815f01556020820151816001015560408201518160020155606082015181600301556080820151816004015560a0820151816005015560c0820151816006015560e082015181600701559050508060200135600354610d2e9190611aed565b6003819055507f9ade76f4385de306666dfb21a52b27d52db0fde8ad0f515fa261f532cac60d21815f016020810190610d6791906117d5565b826020013542604051610d7c93929190611bcf565b60405180910390a150565b610d8f6111ad565b5f60035460025f9054906101000a900473ffffffffffffffffffffffffffffffffffffffff1673ffffffffffffffffffffffffffffffffffffffff166370a08231306040518263ffffffff1660e01b8152600401610ded919061180f565b602060405180830381865afa158015610e08573d5f5f3e3d5ffd5b505050506040513d601f19601f82011682018060405250810190610e2c9190611c2e565b610e369190611b20565b90505f8111610e71576040517fd0d04f6000000000000000000000000000000000000000000000000000000000815260040160405180910390fd5b60025f9054906101000a900473ffffffffffffffffffffffffffffffffffffffff1673ffffffffffffffffffffffffffffffffffffffff1663a9059cbb83836040518363ffffffff1660e01b8152600401610ecd929190611b53565b6020604051808303815f875af1158015610ee9573d5f5f3e3d5ffd5b505050506040513d601f19601f82011682018060405250810190610f0d9190611ba4565b610f43576040517f69a4751b00000000000000000000000000000000000000000000000000000000815260040160405180910390fd5b7f6352c5382c4a4578e712449ca65e83cdb392d045dfcf1cad9615189db2da244b8282604051610f74929190611b53565b60405180910390a15050565b6060838383604051602001610f9793929190611c59565b60405160208183030381529060405290509392505050565b6004602052805f5260405f205f91509050805f0154908060010154908060020154908060030154908060040154908060050154908060060154908060070154905088565b610ffb6111ad565b5f73ffffffffffffffffffffffffffffffffffffffff168173ffffffffffffffffffffffffffffffffffffffff160361106b575f6040517f1e4fbdf7000000000000000000000000000000000000000000000000000000008152600401611062919061180f565b60405180910390fd5b61107481611234565b50565b5f5f5f9054906101000a900473ffffffffffffffffffffffffffffffffffffffff16905090565b60025f9054906101000a900473ffffffffffffffffffffffffffffffffffffffff1681565b5f7f01ffc9a7000000000000000000000000000000000000000000000000000000007bffffffffffffffffffffffffffffffffffffffffffffffffffffffff1916827bffffffffffffffffffffffffffffffffffffffffffffffffffffffff1916149050919050565b611135816113ba565b61116b576040517f1b20531d00000000000000000000000000000000000000000000000000000000815260040160405180910390fd5b805f5f6101000a81548173ffffffffffffffffffffffffffffffffffffffff021916908373ffffffffffffffffffffffffffffffffffffffff16021790555050565b6111b56114fc565b73ffffffffffffffffffffffffffffffffffffffff166111d3610811565b73ffffffffffffffffffffffffffffffffffffffff1614611232576111f66114fc565b6040517f118cdaa7000000000000000000000000000000000000000000000000000000008152600401611229919061180f565b60405180910390fd5b565b5f60015f9054906101000a900473ffffffffffffffffffffffffffffffffffffffff1690508160015f6101000a81548173ffffffffffffffffffffffffffffffffffffffff021916908373ffffffffffffffffffffffffffffffffffffffff1602179055508173ffffffffffffffffffffffffffffffffffffffff168173ffffffffffffffffffffffffffffffffffffffff167f8be0079c531659141344cd1fd0a4f28419497f9722a3daafe3b4186f6b6457e060405160405180910390a35050565b5f5f60045f8473ffffffffffffffffffffffffffffffffffffffff1673ffffffffffffffffffffffffffffffffffffffff1681526020019081526020015f2090508060020154816001015461134c9190611aed565b42101561135c575f9150506113b5565b5f816002015482600101546113719190611aed565b4261137c9190611b20565b9050816003015481111561139257816003015490505b816003015481835f01546113a69190611c8e565b6113b09190611cfc565b925050505b919050565b5f5f73ffffffffffffffffffffffffffffffffffffffff168273ffffffffffffffffffffffffffffffffffffffff1603611420576040517f7cc06ca200000000000000000000000000000000000000000000000000000000815260040160405180910390fd5b5f7f267fcfaf0000000000000000000000000000000000000000000000000000000090508273ffffffffffffffffffffffffffffffffffffffff166301ffc9a7826040518263ffffffff1660e01b815260040161147d9190611d3b565b602060405180830381865afa158015611498573d5f5f3e3d5ffd5b505050506040513d601f19601f820116820180604052508101906114bc9190611ba4565b6114f2576040517f5f0e0ffc00000000000000000000000000000000000000000000000000000000815260040160405180910390fd5b6001915050919050565b5f33905090565b5f819050919050565b61151581611503565b82525050565b5f60208201905061152e5f83018461150c565b92915050565b5f604051905090565b5f5ffd5b5f5ffd5b5f7fffffffff0000000000000000000000000000000000000000000000000000000082169050919050565b61157981611545565b8114611583575f5ffd5b50565b5f8135905061159481611570565b92915050565b5f602082840312156115af576115ae61153d565b5b5f6115bc84828501611586565b91505092915050565b5f8115159050919050565b6115d9816115c5565b82525050565b5f6020820190506115f25f8301846115d0565b92915050565b5f5ffd5b5f5ffd5b5f601f19601f8301169050919050565b7f4e487b71000000000000000000000000000000000000000000000000000000005f52604160045260245ffd5b61164682611600565b810181811067ffffffffffffffff8211171561166557611664611610565b5b80604052505050565b5f611677611534565b9050611683828261163d565b919050565b5f67ffffffffffffffff8211156116a2576116a1611610565b5b6116ab82611600565b9050602081019050919050565b828183375f83830152505050565b5f6116d86116d384611688565b61166e565b9050828152602081018484840111156116f4576116f36115fc565b5b6116ff8482856116b8565b509392505050565b5f82601f83011261171b5761171a6115f8565b5b813561172b8482602086016116c6565b91505092915050565b5f602082840312156117495761174861153d565b5b5f82013567ffffffffffffffff81111561176657611765611541565b5b61177284828501611707565b91505092915050565b5f73ffffffffffffffffffffffffffffffffffffffff82169050919050565b5f6117a48261177b565b9050919050565b6117b48161179a565b81146117be575f5ffd5b50565b5f813590506117cf816117ab565b92915050565b5f602082840312156117ea576117e961153d565b5b5f6117f7848285016117c1565b91505092915050565b6118098161179a565b82525050565b5f6020820190506118225f830184611800565b92915050565b5f5ffd5b5f60e0828403121561184157611840611828565b5b81905092915050565b5f60e0828403121561185f5761185e61153d565b5b5f61186c8482850161182c565b91505092915050565b5f5f5f6060848603121561188c5761188b61153d565b5b5f611899868287016117c1565b93505060206118aa868287016117c1565b92505060406118bb868287016117c1565b9150509250925092565b5f81519050919050565b5f82825260208201905092915050565b8281835e5f83830152505050565b5f6118f7826118c5565b61190181856118cf565b93506119118185602086016118df565b61191a81611600565b840191505092915050565b5f6020820190508181035f83015261193d81846118ed565b905092915050565b5f610100820190506119595f83018b61150c565b611966602083018a61150c565b611973604083018961150c565b611980606083018861150c565b61198d608083018761150c565b61199a60a083018661150c565b6119a760c083018561150c565b6119b460e083018461150c565b9998505050505050505050565b5f819050919050565b5f6119e46119df6119da8461177b565b6119c1565b61177b565b9050919050565b5f6119f5826119ca565b9050919050565b5f611a06826119eb565b9050919050565b611a16816119fc565b82525050565b5f602082019050611a2f5f830184611a0d565b92915050565b5f611a3f8261177b565b9050919050565b611a4f81611a35565b8114611a59575f5ffd5b50565b5f81519050611a6a81611a46565b92915050565b5f5f5f60608486031215611a8757611a8661153d565b5b5f611a9486828701611a5c565b9350506020611aa586828701611a5c565b9250506040611ab686828701611a5c565b9150509250925092565b7f4e487b71000000000000000000000000000000000000000000000000000000005f52601160045260245ffd5b5f611af782611503565b9150611b0283611503565b9250828201905080821115611b1a57611b19611ac0565b5b92915050565b5f611b2a82611503565b9150611b3583611503565b9250828203905081811115611b4d57611b4c611ac0565b5b92915050565b5f604082019050611b665f830185611800565b611b73602083018461150c565b9392505050565b611b83816115c5565b8114611b8d575f5ffd5b50565b5f81519050611b9e81611b7a565b92915050565b5f60208284031215611bb957611bb861153d565b5b5f611bc684828501611b90565b91505092915050565b5f606082019050611be25f830186611800565b611bef602083018561150c565b611bfc604083018461150c565b949350505050565b611c0d81611503565b8114611c17575f5ffd5b50565b5f81519050611c2881611c04565b92915050565b5f60208284031215611c4357611c4261153d565b5b5f611c5084828501611c1a565b91505092915050565b5f606082019050611c6c5f830186611800565b611c796020830185611800565b611c866040830184611800565b949350505050565b5f611c9882611503565b9150611ca383611503565b9250828202611cb181611503565b91508282048414831517611cc857611cc7611ac0565b5b5092915050565b7f4e487b71000000000000000000000000000000000000000000000000000000005f52601260045260245ffd5b5f611d0682611503565b9150611d1183611503565b925082611d2157611d20611ccf565b5b828204905092915050565b611d3581611545565b82525050565b5f602082019050611d4e5f830184611d2c565b9291505056fea26469706673582212208ad39702ac23aa5cb6ba1bf8af3ed54b6ba81a6350ed27f84b70fb082b2966f664736f6c634300081d0033","linkReferences":{}},"methodIdentifiers":{"allocatedTokens()":"002f9569","claim()":"4e71d92d","claimableAmount(address)":"89885049","deployManager()":"93394029","getDeployManager()":"f7fc87f2","getInitData(address,address,address)":"c475dda9","initialize(bytes)":"439fab91","owner()":"8da5cb5b","renounceOwnership()":"715018a6","startVesting((address,uint256,uint256,uint256,uint256,uint256,uint256))":"a7fa487b","supportsInterface(bytes4)":"01ffc9a7","token()":"fc0c546a","transferOwnership(address)":"f2fde38b","vestings(address)":"daf49863","withdrawUnallocated(address)":"b3b3e87f"},"id":7}