{"abi":[{"type":"constructor","inputs":[],"stateMutability":"payable"},{"type":"function","name":"MAX_AIRDROP_BATCH_SIZE","inputs":[],"outputs":[{"name":"","type":"uint256","internalType":"uint256"}],"stateMutability":"view"},{"type":"function","name":"airdrop","inputs":[{"name":"receivers","type":"address[]","internalType":"address[]"},{"name":"amounts","type":"uint256[]","internalType":"uint256[]"},{"name":"tokenIds","type":"uint256[]","internalType":"uint256[]"}],"outputs":[],"stateMutability":"nonpayable"},{"type":"function","name":"deployManager","inputs":[],"outputs":[{"name":"","type":"address","internalType":"address"}],"stateMutability":"view"},{"type":"function","name":"getDeployManager","inputs":[],"outputs":[{"name":"","type":"address","internalType":"address"}],"stateMutability":"view"},{"type":"function","name":"getInitData","inputs":[{"name":"_deployManager","type":"address","internalType":"address"},{"name":"_token","type":"address","internalType":"address"},{"name":"_treasury","type":"address","internalType":"address"},{"name":"_owner","type":"address","internalType":"address"}],"outputs":[{"name":"","type":"bytes","internalType":"bytes"}],"stateMutability":"pure"},{"type":"function","name":"initialize","inputs":[{"name":"_initData","type":"bytes","internalType":"bytes"}],"outputs":[{"name":"","type":"bool","internalType":"bool"}],"stateMutability":"nonpayable"},{"type":"function","name":"initialized","inputs":[],"outputs":[{"name":"","type":"bool","internalType":"bool"}],"stateMutability":"view"},{"type":"function","name":"owner","inputs":[],"outputs":[{"name":"","type":"address","internalType":"address"}],"stateMutability":"view"},{"type":"function","name":"renounceOwnership","inputs":[],"outputs":[],"stateMutability":"nonpayable"},{"type":"function","name":"supportsInterface","inputs":[{"name":"interfaceId","type":"bytes4","internalType":"bytes4"}],"outputs":[{"name":"","type":"bool","internalType":"bool"}],"stateMutability":"view"},{"type":"function","name":"token","inputs":[],"outputs":[{"name":"","type":"address","internalType":"contract IERC1155"}],"stateMutability":"view"},{"type":"function","name":"transferOwnership","inputs":[{"name":"newOwner","type":"address","internalType":"address"}],"outputs":[],"stateMutability":"nonpayable"},{"type":"function","name":"treasury","inputs":[],"outputs":[{"name":"","type":"address","internalType":"address"}],"stateMutability":"view"},{"type":"event","name":"OwnershipTransferred","inputs":[{"name":"previousOwner","type":"address","indexed":true,"internalType":"address"},{"name":"newOwner","type":"address","indexed":true,"internalType":"address"}],"anonymous":false},{"type":"error","name":"AlreadyInitialized","inputs":[]},{"type":"error","name":"AmountsLengthMismatch","inputs":[]},{"type":"error","name":"BatchSizeExceeded","inputs":[]},{"type":"error","name":"DeployManagerCannotBeZero","inputs":[]},{"type":"error","name":"FailedToDeployManager","inputs":[]},{"type":"error","name":"NeedToApproveTokens","inputs":[]},{"type":"error","name":"NotDeployManager","inputs":[]},{"type":"error","name":"OwnableInvalidOwner","inputs":[{"name":"owner","type":"address","internalType":"address"}]},{"type":"error","name":"OwnableUnauthorizedAccount","inputs":[{"name":"account","type":"address","internalType":"address"}]},{"type":"error","name":"ReciversLengthMismatch","inputs":[]}],"bytecode":{"object":"0x6080604052335f73ffffffffffffffffffffffffffffffffffffffff168173ffffffffffffffffffffffffffffffffffffffff1603610075575f6040517f1e4fbdf700000000000000000000000000000000000000000000000000000000815260040161006c919061018c565b60405180910390fd5b6100848161008a60201b60201c565b506101a5565b5f60015f9054906101000a900473ffffffffffffffffffffffffffffffffffffffff1690508160015f6101000a81548173ffffffffffffffffffffffffffffffffffffffff021916908373ffffffffffffffffffffffffffffffffffffffff1602179055508173ffffffffffffffffffffffffffffffffffffffff168173ffffffffffffffffffffffffffffffffffffffff167f8be0079c531659141344cd1fd0a4f28419497f9722a3daafe3b4186f6b6457e060405160405180910390a35050565b5f73ffffffffffffffffffffffffffffffffffffffff82169050919050565b5f6101768261014d565b9050919050565b6101868161016c565b82525050565b5f60208201905061019f5f83018461017d565b92915050565b61144f806101b25f395ff3fe608060405234801561000f575f5ffd5b50600436106100cd575f3560e01c8063715018a61161008a578063b277332d11610064578063b277332d146101ff578063f2fde38b1461021d578063f7fc87f214610239578063fc0c546a14610257576100cd565b8063715018a6146101b95780638da5cb5b146101c357806393394029146101e1576100cd565b806301ffc9a7146100d15780631431f87a14610101578063158ef93e146101315780631bf2907b1461014f578063439fab911461016b57806361d027b31461019b575b5f5ffd5b6100eb60048036038101906100e69190610c74565b610275565b6040516100f89190610cb9565b60405180910390f35b61011b60048036038101906101169190610d2c565b6102ee565b6040516101289190610e00565b60405180910390f35b610139610320565b6040516101469190610cb9565b60405180910390f35b61016960048036038101906101649190610ed6565b610331565b005b610185600480360381019061018091906110ae565b610617565b6040516101929190610cb9565b60405180910390f35b6101a3610735565b6040516101b09190611104565b60405180910390f35b6101c161075a565b005b6101cb61076d565b6040516101d89190611104565b60405180910390f35b6101e9610795565b6040516101f69190611104565b60405180910390f35b6102076107ba565b6040516102149190611135565b60405180910390f35b6102376004803603810190610232919061114e565b6107bf565b005b610241610843565b60405161024e9190611104565b60405180910390f35b61025f61086b565b60405161026c91906111d4565b60405180910390f35b5f7fb4632c63000000000000000000000000000000000000000000000000000000007bffffffffffffffffffffffffffffffffffffffffffffffffffffffff1916827bffffffffffffffffffffffffffffffffffffffffffffffffffffffff191614806102e757506102e682610890565b5b9050919050565b60608484848460405160200161030794939291906111ed565b6040516020818303038152906040529050949350505050565b5f5f9054906101000a900460ff1681565b6103396108f9565b600a828290501115610377576040517fabcf3d2300000000000000000000000000000000000000000000000000000000815260040160405180910390fd5b8181905086869050146103b6576040517f1e0dfdf600000000000000000000000000000000000000000000000000000000815260040160405180910390fd5b8181905084849050146103f5576040517fa35f7e5700000000000000000000000000000000000000000000000000000000815260040160405180910390fd5b60025f9054906101000a900473ffffffffffffffffffffffffffffffffffffffff1673ffffffffffffffffffffffffffffffffffffffff1663e985e9c560035f9054906101000a900473ffffffffffffffffffffffffffffffffffffffff16306040518363ffffffff1660e01b8152600401610472929190611230565b602060405180830381865afa15801561048d573d5f5f3e3d5ffd5b505050506040513d601f19601f820116820180604052508101906104b19190611281565b6104e7576040517f9bacfd9a00000000000000000000000000000000000000000000000000000000815260040160405180910390fd5b5f60035f9054906101000a900473ffffffffffffffffffffffffffffffffffffffff1690505f5f90505b8585905081101561060d5760025f9054906101000a900473ffffffffffffffffffffffffffffffffffffffff1673ffffffffffffffffffffffffffffffffffffffff1663f242432a838a8a8581811061056d5761056c6112ac565b5b9050602002016020810190610582919061114e565b878786818110610595576105946112ac565b5b905060200201358a8a878181106105af576105ae6112ac565b5b905060200201356040518563ffffffff1660e01b81526004016105d594939291906112fc565b5f604051808303815f87803b1580156105ec575f5ffd5b505af11580156105fe573d5f5f3e3d5ffd5b50505050806001019050610511565b5050505050505050565b5f5f5f9054906101000a900460ff161561065d576040517f0dc149f000000000000000000000000000000000000000000000000000000000815260040160405180910390fd5b5f5f5f5f85806020019051810190610675919061138d565b935093509350935061068684610980565b8260025f6101000a81548173ffffffffffffffffffffffffffffffffffffffff021916908373ffffffffffffffffffffffffffffffffffffffff1602179055508160035f6101000a81548173ffffffffffffffffffffffffffffffffffffffff021916908373ffffffffffffffffffffffffffffffffffffffff16021790555061070f816107bf565b60015f5f6101000a81548160ff0219169083151502179055506001945050505050919050565b60035f9054906101000a900473ffffffffffffffffffffffffffffffffffffffff1681565b6107626108f9565b61076b5f610a02565b565b5f60015f9054906101000a900473ffffffffffffffffffffffffffffffffffffffff16905090565b5f60019054906101000a900473ffffffffffffffffffffffffffffffffffffffff1681565b600a81565b6107c76108f9565b5f73ffffffffffffffffffffffffffffffffffffffff168173ffffffffffffffffffffffffffffffffffffffff1603610837575f6040517f1e4fbdf700000000000000000000000000000000000000000000000000000000815260040161082e9190611104565b60405180910390fd5b61084081610a02565b50565b5f5f60019054906101000a900473ffffffffffffffffffffffffffffffffffffffff16905090565b60025f9054906101000a900473ffffffffffffffffffffffffffffffffffffffff1681565b5f7f01ffc9a7000000000000000000000000000000000000000000000000000000007bffffffffffffffffffffffffffffffffffffffffffffffffffffffff1916827bffffffffffffffffffffffffffffffffffffffffffffffffffffffff1916149050919050565b610901610ac5565b73ffffffffffffffffffffffffffffffffffffffff1661091f61076d565b73ffffffffffffffffffffffffffffffffffffffff161461097e57610942610ac5565b6040517f118cdaa70000000000000000000000000000000000000000000000000000000081526004016109759190611104565b60405180910390fd5b565b61098981610acc565b6109bf576040517f820fe9f800000000000000000000000000000000000000000000000000000000815260040160405180910390fd5b805f60016101000a81548173ffffffffffffffffffffffffffffffffffffffff021916908373ffffffffffffffffffffffffffffffffffffffff16021790555050565b5f60015f9054906101000a900473ffffffffffffffffffffffffffffffffffffffff1690508160015f6101000a81548173ffffffffffffffffffffffffffffffffffffffff021916908373ffffffffffffffffffffffffffffffffffffffff1602179055508173ffffffffffffffffffffffffffffffffffffffff168173ffffffffffffffffffffffffffffffffffffffff167f8be0079c531659141344cd1fd0a4f28419497f9722a3daafe3b4186f6b6457e060405160405180910390a35050565b5f33905090565b5f5f73ffffffffffffffffffffffffffffffffffffffff168273ffffffffffffffffffffffffffffffffffffffff1603610b32576040517f7cc06ca200000000000000000000000000000000000000000000000000000000815260040160405180910390fd5b5f7f267fcfaf0000000000000000000000000000000000000000000000000000000090508273ffffffffffffffffffffffffffffffffffffffff166301ffc9a7826040518263ffffffff1660e01b8152600401610b8f9190611400565b602060405180830381865afa158015610baa573d5f5f3e3d5ffd5b505050506040513d601f19601f82011682018060405250810190610bce9190611281565b610c04576040517f5f0e0ffc00000000000000000000000000000000000000000000000000000000815260040160405180910390fd5b6001915050919050565b5f604051905090565b5f5ffd5b5f5ffd5b5f7fffffffff0000000000000000000000000000000000000000000000000000000082169050919050565b610c5381610c1f565b8114610c5d575f5ffd5b50565b5f81359050610c6e81610c4a565b92915050565b5f60208284031215610c8957610c88610c17565b5b5f610c9684828501610c60565b91505092915050565b5f8115159050919050565b610cb381610c9f565b82525050565b5f602082019050610ccc5f830184610caa565b92915050565b5f73ffffffffffffffffffffffffffffffffffffffff82169050919050565b5f610cfb82610cd2565b9050919050565b610d0b81610cf1565b8114610d15575f5ffd5b50565b5f81359050610d2681610d02565b92915050565b5f5f5f5f60808587031215610d4457610d43610c17565b5b5f610d5187828801610d18565b9450506020610d6287828801610d18565b9350506040610d7387828801610d18565b9250506060610d8487828801610d18565b91505092959194509250565b5f81519050919050565b5f82825260208201905092915050565b8281835e5f83830152505050565b5f601f19601f8301169050919050565b5f610dd282610d90565b610ddc8185610d9a565b9350610dec818560208601610daa565b610df581610db8565b840191505092915050565b5f6020820190508181035f830152610e188184610dc8565b905092915050565b5f5ffd5b5f5ffd5b5f5ffd5b5f5f83601f840112610e4157610e40610e20565b5b8235905067ffffffffffffffff811115610e5e57610e5d610e24565b5b602083019150836020820283011115610e7a57610e79610e28565b5b9250929050565b5f5f83601f840112610e9657610e95610e20565b5b8235905067ffffffffffffffff811115610eb357610eb2610e24565b5b602083019150836020820283011115610ecf57610ece610e28565b5b9250929050565b5f5f5f5f5f5f60608789031215610ef057610eef610c17565b5b5f87013567ffffffffffffffff811115610f0d57610f0c610c1b565b5b610f1989828a01610e2c565b9650965050602087013567ffffffffffffffff811115610f3c57610f3b610c1b565b5b610f4889828a01610e81565b9450945050604087013567ffffffffffffffff811115610f6b57610f6a610c1b565b5b610f7789828a01610e81565b92509250509295509295509295565b5f5ffd5b7f4e487b71000000000000000000000000000000000000000000000000000000005f52604160045260245ffd5b610fc082610db8565b810181811067ffffffffffffffff82111715610fdf57610fde610f8a565b5b80604052505050565b5f610ff1610c0e565b9050610ffd8282610fb7565b919050565b5f67ffffffffffffffff82111561101c5761101b610f8a565b5b61102582610db8565b9050602081019050919050565b828183375f83830152505050565b5f61105261104d84611002565b610fe8565b90508281526020810184848401111561106e5761106d610f86565b5b611079848285611032565b509392505050565b5f82601f83011261109557611094610e20565b5b81356110a5848260208601611040565b91505092915050565b5f602082840312156110c3576110c2610c17565b5b5f82013567ffffffffffffffff8111156110e0576110df610c1b565b5b6110ec84828501611081565b91505092915050565b6110fe81610cf1565b82525050565b5f6020820190506111175f8301846110f5565b92915050565b5f819050919050565b61112f8161111d565b82525050565b5f6020820190506111485f830184611126565b92915050565b5f6020828403121561116357611162610c17565b5b5f61117084828501610d18565b91505092915050565b5f819050919050565b5f61119c61119761119284610cd2565b611179565b610cd2565b9050919050565b5f6111ad82611182565b9050919050565b5f6111be826111a3565b9050919050565b6111ce816111b4565b82525050565b5f6020820190506111e75f8301846111c5565b92915050565b5f6080820190506112005f8301876110f5565b61120d60208301866110f5565b61121a60408301856110f5565b61122760608301846110f5565b95945050505050565b5f6040820190506112435f8301856110f5565b61125060208301846110f5565b9392505050565b61126081610c9f565b811461126a575f5ffd5b50565b5f8151905061127b81611257565b92915050565b5f6020828403121561129657611295610c17565b5b5f6112a38482850161126d565b91505092915050565b7f4e487b71000000000000000000000000000000000000000000000000000000005f52603260045260245ffd5b50565b5f6112e75f83610d9a565b91506112f2826112d9565b5f82019050919050565b5f60a08201905061130f5f8301876110f5565b61131c60208301866110f5565b6113296040830185611126565b6113366060830184611126565b8181036080830152611347816112dc565b905095945050505050565b5f61135c82610cd2565b9050919050565b61136c81611352565b8114611376575f5ffd5b50565b5f8151905061138781611363565b92915050565b5f5f5f5f608085870312156113a5576113a4610c17565b5b5f6113b287828801611379565b94505060206113c387828801611379565b93505060406113d487828801611379565b92505060606113e587828801611379565b91505092959194509250565b6113fa81610c1f565b82525050565b5f6020820190506114135f8301846113f1565b9291505056fea2646970667358221220952447b39b5d5f8ec4b479dd9090ac6106387248d7cbcee99c7f10877809360164736f6c634300081d0033","linkReferences":{}},"methodIdentifiers":{"MAX_AIRDROP_BATCH_SIZE()":"b277332d","airdrop(address[],uint256[],uint256[])":"1bf2907b","deployManager()":"93394029","getDeployManager()":"f7fc87f2","getInitData(address,address,address,address)":"1431f87a","initialize(bytes)":"439fab91","initialized()":"158ef93e","owner()":"8da5cb5b","renounceOwnership()":"715018a6","supportsInterface(bytes4)":"01ffc9a7","token()":"fc0c546a","transferOwnership(address)":"f2fde38b","treasury()":"61d027b3"},"id":33}