{"abi":[{"type":"constructor","inputs":[],"stateMutability":"payable"},{"type":"function","name":"MAX_AIRDROP_BATCH_SIZE","inputs":[],"outputs":[{"name":"","type":"uint256","internalType":"uint256"}],"stateMutability":"view"},{"type":"function","name":"airdrop","inputs":[{"name":"receivers","type":"address[]","internalType":"address[]"},{"name":"amounts","type":"uint256[]","internalType":"uint256[]"},{"name":"tokenIds","type":"uint256[]","internalType":"uint256[]"}],"outputs":[],"stateMutability":"nonpayable"},{"type":"function","name":"deployManager","inputs":[],"outputs":[{"name":"","type":"address","internalType":"address"}],"stateMutability":"view"},{"type":"function","name":"getDeployManager","inputs":[],"outputs":[{"name":"","type":"address","internalType":"address"}],"stateMutability":"view"},{"type":"function","name":"getInitData","inputs":[{"name":"_deployManager","type":"address","internalType":"address"},{"name":"_token","type":"address","internalType":"address"},{"name":"_treasury","type":"address","internalType":"address"},{"name":"_owner","type":"address","internalType":"address"}],"outputs":[{"name":"","type":"bytes","internalType":"bytes"}],"stateMutability":"pure"},{"type":"function","name":"initialize","inputs":[{"name":"_initData","type":"bytes","internalType":"bytes"}],"outputs":[{"name":"","type":"bool","internalType":"bool"}],"stateMutability":"nonpayable"},{"type":"function","name":"owner","inputs":[],"outputs":[{"name":"","type":"address","internalType":"address"}],"stateMutability":"view"},{"type":"function","name":"renounceOwnership","inputs":[],"outputs":[],"stateMutability":"nonpayable"},{"type":"function","name":"supportsInterface","inputs":[{"name":"interfaceId","type":"bytes4","internalType":"bytes4"}],"outputs":[{"name":"","type":"bool","internalType":"bool"}],"stateMutability":"view"},{"type":"function","name":"token","inputs":[],"outputs":[{"name":"","type":"address","internalType":"contract IERC1155"}],"stateMutability":"view"},{"type":"function","name":"transferOwnership","inputs":[{"name":"newOwner","type":"address","internalType":"address"}],"outputs":[],"stateMutability":"nonpayable"},{"type":"function","name":"treasury","inputs":[],"outputs":[{"name":"","type":"address","internalType":"address"}],"stateMutability":"view"},{"type":"event","name":"OwnershipTransferred","inputs":[{"name":"previousOwner","type":"address","indexed":true,"internalType":"address"},{"name":"newOwner","type":"address","indexed":true,"internalType":"address"}],"anonymous":false},{"type":"error","name":"AlreadyInitialized","inputs":[]},{"type":"error","name":"AmountsLengthMismatch","inputs":[]},{"type":"error","name":"BatchSizeExceeded","inputs":[]},{"type":"error","name":"DeployManagerCannotBeZero","inputs":[]},{"type":"error","name":"FailedToValidateDeployManager","inputs":[]},{"type":"error","name":"NeedToApproveTokens","inputs":[]},{"type":"error","name":"NotDeployManager","inputs":[]},{"type":"error","name":"OwnableInvalidOwner","inputs":[{"name":"owner","type":"address","internalType":"address"}]},{"type":"error","name":"OwnableUnauthorizedAccount","inputs":[{"name":"account","type":"address","internalType":"address"}]},{"type":"error","name":"ReciversLengthMismatch","inputs":[]}],"bytecode":{"object":"0x6080604052335f73ffffffffffffffffffffffffffffffffffffffff168173ffffffffffffffffffffffffffffffffffffffff1603610075575f6040517f1e4fbdf700000000000000000000000000000000000000000000000000000000815260040161006c919061018c565b60405180910390fd5b6100848161008a60201b60201c565b506101a5565b5f60015f9054906101000a900473ffffffffffffffffffffffffffffffffffffffff1690508160015f6101000a81548173ffffffffffffffffffffffffffffffffffffffff021916908373ffffffffffffffffffffffffffffffffffffffff1602179055508173ffffffffffffffffffffffffffffffffffffffff168173ffffffffffffffffffffffffffffffffffffffff167f8be0079c531659141344cd1fd0a4f28419497f9722a3daafe3b4186f6b6457e060405160405180910390a35050565b5f73ffffffffffffffffffffffffffffffffffffffff82169050919050565b5f6101768261014d565b9050919050565b6101868161016c565b82525050565b5f60208201905061019f5f83018461017d565b92915050565b611406806101b25f395ff3fe608060405234801561000f575f5ffd5b50600436106100b2575f3560e01c80638da5cb5b1161006f5780638da5cb5b1461018a57806393394029146101a8578063b277332d146101c6578063f2fde38b146101e4578063f7fc87f214610200578063fc0c546a1461021e576100b2565b806301ffc9a7146100b65780631431f87a146100e65780631bf2907b14610116578063439fab911461013257806361d027b314610162578063715018a614610180575b5f5ffd5b6100d060048036038101906100cb9190610c2b565b61023c565b6040516100dd9190610c70565b60405180910390f35b61010060048036038101906100fb9190610ce3565b6102b5565b60405161010d9190610db7565b60405180910390f35b610130600480360381019061012b9190610e8d565b6102e7565b005b61014c60048036038101906101479190611065565b6105cd565b6040516101599190610c70565b60405180910390f35b61016a6106ef565b60405161017791906110bb565b60405180910390f35b610188610714565b005b610192610727565b60405161019f91906110bb565b60405180910390f35b6101b061074f565b6040516101bd91906110bb565b60405180910390f35b6101ce610773565b6040516101db91906110ec565b60405180910390f35b6101fe60048036038101906101f99190611105565b610778565b005b6102086107fc565b60405161021591906110bb565b60405180910390f35b610226610823565b604051610233919061118b565b60405180910390f35b5f7fb4632c63000000000000000000000000000000000000000000000000000000007bffffffffffffffffffffffffffffffffffffffffffffffffffffffff1916827bffffffffffffffffffffffffffffffffffffffffffffffffffffffff191614806102ae57506102ad82610848565b5b9050919050565b6060848484846040516020016102ce94939291906111a4565b6040516020818303038152906040529050949350505050565b6102ef6108b1565b600a82829050111561032d576040517fabcf3d2300000000000000000000000000000000000000000000000000000000815260040160405180910390fd5b81819050868690501461036c576040517f1e0dfdf600000000000000000000000000000000000000000000000000000000815260040160405180910390fd5b8181905084849050146103ab576040517fa35f7e5700000000000000000000000000000000000000000000000000000000815260040160405180910390fd5b60025f9054906101000a900473ffffffffffffffffffffffffffffffffffffffff1673ffffffffffffffffffffffffffffffffffffffff1663e985e9c560035f9054906101000a900473ffffffffffffffffffffffffffffffffffffffff16306040518363ffffffff1660e01b81526004016104289291906111e7565b602060405180830381865afa158015610443573d5f5f3e3d5ffd5b505050506040513d601f19601f820116820180604052508101906104679190611238565b61049d576040517f9bacfd9a00000000000000000000000000000000000000000000000000000000815260040160405180910390fd5b5f60035f9054906101000a900473ffffffffffffffffffffffffffffffffffffffff1690505f5f90505b858590508110156105c35760025f9054906101000a900473ffffffffffffffffffffffffffffffffffffffff1673ffffffffffffffffffffffffffffffffffffffff1663f242432a838a8a8581811061052357610522611263565b5b90506020020160208101906105389190611105565b87878681811061054b5761054a611263565b5b905060200201358a8a8781811061056557610564611263565b5b905060200201356040518563ffffffff1660e01b815260040161058b94939291906112b3565b5f604051808303815f87803b1580156105a2575f5ffd5b505af11580156105b4573d5f5f3e3d5ffd5b505050508060010190506104c7565b5050505050505050565b5f600360149054906101000a900460ff1615610615576040517f0dc149f000000000000000000000000000000000000000000000000000000000815260040160405180910390fd5b5f5f5f5f8580602001905181019061062d9190611344565b935093509350935061063e84610938565b8260025f6101000a81548173ffffffffffffffffffffffffffffffffffffffff021916908373ffffffffffffffffffffffffffffffffffffffff1602179055508160035f6101000a81548173ffffffffffffffffffffffffffffffffffffffff021916908373ffffffffffffffffffffffffffffffffffffffff1602179055506106c781610778565b6001600360146101000a81548160ff0219169083151502179055506001945050505050919050565b60035f9054906101000a900473ffffffffffffffffffffffffffffffffffffffff1681565b61071c6108b1565b6107255f6109b9565b565b5f60015f9054906101000a900473ffffffffffffffffffffffffffffffffffffffff16905090565b5f5f9054906101000a900473ffffffffffffffffffffffffffffffffffffffff1681565b600a81565b6107806108b1565b5f73ffffffffffffffffffffffffffffffffffffffff168173ffffffffffffffffffffffffffffffffffffffff16036107f0575f6040517f1e4fbdf70000000000000000000000000000000000000000000000000000000081526004016107e791906110bb565b60405180910390fd5b6107f9816109b9565b50565b5f5f5f9054906101000a900473ffffffffffffffffffffffffffffffffffffffff16905090565b60025f9054906101000a900473ffffffffffffffffffffffffffffffffffffffff1681565b5f7f01ffc9a7000000000000000000000000000000000000000000000000000000007bffffffffffffffffffffffffffffffffffffffffffffffffffffffff1916827bffffffffffffffffffffffffffffffffffffffffffffffffffffffff1916149050919050565b6108b9610a7c565b73ffffffffffffffffffffffffffffffffffffffff166108d7610727565b73ffffffffffffffffffffffffffffffffffffffff1614610936576108fa610a7c565b6040517f118cdaa700000000000000000000000000000000000000000000000000000000815260040161092d91906110bb565b60405180910390fd5b565b61094181610a83565b610977576040517f1b20531d00000000000000000000000000000000000000000000000000000000815260040160405180910390fd5b805f5f6101000a81548173ffffffffffffffffffffffffffffffffffffffff021916908373ffffffffffffffffffffffffffffffffffffffff16021790555050565b5f60015f9054906101000a900473ffffffffffffffffffffffffffffffffffffffff1690508160015f6101000a81548173ffffffffffffffffffffffffffffffffffffffff021916908373ffffffffffffffffffffffffffffffffffffffff1602179055508173ffffffffffffffffffffffffffffffffffffffff168173ffffffffffffffffffffffffffffffffffffffff167f8be0079c531659141344cd1fd0a4f28419497f9722a3daafe3b4186f6b6457e060405160405180910390a35050565b5f33905090565b5f5f73ffffffffffffffffffffffffffffffffffffffff168273ffffffffffffffffffffffffffffffffffffffff1603610ae9576040517f7cc06ca200000000000000000000000000000000000000000000000000000000815260040160405180910390fd5b5f7f267fcfaf0000000000000000000000000000000000000000000000000000000090508273ffffffffffffffffffffffffffffffffffffffff166301ffc9a7826040518263ffffffff1660e01b8152600401610b4691906113b7565b602060405180830381865afa158015610b61573d5f5f3e3d5ffd5b505050506040513d601f19601f82011682018060405250810190610b859190611238565b610bbb576040517f5f0e0ffc00000000000000000000000000000000000000000000000000000000815260040160405180910390fd5b6001915050919050565b5f604051905090565b5f5ffd5b5f5ffd5b5f7fffffffff0000000000000000000000000000000000000000000000000000000082169050919050565b610c0a81610bd6565b8114610c14575f5ffd5b50565b5f81359050610c2581610c01565b92915050565b5f60208284031215610c4057610c3f610bce565b5b5f610c4d84828501610c17565b91505092915050565b5f8115159050919050565b610c6a81610c56565b82525050565b5f602082019050610c835f830184610c61565b92915050565b5f73ffffffffffffffffffffffffffffffffffffffff82169050919050565b5f610cb282610c89565b9050919050565b610cc281610ca8565b8114610ccc575f5ffd5b50565b5f81359050610cdd81610cb9565b92915050565b5f5f5f5f60808587031215610cfb57610cfa610bce565b5b5f610d0887828801610ccf565b9450506020610d1987828801610ccf565b9350506040610d2a87828801610ccf565b9250506060610d3b87828801610ccf565b91505092959194509250565b5f81519050919050565b5f82825260208201905092915050565b8281835e5f83830152505050565b5f601f19601f8301169050919050565b5f610d8982610d47565b610d938185610d51565b9350610da3818560208601610d61565b610dac81610d6f565b840191505092915050565b5f6020820190508181035f830152610dcf8184610d7f565b905092915050565b5f5ffd5b5f5ffd5b5f5ffd5b5f5f83601f840112610df857610df7610dd7565b5b8235905067ffffffffffffffff811115610e1557610e14610ddb565b5b602083019150836020820283011115610e3157610e30610ddf565b5b9250929050565b5f5f83601f840112610e4d57610e4c610dd7565b5b8235905067ffffffffffffffff811115610e6a57610e69610ddb565b5b602083019150836020820283011115610e8657610e85610ddf565b5b9250929050565b5f5f5f5f5f5f60608789031215610ea757610ea6610bce565b5b5f87013567ffffffffffffffff811115610ec457610ec3610bd2565b5b610ed089828a01610de3565b9650965050602087013567ffffffffffffffff811115610ef357610ef2610bd2565b5b610eff89828a01610e38565b9450945050604087013567ffffffffffffffff811115610f2257610f21610bd2565b5b610f2e89828a01610e38565b92509250509295509295509295565b5f5ffd5b7f4e487b71000000000000000000000000000000000000000000000000000000005f52604160045260245ffd5b610f7782610d6f565b810181811067ffffffffffffffff82111715610f9657610f95610f41565b5b80604052505050565b5f610fa8610bc5565b9050610fb48282610f6e565b919050565b5f67ffffffffffffffff821115610fd357610fd2610f41565b5b610fdc82610d6f565b9050602081019050919050565b828183375f83830152505050565b5f61100961100484610fb9565b610f9f565b90508281526020810184848401111561102557611024610f3d565b5b611030848285610fe9565b509392505050565b5f82601f83011261104c5761104b610dd7565b5b813561105c848260208601610ff7565b91505092915050565b5f6020828403121561107a57611079610bce565b5b5f82013567ffffffffffffffff81111561109757611096610bd2565b5b6110a384828501611038565b91505092915050565b6110b581610ca8565b82525050565b5f6020820190506110ce5f8301846110ac565b92915050565b5f819050919050565b6110e6816110d4565b82525050565b5f6020820190506110ff5f8301846110dd565b92915050565b5f6020828403121561111a57611119610bce565b5b5f61112784828501610ccf565b91505092915050565b5f819050919050565b5f61115361114e61114984610c89565b611130565b610c89565b9050919050565b5f61116482611139565b9050919050565b5f6111758261115a565b9050919050565b6111858161116b565b82525050565b5f60208201905061119e5f83018461117c565b92915050565b5f6080820190506111b75f8301876110ac565b6111c460208301866110ac565b6111d160408301856110ac565b6111de60608301846110ac565b95945050505050565b5f6040820190506111fa5f8301856110ac565b61120760208301846110ac565b9392505050565b61121781610c56565b8114611221575f5ffd5b50565b5f815190506112328161120e565b92915050565b5f6020828403121561124d5761124c610bce565b5b5f61125a84828501611224565b91505092915050565b7f4e487b71000000000000000000000000000000000000000000000000000000005f52603260045260245ffd5b50565b5f61129e5f83610d51565b91506112a982611290565b5f82019050919050565b5f60a0820190506112c65f8301876110ac565b6112d360208301866110ac565b6112e060408301856110dd565b6112ed60608301846110dd565b81810360808301526112fe81611293565b905095945050505050565b5f61131382610c89565b9050919050565b61132381611309565b811461132d575f5ffd5b50565b5f8151905061133e8161131a565b92915050565b5f5f5f5f6080858703121561135c5761135b610bce565b5b5f61136987828801611330565b945050602061137a87828801611330565b935050604061138b87828801611330565b925050606061139c87828801611330565b91505092959194509250565b6113b181610bd6565b82525050565b5f6020820190506113ca5f8301846113a8565b9291505056fea2646970667358221220b84746a830192c907a914102fb41ffee931387657ea0e11839216a301e70fed664736f6c634300081d0033","linkReferences":{}},"methodIdentifiers":{"MAX_AIRDROP_BATCH_SIZE()":"b277332d","airdrop(address[],uint256[],uint256[])":"1bf2907b","deployManager()":"93394029","getDeployManager()":"f7fc87f2","getInitData(address,address,address,address)":"1431f87a","initialize(bytes)":"439fab91","owner()":"8da5cb5b","renounceOwnership()":"715018a6","supportsInterface(bytes4)":"01ffc9a7","token()":"fc0c546a","transferOwnership(address)":"f2fde38b","treasury()":"61d027b3"},"id":15}