{"abi":[{"type":"constructor","inputs":[],"stateMutability":"payable"},{"type":"function","name":"MAX_AIRDROP_BATCH_SIZE","inputs":[],"outputs":[{"name":"","type":"uint256","internalType":"uint256"}],"stateMutability":"view"},{"type":"function","name":"airdrop","inputs":[{"name":"receivers","type":"address[]","internalType":"address[]"},{"name":"amounts","type":"uint256[]","internalType":"uint256[]"}],"outputs":[],"stateMutability":"nonpayable"},{"type":"function","name":"amount","inputs":[],"outputs":[{"name":"","type":"uint256","internalType":"uint256"}],"stateMutability":"view"},{"type":"function","name":"getInitData","inputs":[{"name":"_token","type":"address","internalType":"address"},{"name":"_amount","type":"uint256","internalType":"uint256"},{"name":"_treasury","type":"address","internalType":"address"},{"name":"_owner","type":"address","internalType":"address"}],"outputs":[{"name":"","type":"bytes","internalType":"bytes"}],"stateMutability":"pure"},{"type":"function","name":"initialize","inputs":[{"name":"_initData","type":"bytes","internalType":"bytes"}],"outputs":[{"name":"","type":"bool","internalType":"bool"}],"stateMutability":"nonpayable"},{"type":"function","name":"owner","inputs":[],"outputs":[{"name":"","type":"address","internalType":"address"}],"stateMutability":"view"},{"type":"function","name":"renounceOwnership","inputs":[],"outputs":[],"stateMutability":"nonpayable"},{"type":"function","name":"token","inputs":[],"outputs":[{"name":"","type":"address","internalType":"contract IERC20"}],"stateMutability":"view"},{"type":"function","name":"transferOwnership","inputs":[{"name":"newOwner","type":"address","internalType":"address"}],"outputs":[],"stateMutability":"nonpayable"},{"type":"function","name":"treasury","inputs":[],"outputs":[{"name":"","type":"address","internalType":"address"}],"stateMutability":"view"},{"type":"event","name":"OwnershipTransferred","inputs":[{"name":"previousOwner","type":"address","indexed":true,"internalType":"address"},{"name":"newOwner","type":"address","indexed":true,"internalType":"address"}],"anonymous":false},{"type":"error","name":"AlreadyInitialized","inputs":[]},{"type":"error","name":"ArraysLengthMismatch","inputs":[]},{"type":"error","name":"BatchSizeExceeded","inputs":[]},{"type":"error","name":"NotEnoughApprovedTokens","inputs":[]},{"type":"error","name":"OwnableInvalidOwner","inputs":[{"name":"owner","type":"address","internalType":"address"}]},{"type":"error","name":"OwnableUnauthorizedAccount","inputs":[{"name":"account","type":"address","internalType":"address"}]},{"type":"error","name":"TransferFailed","inputs":[]}],"bytecode":{"object":"0x6080604052335f73ffffffffffffffffffffffffffffffffffffffff168173ffffffffffffffffffffffffffffffffffffffff1603610075575f6040517f1e4fbdf700000000000000000000000000000000000000000000000000000000815260040161006c919061018a565b60405180910390fd5b6100848161008a60201b60201c565b506101a3565b5f5f5f9054906101000a900473ffffffffffffffffffffffffffffffffffffffff169050815f5f6101000a81548173ffffffffffffffffffffffffffffffffffffffff021916908373ffffffffffffffffffffffffffffffffffffffff1602179055508173ffffffffffffffffffffffffffffffffffffffff168173ffffffffffffffffffffffffffffffffffffffff167f8be0079c531659141344cd1fd0a4f28419497f9722a3daafe3b4186f6b6457e060405160405180910390a35050565b5f73ffffffffffffffffffffffffffffffffffffffff82169050919050565b5f6101748261014b565b9050919050565b6101848161016a565b82525050565b5f60208201905061019d5f83018461017b565b92915050565b610ff2806101b05f395ff3fe608060405234801561000f575f5ffd5b506004361061009c575f3560e01c80638da5cb5b116100645780638da5cb5b14610144578063aa8c217c14610162578063b277332d14610180578063f2fde38b1461019e578063fc0c546a146101ba5761009c565b80632bfc9e2b146100a0578063439fab91146100d057806361d027b314610100578063672434821461011e578063715018a61461013a575b5f5ffd5b6100ba60048036038101906100b59190610904565b6101d8565b6040516100c791906109d8565b60405180910390f35b6100ea60048036038101906100e59190610b24565b61020a565b6040516100f79190610b85565b60405180910390f35b61010861032a565b6040516101159190610bad565b60405180910390f35b61013860048036038101906101339190610c78565b61034f565b005b610142610628565b005b61014c61063b565b6040516101599190610bad565b60405180910390f35b61016a610662565b6040516101779190610d05565b60405180910390f35b610188610668565b6040516101959190610d05565b60405180910390f35b6101b860048036038101906101b39190610d1e565b61066e565b005b6101c26106f2565b6040516101cf9190610da4565b60405180910390f35b6060848484846040516020016101f19493929190610dbd565b6040516020818303038152906040529050949350505050565b5f600360149054906101000a900460ff1615610252576040517f0dc149f000000000000000000000000000000000000000000000000000000000815260040160405180910390fd5b5f5f5f5f8580602001905181019061026a9190610e4f565b93509350935093508360015f6101000a81548173ffffffffffffffffffffffffffffffffffffffff021916908373ffffffffffffffffffffffffffffffffffffffff160217905550826002819055508160035f6101000a81548173ffffffffffffffffffffffffffffffffffffffff021916908373ffffffffffffffffffffffffffffffffffffffff1602179055506103028161066e565b6001600360146101000a81548160ff0219169083151502179055506001945050505050919050565b60035f9054906101000a900473ffffffffffffffffffffffffffffffffffffffff1681565b610357610717565b61012c848490501115610396576040517fabcf3d2300000000000000000000000000000000000000000000000000000000815260040160405180910390fd5b8181905084849050146103d5576040517ffc23596000000000000000000000000000000000000000000000000000000000815260040160405180910390fd5b60025460015f9054906101000a900473ffffffffffffffffffffffffffffffffffffffff1673ffffffffffffffffffffffffffffffffffffffff1663dd62ed3e60035f9054906101000a900473ffffffffffffffffffffffffffffffffffffffff16306040518363ffffffff1660e01b8152600401610455929190610eb3565b602060405180830381865afa158015610470573d5f5f3e3d5ffd5b505050506040513d601f19601f820116820180604052508101906104949190610eda565b10156104cc576040517ff9174a0400000000000000000000000000000000000000000000000000000000815260040160405180910390fd5b5f60035f9054906101000a900473ffffffffffffffffffffffffffffffffffffffff1690505f5f90505b858590508110156106205760015f9054906101000a900473ffffffffffffffffffffffffffffffffffffffff1673ffffffffffffffffffffffffffffffffffffffff166323b872dd8388888581811061055257610551610f05565b5b90506020020160208101906105679190610d1e565b87878681811061057a57610579610f05565b5b905060200201356040518463ffffffff1660e01b815260040161059f93929190610f32565b6020604051808303815f875af11580156105bb573d5f5f3e3d5ffd5b505050506040513d601f19601f820116820180604052508101906105df9190610f91565b610615576040517f90b8ec1800000000000000000000000000000000000000000000000000000000815260040160405180910390fd5b8060010190506104f6565b505050505050565b610630610717565b6106395f61079e565b565b5f5f5f9054906101000a900473ffffffffffffffffffffffffffffffffffffffff16905090565b60025481565b61012c81565b610676610717565b5f73ffffffffffffffffffffffffffffffffffffffff168173ffffffffffffffffffffffffffffffffffffffff16036106e6575f6040517f1e4fbdf70000000000000000000000000000000000000000000000000000000081526004016106dd9190610bad565b60405180910390fd5b6106ef8161079e565b50565b60015f9054906101000a900473ffffffffffffffffffffffffffffffffffffffff1681565b61071f61085f565b73ffffffffffffffffffffffffffffffffffffffff1661073d61063b565b73ffffffffffffffffffffffffffffffffffffffff161461079c5761076061085f565b6040517f118cdaa70000000000000000000000000000000000000000000000000000000081526004016107939190610bad565b60405180910390fd5b565b5f5f5f9054906101000a900473ffffffffffffffffffffffffffffffffffffffff169050815f5f6101000a81548173ffffffffffffffffffffffffffffffffffffffff021916908373ffffffffffffffffffffffffffffffffffffffff1602179055508173ffffffffffffffffffffffffffffffffffffffff168173ffffffffffffffffffffffffffffffffffffffff167f8be0079c531659141344cd1fd0a4f28419497f9722a3daafe3b4186f6b6457e060405160405180910390a35050565b5f33905090565b5f604051905090565b5f5ffd5b5f5ffd5b5f73ffffffffffffffffffffffffffffffffffffffff82169050919050565b5f6108a082610877565b9050919050565b6108b081610896565b81146108ba575f5ffd5b50565b5f813590506108cb816108a7565b92915050565b5f819050919050565b6108e3816108d1565b81146108ed575f5ffd5b50565b5f813590506108fe816108da565b92915050565b5f5f5f5f6080858703121561091c5761091b61086f565b5b5f610929878288016108bd565b945050602061093a878288016108f0565b935050604061094b878288016108bd565b925050606061095c878288016108bd565b91505092959194509250565b5f81519050919050565b5f82825260208201905092915050565b8281835e5f83830152505050565b5f601f19601f8301169050919050565b5f6109aa82610968565b6109b48185610972565b93506109c4818560208601610982565b6109cd81610990565b840191505092915050565b5f6020820190508181035f8301526109f081846109a0565b905092915050565b5f5ffd5b5f5ffd5b7f4e487b71000000000000000000000000000000000000000000000000000000005f52604160045260245ffd5b610a3682610990565b810181811067ffffffffffffffff82111715610a5557610a54610a00565b5b80604052505050565b5f610a67610866565b9050610a738282610a2d565b919050565b5f67ffffffffffffffff821115610a9257610a91610a00565b5b610a9b82610990565b9050602081019050919050565b828183375f83830152505050565b5f610ac8610ac384610a78565b610a5e565b905082815260208101848484011115610ae457610ae36109fc565b5b610aef848285610aa8565b509392505050565b5f82601f830112610b0b57610b0a6109f8565b5b8135610b1b848260208601610ab6565b91505092915050565b5f60208284031215610b3957610b3861086f565b5b5f82013567ffffffffffffffff811115610b5657610b55610873565b5b610b6284828501610af7565b91505092915050565b5f8115159050919050565b610b7f81610b6b565b82525050565b5f602082019050610b985f830184610b76565b92915050565b610ba781610896565b82525050565b5f602082019050610bc05f830184610b9e565b92915050565b5f5ffd5b5f5ffd5b5f5f83601f840112610be357610be26109f8565b5b8235905067ffffffffffffffff811115610c0057610bff610bc6565b5b602083019150836020820283011115610c1c57610c1b610bca565b5b9250929050565b5f5f83601f840112610c3857610c376109f8565b5b8235905067ffffffffffffffff811115610c5557610c54610bc6565b5b602083019150836020820283011115610c7157610c70610bca565b5b9250929050565b5f5f5f5f60408587031215610c9057610c8f61086f565b5b5f85013567ffffffffffffffff811115610cad57610cac610873565b5b610cb987828801610bce565b9450945050602085013567ffffffffffffffff811115610cdc57610cdb610873565b5b610ce887828801610c23565b925092505092959194509250565b610cff816108d1565b82525050565b5f602082019050610d185f830184610cf6565b92915050565b5f60208284031215610d3357610d3261086f565b5b5f610d40848285016108bd565b91505092915050565b5f819050919050565b5f610d6c610d67610d6284610877565b610d49565b610877565b9050919050565b5f610d7d82610d52565b9050919050565b5f610d8e82610d73565b9050919050565b610d9e81610d84565b82525050565b5f602082019050610db75f830184610d95565b92915050565b5f608082019050610dd05f830187610b9e565b610ddd6020830186610cf6565b610dea6040830185610b9e565b610df76060830184610b9e565b95945050505050565b5f610e0a82610877565b9050919050565b610e1a81610e00565b8114610e24575f5ffd5b50565b5f81519050610e3581610e11565b92915050565b5f81519050610e49816108da565b92915050565b5f5f5f5f60808587031215610e6757610e6661086f565b5b5f610e7487828801610e27565b9450506020610e8587828801610e3b565b9350506040610e9687828801610e27565b9250506060610ea787828801610e27565b91505092959194509250565b5f604082019050610ec65f830185610b9e565b610ed36020830184610b9e565b9392505050565b5f60208284031215610eef57610eee61086f565b5b5f610efc84828501610e3b565b91505092915050565b7f4e487b71000000000000000000000000000000000000000000000000000000005f52603260045260245ffd5b5f606082019050610f455f830186610b9e565b610f526020830185610b9e565b610f5f6040830184610cf6565b949350505050565b610f7081610b6b565b8114610f7a575f5ffd5b50565b5f81519050610f8b81610f67565b92915050565b5f60208284031215610fa657610fa561086f565b5b5f610fb384828501610f7d565b9150509291505056fea26469706673582212208ef0a75cdbfc1dc7f6251ada06584e21a9e959c8b52b74438e665bd1c1591a3964736f6c634300081d0033","linkReferences":{}},"methodIdentifiers":{"MAX_AIRDROP_BATCH_SIZE()":"b277332d","airdrop(address[],uint256[])":"67243482","amount()":"aa8c217c","getInitData(address,uint256,address,address)":"2bfc9e2b","initialize(bytes)":"439fab91","owner()":"8da5cb5b","renounceOwnership()":"715018a6","token()":"fc0c546a","transferOwnership(address)":"f2fde38b","treasury()":"61d027b3"},"id":15}