{"abi":[{"type":"constructor","inputs":[],"stateMutability":"payable"},{"type":"function","name":"MAX_AIRDROP_BATCH_SIZE","inputs":[],"outputs":[{"name":"","type":"uint256","internalType":"uint256"}],"stateMutability":"view"},{"type":"function","name":"airdrop","inputs":[{"name":"receivers","type":"address[]","internalType":"address[]"},{"name":"amounts","type":"uint256[]","internalType":"uint256[]"}],"outputs":[],"stateMutability":"nonpayable"},{"type":"function","name":"amount","inputs":[],"outputs":[{"name":"","type":"uint256","internalType":"uint256"}],"stateMutability":"view"},{"type":"function","name":"deployManager","inputs":[],"outputs":[{"name":"","type":"address","internalType":"address"}],"stateMutability":"view"},{"type":"function","name":"getDeployManager","inputs":[],"outputs":[{"name":"","type":"address","internalType":"address"}],"stateMutability":"view"},{"type":"function","name":"getInitData","inputs":[{"name":"_deployManager","type":"address","internalType":"address"},{"name":"_token","type":"address","internalType":"address"},{"name":"_amount","type":"uint256","internalType":"uint256"},{"name":"_treasury","type":"address","internalType":"address"},{"name":"_owner","type":"address","internalType":"address"}],"outputs":[{"name":"","type":"bytes","internalType":"bytes"}],"stateMutability":"pure"},{"type":"function","name":"initialize","inputs":[{"name":"_initData","type":"bytes","internalType":"bytes"}],"outputs":[{"name":"","type":"bool","internalType":"bool"}],"stateMutability":"nonpayable"},{"type":"function","name":"owner","inputs":[],"outputs":[{"name":"","type":"address","internalType":"address"}],"stateMutability":"view"},{"type":"function","name":"renounceOwnership","inputs":[],"outputs":[],"stateMutability":"nonpayable"},{"type":"function","name":"supportsInterface","inputs":[{"name":"interfaceId","type":"bytes4","internalType":"bytes4"}],"outputs":[{"name":"","type":"bool","internalType":"bool"}],"stateMutability":"view"},{"type":"function","name":"token","inputs":[],"outputs":[{"name":"","type":"address","internalType":"contract IERC20"}],"stateMutability":"view"},{"type":"function","name":"transferOwnership","inputs":[{"name":"newOwner","type":"address","internalType":"address"}],"outputs":[],"stateMutability":"nonpayable"},{"type":"function","name":"treasury","inputs":[],"outputs":[{"name":"","type":"address","internalType":"address"}],"stateMutability":"view"},{"type":"event","name":"OwnershipTransferred","inputs":[{"name":"previousOwner","type":"address","indexed":true,"internalType":"address"},{"name":"newOwner","type":"address","indexed":true,"internalType":"address"}],"anonymous":false},{"type":"error","name":"AlreadyInitialized","inputs":[]},{"type":"error","name":"ArraysLengthMismatch","inputs":[]},{"type":"error","name":"BatchSizeExceeded","inputs":[]},{"type":"error","name":"DeployManagerCannotBeZero","inputs":[]},{"type":"error","name":"FailedToValidateDeployManager","inputs":[]},{"type":"error","name":"NotDeployManager","inputs":[]},{"type":"error","name":"NotEnoughApprovedTokens","inputs":[]},{"type":"error","name":"OwnableInvalidOwner","inputs":[{"name":"owner","type":"address","internalType":"address"}]},{"type":"error","name":"OwnableUnauthorizedAccount","inputs":[{"name":"account","type":"address","internalType":"address"}]},{"type":"error","name":"TransferFailed","inputs":[]}],"bytecode":{"object":"0x6080604052335f73ffffffffffffffffffffffffffffffffffffffff168173ffffffffffffffffffffffffffffffffffffffff1603610075575f6040517f1e4fbdf700000000000000000000000000000000000000000000000000000000815260040161006c919061018c565b60405180910390fd5b6100848161008a60201b60201c565b506101a5565b5f60015f9054906101000a900473ffffffffffffffffffffffffffffffffffffffff1690508160015f6101000a81548173ffffffffffffffffffffffffffffffffffffffff021916908373ffffffffffffffffffffffffffffffffffffffff1602179055508173ffffffffffffffffffffffffffffffffffffffff168173ffffffffffffffffffffffffffffffffffffffff167f8be0079c531659141344cd1fd0a4f28419497f9722a3daafe3b4186f6b6457e060405160405180910390a35050565b5f73ffffffffffffffffffffffffffffffffffffffff82169050919050565b5f6101768261014d565b9050919050565b6101868161016c565b82525050565b5f60208201905061019f5f83018461017d565b92915050565b61146e806101b25f395ff3fe608060405234801561000f575f5ffd5b50600436106100cd575f3560e01c8063933940291161008a578063d50fbce011610064578063d50fbce0146101ed578063f2fde38b1461021d578063f7fc87f214610239578063fc0c546a14610257576100cd565b80639339402914610193578063aa8c217c146101b1578063b277332d146101cf576100cd565b806301ffc9a7146100d1578063439fab911461010157806361d027b314610131578063672434821461014f578063715018a61461016b5780638da5cb5b14610175575b5f5ffd5b6100eb60048036038101906100e69190610c6c565b610275565b6040516100f89190610cb1565b60405180910390f35b61011b60048036038101906101169190610e06565b6102ee565b6040516101289190610cb1565b60405180910390f35b61013961041b565b6040516101469190610e8c565b60405180910390f35b61016960048036038101906101649190610f57565b610440565b005b610173610719565b005b61017d61072c565b60405161018a9190610e8c565b60405180910390f35b61019b610754565b6040516101a89190610e8c565b60405180910390f35b6101b9610778565b6040516101c69190610fed565b60405180910390f35b6101d761077e565b6040516101e49190610fed565b60405180910390f35b6102076004803603810190610202919061105a565b610784565b6040516102149190611131565b60405180910390f35b61023760048036038101906102329190611151565b6107b9565b005b61024161083d565b60405161024e9190610e8c565b60405180910390f35b61025f610864565b60405161026c91906111d7565b60405180910390f35b5f7fb4632c63000000000000000000000000000000000000000000000000000000007bffffffffffffffffffffffffffffffffffffffffffffffffffffffff1916827bffffffffffffffffffffffffffffffffffffffffffffffffffffffff191614806102e757506102e682610889565b5b9050919050565b5f600460149054906101000a900460ff1615610336576040517f0dc149f000000000000000000000000000000000000000000000000000000000815260040160405180910390fd5b5f5f5f5f5f8680602001905181019061034f919061123f565b94509450945094509450610362856108f2565b8360025f6101000a81548173ffffffffffffffffffffffffffffffffffffffff021916908373ffffffffffffffffffffffffffffffffffffffff160217905550826003819055508160045f6101000a81548173ffffffffffffffffffffffffffffffffffffffff021916908373ffffffffffffffffffffffffffffffffffffffff1602179055506103f2816107b9565b6001600460146101000a81548160ff021916908315150217905550600195505050505050919050565b60045f9054906101000a900473ffffffffffffffffffffffffffffffffffffffff1681565b610448610973565b61012c848490501115610487576040517fabcf3d2300000000000000000000000000000000000000000000000000000000815260040160405180910390fd5b8181905084849050146104c6576040517ffc23596000000000000000000000000000000000000000000000000000000000815260040160405180910390fd5b60035460025f9054906101000a900473ffffffffffffffffffffffffffffffffffffffff1673ffffffffffffffffffffffffffffffffffffffff1663dd62ed3e60045f9054906101000a900473ffffffffffffffffffffffffffffffffffffffff16306040518363ffffffff1660e01b81526004016105469291906112b6565b602060405180830381865afa158015610561573d5f5f3e3d5ffd5b505050506040513d601f19601f8201168201806040525081019061058591906112dd565b10156105bd576040517ff9174a0400000000000000000000000000000000000000000000000000000000815260040160405180910390fd5b5f60045f9054906101000a900473ffffffffffffffffffffffffffffffffffffffff1690505f5f90505b858590508110156107115760025f9054906101000a900473ffffffffffffffffffffffffffffffffffffffff1673ffffffffffffffffffffffffffffffffffffffff166323b872dd8388888581811061064357610642611308565b5b90506020020160208101906106589190611151565b87878681811061066b5761066a611308565b5b905060200201356040518463ffffffff1660e01b815260040161069093929190611335565b6020604051808303815f875af11580156106ac573d5f5f3e3d5ffd5b505050506040513d601f19601f820116820180604052508101906106d09190611394565b610706576040517f90b8ec1800000000000000000000000000000000000000000000000000000000815260040160405180910390fd5b8060010190506105e7565b505050505050565b610721610973565b61072a5f6109fa565b565b5f60015f9054906101000a900473ffffffffffffffffffffffffffffffffffffffff16905090565b5f5f9054906101000a900473ffffffffffffffffffffffffffffffffffffffff1681565b60035481565b61012c81565b6060858585858560405160200161079f9594939291906113bf565b604051602081830303815290604052905095945050505050565b6107c1610973565b5f73ffffffffffffffffffffffffffffffffffffffff168173ffffffffffffffffffffffffffffffffffffffff1603610831575f6040517f1e4fbdf70000000000000000000000000000000000000000000000000000000081526004016108289190610e8c565b60405180910390fd5b61083a816109fa565b50565b5f5f5f9054906101000a900473ffffffffffffffffffffffffffffffffffffffff16905090565b60025f9054906101000a900473ffffffffffffffffffffffffffffffffffffffff1681565b5f7f01ffc9a7000000000000000000000000000000000000000000000000000000007bffffffffffffffffffffffffffffffffffffffffffffffffffffffff1916827bffffffffffffffffffffffffffffffffffffffffffffffffffffffff1916149050919050565b6108fb81610abd565b610931576040517f1b20531d00000000000000000000000000000000000000000000000000000000815260040160405180910390fd5b805f5f6101000a81548173ffffffffffffffffffffffffffffffffffffffff021916908373ffffffffffffffffffffffffffffffffffffffff16021790555050565b61097b610bff565b73ffffffffffffffffffffffffffffffffffffffff1661099961072c565b73ffffffffffffffffffffffffffffffffffffffff16146109f8576109bc610bff565b6040517f118cdaa70000000000000000000000000000000000000000000000000000000081526004016109ef9190610e8c565b60405180910390fd5b565b5f60015f9054906101000a900473ffffffffffffffffffffffffffffffffffffffff1690508160015f6101000a81548173ffffffffffffffffffffffffffffffffffffffff021916908373ffffffffffffffffffffffffffffffffffffffff1602179055508173ffffffffffffffffffffffffffffffffffffffff168173ffffffffffffffffffffffffffffffffffffffff167f8be0079c531659141344cd1fd0a4f28419497f9722a3daafe3b4186f6b6457e060405160405180910390a35050565b5f5f73ffffffffffffffffffffffffffffffffffffffff168273ffffffffffffffffffffffffffffffffffffffff1603610b23576040517f7cc06ca200000000000000000000000000000000000000000000000000000000815260040160405180910390fd5b5f7f267fcfaf0000000000000000000000000000000000000000000000000000000090508273ffffffffffffffffffffffffffffffffffffffff166301ffc9a7826040518263ffffffff1660e01b8152600401610b80919061141f565b602060405180830381865afa158015610b9b573d5f5f3e3d5ffd5b505050506040513d601f19601f82011682018060405250810190610bbf9190611394565b610bf5576040517f5f0e0ffc00000000000000000000000000000000000000000000000000000000815260040160405180910390fd5b6001915050919050565b5f33905090565b5f604051905090565b5f5ffd5b5f5ffd5b5f7fffffffff0000000000000000000000000000000000000000000000000000000082169050919050565b610c4b81610c17565b8114610c55575f5ffd5b50565b5f81359050610c6681610c42565b92915050565b5f60208284031215610c8157610c80610c0f565b5b5f610c8e84828501610c58565b91505092915050565b5f8115159050919050565b610cab81610c97565b82525050565b5f602082019050610cc45f830184610ca2565b92915050565b5f5ffd5b5f5ffd5b5f601f19601f8301169050919050565b7f4e487b71000000000000000000000000000000000000000000000000000000005f52604160045260245ffd5b610d1882610cd2565b810181811067ffffffffffffffff82111715610d3757610d36610ce2565b5b80604052505050565b5f610d49610c06565b9050610d558282610d0f565b919050565b5f67ffffffffffffffff821115610d7457610d73610ce2565b5b610d7d82610cd2565b9050602081019050919050565b828183375f83830152505050565b5f610daa610da584610d5a565b610d40565b905082815260208101848484011115610dc657610dc5610cce565b5b610dd1848285610d8a565b509392505050565b5f82601f830112610ded57610dec610cca565b5b8135610dfd848260208601610d98565b91505092915050565b5f60208284031215610e1b57610e1a610c0f565b5b5f82013567ffffffffffffffff811115610e3857610e37610c13565b5b610e4484828501610dd9565b91505092915050565b5f73ffffffffffffffffffffffffffffffffffffffff82169050919050565b5f610e7682610e4d565b9050919050565b610e8681610e6c565b82525050565b5f602082019050610e9f5f830184610e7d565b92915050565b5f5ffd5b5f5ffd5b5f5f83601f840112610ec257610ec1610cca565b5b8235905067ffffffffffffffff811115610edf57610ede610ea5565b5b602083019150836020820283011115610efb57610efa610ea9565b5b9250929050565b5f5f83601f840112610f1757610f16610cca565b5b8235905067ffffffffffffffff811115610f3457610f33610ea5565b5b602083019150836020820283011115610f5057610f4f610ea9565b5b9250929050565b5f5f5f5f60408587031215610f6f57610f6e610c0f565b5b5f85013567ffffffffffffffff811115610f8c57610f8b610c13565b5b610f9887828801610ead565b9450945050602085013567ffffffffffffffff811115610fbb57610fba610c13565b5b610fc787828801610f02565b925092505092959194509250565b5f819050919050565b610fe781610fd5565b82525050565b5f6020820190506110005f830184610fde565b92915050565b61100f81610e6c565b8114611019575f5ffd5b50565b5f8135905061102a81611006565b92915050565b61103981610fd5565b8114611043575f5ffd5b50565b5f8135905061105481611030565b92915050565b5f5f5f5f5f60a0868803121561107357611072610c0f565b5b5f6110808882890161101c565b95505060206110918882890161101c565b94505060406110a288828901611046565b93505060606110b38882890161101c565b92505060806110c48882890161101c565b9150509295509295909350565b5f81519050919050565b5f82825260208201905092915050565b8281835e5f83830152505050565b5f611103826110d1565b61110d81856110db565b935061111d8185602086016110eb565b61112681610cd2565b840191505092915050565b5f6020820190508181035f83015261114981846110f9565b905092915050565b5f6020828403121561116657611165610c0f565b5b5f6111738482850161101c565b91505092915050565b5f819050919050565b5f61119f61119a61119584610e4d565b61117c565b610e4d565b9050919050565b5f6111b082611185565b9050919050565b5f6111c1826111a6565b9050919050565b6111d1816111b7565b82525050565b5f6020820190506111ea5f8301846111c8565b92915050565b5f6111fa82610e4d565b9050919050565b61120a816111f0565b8114611214575f5ffd5b50565b5f8151905061122581611201565b92915050565b5f8151905061123981611030565b92915050565b5f5f5f5f5f60a0868803121561125857611257610c0f565b5b5f61126588828901611217565b955050602061127688828901611217565b94505060406112878882890161122b565b935050606061129888828901611217565b92505060806112a988828901611217565b9150509295509295909350565b5f6040820190506112c95f830185610e7d565b6112d66020830184610e7d565b9392505050565b5f602082840312156112f2576112f1610c0f565b5b5f6112ff8482850161122b565b91505092915050565b7f4e487b71000000000000000000000000000000000000000000000000000000005f52603260045260245ffd5b5f6060820190506113485f830186610e7d565b6113556020830185610e7d565b6113626040830184610fde565b949350505050565b61137381610c97565b811461137d575f5ffd5b50565b5f8151905061138e8161136a565b92915050565b5f602082840312156113a9576113a8610c0f565b5b5f6113b684828501611380565b91505092915050565b5f60a0820190506113d25f830188610e7d565b6113df6020830187610e7d565b6113ec6040830186610fde565b6113f96060830185610e7d565b6114066080830184610e7d565b9695505050505050565b61141981610c17565b82525050565b5f6020820190506114325f830184611410565b9291505056fea26469706673582212200096fab102915080971d51340b9f430961f89a969f3e056659587fead10747cb64736f6c634300081d0033","linkReferences":{}},"methodIdentifiers":{"MAX_AIRDROP_BATCH_SIZE()":"b277332d","airdrop(address[],uint256[])":"67243482","amount()":"aa8c217c","deployManager()":"93394029","getDeployManager()":"f7fc87f2","getInitData(address,address,uint256,address,address)":"d50fbce0","initialize(bytes)":"439fab91","owner()":"8da5cb5b","renounceOwnership()":"715018a6","supportsInterface(bytes4)":"01ffc9a7","token()":"fc0c546a","transferOwnership(address)":"f2fde38b","treasury()":"61d027b3"},"id":13}