{"abi":[{"type":"constructor","inputs":[],"stateMutability":"payable"},{"type":"function","name":"MAX_AIRDROP_BATCH_SIZE","inputs":[],"outputs":[{"name":"","type":"uint256","internalType":"uint256"}],"stateMutability":"view"},{"type":"function","name":"airdrop","inputs":[{"name":"receivers","type":"address[]","internalType":"address[]"},{"name":"amounts","type":"uint256[]","internalType":"uint256[]"}],"outputs":[],"stateMutability":"nonpayable"},{"type":"function","name":"amount","inputs":[],"outputs":[{"name":"","type":"uint256","internalType":"uint256"}],"stateMutability":"view"},{"type":"function","name":"deployManager","inputs":[],"outputs":[{"name":"","type":"address","internalType":"address"}],"stateMutability":"view"},{"type":"function","name":"getDeployManager","inputs":[],"outputs":[{"name":"","type":"address","internalType":"address"}],"stateMutability":"view"},{"type":"function","name":"getInitData","inputs":[{"name":"_deployManager","type":"address","internalType":"address"},{"name":"_token","type":"address","internalType":"address"},{"name":"_amount","type":"uint256","internalType":"uint256"},{"name":"_treasury","type":"address","internalType":"address"},{"name":"_owner","type":"address","internalType":"address"}],"outputs":[{"name":"","type":"bytes","internalType":"bytes"}],"stateMutability":"pure"},{"type":"function","name":"initialize","inputs":[{"name":"_initData","type":"bytes","internalType":"bytes"}],"outputs":[{"name":"","type":"bool","internalType":"bool"}],"stateMutability":"nonpayable"},{"type":"function","name":"initialized","inputs":[],"outputs":[{"name":"","type":"bool","internalType":"bool"}],"stateMutability":"view"},{"type":"function","name":"owner","inputs":[],"outputs":[{"name":"","type":"address","internalType":"address"}],"stateMutability":"view"},{"type":"function","name":"renounceOwnership","inputs":[],"outputs":[],"stateMutability":"nonpayable"},{"type":"function","name":"supportsInterface","inputs":[{"name":"interfaceId","type":"bytes4","internalType":"bytes4"}],"outputs":[{"name":"","type":"bool","internalType":"bool"}],"stateMutability":"view"},{"type":"function","name":"token","inputs":[],"outputs":[{"name":"","type":"address","internalType":"contract IERC20"}],"stateMutability":"view"},{"type":"function","name":"transferOwnership","inputs":[{"name":"newOwner","type":"address","internalType":"address"}],"outputs":[],"stateMutability":"nonpayable"},{"type":"function","name":"treasury","inputs":[],"outputs":[{"name":"","type":"address","internalType":"address"}],"stateMutability":"view"},{"type":"event","name":"OwnershipTransferred","inputs":[{"name":"previousOwner","type":"address","indexed":true,"internalType":"address"},{"name":"newOwner","type":"address","indexed":true,"internalType":"address"}],"anonymous":false},{"type":"error","name":"AlreadyInitialized","inputs":[]},{"type":"error","name":"ArraysLengthMismatch","inputs":[]},{"type":"error","name":"BatchSizeExceeded","inputs":[]},{"type":"error","name":"DeployManagerCannotBeZero","inputs":[]},{"type":"error","name":"FailedToDeployManager","inputs":[]},{"type":"error","name":"NotDeployManager","inputs":[]},{"type":"error","name":"NotEnoughApprovedTokens","inputs":[]},{"type":"error","name":"OwnableInvalidOwner","inputs":[{"name":"owner","type":"address","internalType":"address"}]},{"type":"error","name":"OwnableUnauthorizedAccount","inputs":[{"name":"account","type":"address","internalType":"address"}]},{"type":"error","name":"TransferFailed","inputs":[]}],"bytecode":{"object":"0x6080604052335f73ffffffffffffffffffffffffffffffffffffffff168173ffffffffffffffffffffffffffffffffffffffff1603610075575f6040517f1e4fbdf700000000000000000000000000000000000000000000000000000000815260040161006c919061018c565b60405180910390fd5b6100848161008a60201b60201c565b506101a5565b5f60015f9054906101000a900473ffffffffffffffffffffffffffffffffffffffff1690508160015f6101000a81548173ffffffffffffffffffffffffffffffffffffffff021916908373ffffffffffffffffffffffffffffffffffffffff1602179055508173ffffffffffffffffffffffffffffffffffffffff168173ffffffffffffffffffffffffffffffffffffffff167f8be0079c531659141344cd1fd0a4f28419497f9722a3daafe3b4186f6b6457e060405160405180910390a35050565b5f73ffffffffffffffffffffffffffffffffffffffff82169050919050565b5f6101768261014d565b9050919050565b6101868161016c565b82525050565b5f60208201905061019f5f83018461017d565b92915050565b6114b7806101b25f395ff3fe608060405234801561000f575f5ffd5b50600436106100e8575f3560e01c8063933940291161008a578063d50fbce011610064578063d50fbce014610226578063f2fde38b14610256578063f7fc87f214610272578063fc0c546a14610290576100e8565b806393394029146101cc578063aa8c217c146101ea578063b277332d14610208576100e8565b806361d027b3116100c657806361d027b31461016a5780636724348214610188578063715018a6146101a45780638da5cb5b146101ae576100e8565b806301ffc9a7146100ec578063158ef93e1461011c578063439fab911461013a575b5f5ffd5b61010660048036038101906101019190610cb5565b6102ae565b6040516101139190610cfa565b60405180910390f35b610124610327565b6040516101319190610cfa565b60405180910390f35b610154600480360381019061014f9190610e4f565b610338565b6040516101619190610cfa565b60405180910390f35b610172610461565b60405161017f9190610ed5565b60405180910390f35b6101a2600480360381019061019d9190610fa0565b610486565b005b6101ac61075f565b005b6101b6610772565b6040516101c39190610ed5565b60405180910390f35b6101d461079a565b6040516101e19190610ed5565b60405180910390f35b6101f26107bf565b6040516101ff9190611036565b60405180910390f35b6102106107c5565b60405161021d9190611036565b60405180910390f35b610240600480360381019061023b91906110a3565b6107cb565b60405161024d919061117a565b60405180910390f35b610270600480360381019061026b919061119a565b610800565b005b61027a610884565b6040516102879190610ed5565b60405180910390f35b6102986108ac565b6040516102a59190611220565b60405180910390f35b5f7fb4632c63000000000000000000000000000000000000000000000000000000007bffffffffffffffffffffffffffffffffffffffffffffffffffffffff1916827bffffffffffffffffffffffffffffffffffffffffffffffffffffffff19161480610320575061031f826108d1565b5b9050919050565b5f5f9054906101000a900460ff1681565b5f5f5f9054906101000a900460ff161561037e576040517f0dc149f000000000000000000000000000000000000000000000000000000000815260040160405180910390fd5b5f5f5f5f5f868060200190518101906103979190611288565b945094509450945094506103aa8561093a565b8360025f6101000a81548173ffffffffffffffffffffffffffffffffffffffff021916908373ffffffffffffffffffffffffffffffffffffffff160217905550826003819055508160045f6101000a81548173ffffffffffffffffffffffffffffffffffffffff021916908373ffffffffffffffffffffffffffffffffffffffff16021790555061043a816109bc565b60015f5f6101000a81548160ff021916908315150217905550600195505050505050919050565b60045f9054906101000a900473ffffffffffffffffffffffffffffffffffffffff1681565b61048e610a7f565b61012c8484905011156104cd576040517fabcf3d2300000000000000000000000000000000000000000000000000000000815260040160405180910390fd5b81819050848490501461050c576040517ffc23596000000000000000000000000000000000000000000000000000000000815260040160405180910390fd5b60035460025f9054906101000a900473ffffffffffffffffffffffffffffffffffffffff1673ffffffffffffffffffffffffffffffffffffffff1663dd62ed3e60045f9054906101000a900473ffffffffffffffffffffffffffffffffffffffff16306040518363ffffffff1660e01b815260040161058c9291906112ff565b602060405180830381865afa1580156105a7573d5f5f3e3d5ffd5b505050506040513d601f19601f820116820180604052508101906105cb9190611326565b1015610603576040517ff9174a0400000000000000000000000000000000000000000000000000000000815260040160405180910390fd5b5f60045f9054906101000a900473ffffffffffffffffffffffffffffffffffffffff1690505f5f90505b858590508110156107575760025f9054906101000a900473ffffffffffffffffffffffffffffffffffffffff1673ffffffffffffffffffffffffffffffffffffffff166323b872dd8388888581811061068957610688611351565b5b905060200201602081019061069e919061119a565b8787868181106106b1576106b0611351565b5b905060200201356040518463ffffffff1660e01b81526004016106d69392919061137e565b6020604051808303815f875af11580156106f2573d5f5f3e3d5ffd5b505050506040513d601f19601f8201168201806040525081019061071691906113dd565b61074c576040517f90b8ec1800000000000000000000000000000000000000000000000000000000815260040160405180910390fd5b80600101905061062d565b505050505050565b610767610a7f565b6107705f6109bc565b565b5f60015f9054906101000a900473ffffffffffffffffffffffffffffffffffffffff16905090565b5f60019054906101000a900473ffffffffffffffffffffffffffffffffffffffff1681565b60035481565b61012c81565b606085858585856040516020016107e6959493929190611408565b604051602081830303815290604052905095945050505050565b610808610a7f565b5f73ffffffffffffffffffffffffffffffffffffffff168173ffffffffffffffffffffffffffffffffffffffff1603610878575f6040517f1e4fbdf700000000000000000000000000000000000000000000000000000000815260040161086f9190610ed5565b60405180910390fd5b610881816109bc565b50565b5f5f60019054906101000a900473ffffffffffffffffffffffffffffffffffffffff16905090565b60025f9054906101000a900473ffffffffffffffffffffffffffffffffffffffff1681565b5f7f01ffc9a7000000000000000000000000000000000000000000000000000000007bffffffffffffffffffffffffffffffffffffffffffffffffffffffff1916827bffffffffffffffffffffffffffffffffffffffffffffffffffffffff1916149050919050565b61094381610b06565b610979576040517f820fe9f800000000000000000000000000000000000000000000000000000000815260040160405180910390fd5b805f60016101000a81548173ffffffffffffffffffffffffffffffffffffffff021916908373ffffffffffffffffffffffffffffffffffffffff16021790555050565b5f60015f9054906101000a900473ffffffffffffffffffffffffffffffffffffffff1690508160015f6101000a81548173ffffffffffffffffffffffffffffffffffffffff021916908373ffffffffffffffffffffffffffffffffffffffff1602179055508173ffffffffffffffffffffffffffffffffffffffff168173ffffffffffffffffffffffffffffffffffffffff167f8be0079c531659141344cd1fd0a4f28419497f9722a3daafe3b4186f6b6457e060405160405180910390a35050565b610a87610c48565b73ffffffffffffffffffffffffffffffffffffffff16610aa5610772565b73ffffffffffffffffffffffffffffffffffffffff1614610b0457610ac8610c48565b6040517f118cdaa7000000000000000000000000000000000000000000000000000000008152600401610afb9190610ed5565b60405180910390fd5b565b5f5f73ffffffffffffffffffffffffffffffffffffffff168273ffffffffffffffffffffffffffffffffffffffff1603610b6c576040517f7cc06ca200000000000000000000000000000000000000000000000000000000815260040160405180910390fd5b5f7f267fcfaf0000000000000000000000000000000000000000000000000000000090508273ffffffffffffffffffffffffffffffffffffffff166301ffc9a7826040518263ffffffff1660e01b8152600401610bc99190611468565b602060405180830381865afa158015610be4573d5f5f3e3d5ffd5b505050506040513d601f19601f82011682018060405250810190610c0891906113dd565b610c3e576040517f5f0e0ffc00000000000000000000000000000000000000000000000000000000815260040160405180910390fd5b6001915050919050565b5f33905090565b5f604051905090565b5f5ffd5b5f5ffd5b5f7fffffffff0000000000000000000000000000000000000000000000000000000082169050919050565b610c9481610c60565b8114610c9e575f5ffd5b50565b5f81359050610caf81610c8b565b92915050565b5f60208284031215610cca57610cc9610c58565b5b5f610cd784828501610ca1565b91505092915050565b5f8115159050919050565b610cf481610ce0565b82525050565b5f602082019050610d0d5f830184610ceb565b92915050565b5f5ffd5b5f5ffd5b5f601f19601f8301169050919050565b7f4e487b71000000000000000000000000000000000000000000000000000000005f52604160045260245ffd5b610d6182610d1b565b810181811067ffffffffffffffff82111715610d8057610d7f610d2b565b5b80604052505050565b5f610d92610c4f565b9050610d9e8282610d58565b919050565b5f67ffffffffffffffff821115610dbd57610dbc610d2b565b5b610dc682610d1b565b9050602081019050919050565b828183375f83830152505050565b5f610df3610dee84610da3565b610d89565b905082815260208101848484011115610e0f57610e0e610d17565b5b610e1a848285610dd3565b509392505050565b5f82601f830112610e3657610e35610d13565b5b8135610e46848260208601610de1565b91505092915050565b5f60208284031215610e6457610e63610c58565b5b5f82013567ffffffffffffffff811115610e8157610e80610c5c565b5b610e8d84828501610e22565b91505092915050565b5f73ffffffffffffffffffffffffffffffffffffffff82169050919050565b5f610ebf82610e96565b9050919050565b610ecf81610eb5565b82525050565b5f602082019050610ee85f830184610ec6565b92915050565b5f5ffd5b5f5ffd5b5f5f83601f840112610f0b57610f0a610d13565b5b8235905067ffffffffffffffff811115610f2857610f27610eee565b5b602083019150836020820283011115610f4457610f43610ef2565b5b9250929050565b5f5f83601f840112610f6057610f5f610d13565b5b8235905067ffffffffffffffff811115610f7d57610f7c610eee565b5b602083019150836020820283011115610f9957610f98610ef2565b5b9250929050565b5f5f5f5f60408587031215610fb857610fb7610c58565b5b5f85013567ffffffffffffffff811115610fd557610fd4610c5c565b5b610fe187828801610ef6565b9450945050602085013567ffffffffffffffff81111561100457611003610c5c565b5b61101087828801610f4b565b925092505092959194509250565b5f819050919050565b6110308161101e565b82525050565b5f6020820190506110495f830184611027565b92915050565b61105881610eb5565b8114611062575f5ffd5b50565b5f813590506110738161104f565b92915050565b6110828161101e565b811461108c575f5ffd5b50565b5f8135905061109d81611079565b92915050565b5f5f5f5f5f60a086880312156110bc576110bb610c58565b5b5f6110c988828901611065565b95505060206110da88828901611065565b94505060406110eb8882890161108f565b93505060606110fc88828901611065565b925050608061110d88828901611065565b9150509295509295909350565b5f81519050919050565b5f82825260208201905092915050565b8281835e5f83830152505050565b5f61114c8261111a565b6111568185611124565b9350611166818560208601611134565b61116f81610d1b565b840191505092915050565b5f6020820190508181035f8301526111928184611142565b905092915050565b5f602082840312156111af576111ae610c58565b5b5f6111bc84828501611065565b91505092915050565b5f819050919050565b5f6111e86111e36111de84610e96565b6111c5565b610e96565b9050919050565b5f6111f9826111ce565b9050919050565b5f61120a826111ef565b9050919050565b61121a81611200565b82525050565b5f6020820190506112335f830184611211565b92915050565b5f61124382610e96565b9050919050565b61125381611239565b811461125d575f5ffd5b50565b5f8151905061126e8161124a565b92915050565b5f8151905061128281611079565b92915050565b5f5f5f5f5f60a086880312156112a1576112a0610c58565b5b5f6112ae88828901611260565b95505060206112bf88828901611260565b94505060406112d088828901611274565b93505060606112e188828901611260565b92505060806112f288828901611260565b9150509295509295909350565b5f6040820190506113125f830185610ec6565b61131f6020830184610ec6565b9392505050565b5f6020828403121561133b5761133a610c58565b5b5f61134884828501611274565b91505092915050565b7f4e487b71000000000000000000000000000000000000000000000000000000005f52603260045260245ffd5b5f6060820190506113915f830186610ec6565b61139e6020830185610ec6565b6113ab6040830184611027565b949350505050565b6113bc81610ce0565b81146113c6575f5ffd5b50565b5f815190506113d7816113b3565b92915050565b5f602082840312156113f2576113f1610c58565b5b5f6113ff848285016113c9565b91505092915050565b5f60a08201905061141b5f830188610ec6565b6114286020830187610ec6565b6114356040830186611027565b6114426060830185610ec6565b61144f6080830184610ec6565b9695505050505050565b61146281610c60565b82525050565b5f60208201905061147b5f830184611459565b9291505056fea26469706673582212209cbbc7fe8dc85041913a3f54214ede1b63e33d3ac6fb44e1d547612940c98a5164736f6c634300081d0033","linkReferences":{}},"methodIdentifiers":{"MAX_AIRDROP_BATCH_SIZE()":"b277332d","airdrop(address[],uint256[])":"67243482","amount()":"aa8c217c","deployManager()":"93394029","getDeployManager()":"f7fc87f2","getInitData(address,address,uint256,address,address)":"d50fbce0","initialize(bytes)":"439fab91","initialized()":"158ef93e","owner()":"8da5cb5b","renounceOwnership()":"715018a6","supportsInterface(bytes4)":"01ffc9a7","token()":"fc0c546a","transferOwnership(address)":"f2fde38b","treasury()":"61d027b3"},"id":31}