{"abi":[{"type":"constructor","inputs":[],"stateMutability":"payable"},{"type":"function","name":"activateContract","inputs":[{"name":"_address","type":"address","internalType":"address"}],"outputs":[],"stateMutability":"nonpayable"},{"type":"function","name":"addNewContract","inputs":[{"name":"_contractAddress","type":"address","internalType":"address"},{"name":"_fee","type":"uint256","internalType":"uint256"},{"name":"_isActive","type":"bool","internalType":"bool"}],"outputs":[],"stateMutability":"nonpayable"},{"type":"function","name":"contractsData","inputs":[{"name":"","type":"address","internalType":"address"}],"outputs":[{"name":"fee","type":"uint256","internalType":"uint256"},{"name":"isDeployable","type":"bool","internalType":"bool"},{"name":"registeredAt","type":"uint256","internalType":"uint256"}],"stateMutability":"view"},{"type":"function","name":"deactivateContract","inputs":[{"name":"_address","type":"address","internalType":"address"}],"outputs":[],"stateMutability":"nonpayable"},{"type":"function","name":"deploy","inputs":[{"name":"_utilityContract","type":"address","internalType":"address"},{"name":"_initData","type":"bytes","internalType":"bytes"}],"outputs":[{"name":"","type":"address","internalType":"address"}],"stateMutability":"payable"},{"type":"function","name":"deployedContracts","inputs":[{"name":"","type":"address","internalType":"address"},{"name":"","type":"uint256","internalType":"uint256"}],"outputs":[{"name":"","type":"address","internalType":"address"}],"stateMutability":"view"},{"type":"function","name":"owner","inputs":[],"outputs":[{"name":"","type":"address","internalType":"address"}],"stateMutability":"view"},{"type":"function","name":"renounceOwnership","inputs":[],"outputs":[],"stateMutability":"nonpayable"},{"type":"function","name":"supportsInterface","inputs":[{"name":"interfaceId","type":"bytes4","internalType":"bytes4"}],"outputs":[{"name":"","type":"bool","internalType":"bool"}],"stateMutability":"view"},{"type":"function","name":"transferOwnership","inputs":[{"name":"newOwner","type":"address","internalType":"address"}],"outputs":[],"stateMutability":"nonpayable"},{"type":"function","name":"updateFee","inputs":[{"name":"_contractAddress","type":"address","internalType":"address"},{"name":"_newFee","type":"uint256","internalType":"uint256"}],"outputs":[],"stateMutability":"nonpayable"},{"type":"event","name":"ContractFeeUpdated","inputs":[{"name":"_contractAddress","type":"address","indexed":false,"internalType":"address"},{"name":"_oldFee","type":"uint256","indexed":false,"internalType":"uint256"},{"name":"_newFee","type":"uint256","indexed":false,"internalType":"uint256"},{"name":"_timestamp","type":"uint256","indexed":false,"internalType":"uint256"}],"anonymous":false},{"type":"event","name":"ContractStatusUpdated","inputs":[{"name":"_contractAddress","type":"address","indexed":false,"internalType":"address"},{"name":"_isActive","type":"bool","indexed":false,"internalType":"bool"},{"name":"_timestamp","type":"uint256","indexed":false,"internalType":"uint256"}],"anonymous":false},{"type":"event","name":"NewContractAdded","inputs":[{"name":"_contractAddress","type":"address","indexed":false,"internalType":"address"},{"name":"_fee","type":"uint256","indexed":false,"internalType":"uint256"},{"name":"_isActive","type":"bool","indexed":false,"internalType":"bool"},{"name":"_timestamp","type":"uint256","indexed":false,"internalType":"uint256"}],"anonymous":false},{"type":"event","name":"NewDeployment","inputs":[{"name":"_deployer","type":"address","indexed":false,"internalType":"address"},{"name":"_contractAddress","type":"address","indexed":false,"internalType":"address"},{"name":"_fee","type":"uint256","indexed":false,"internalType":"uint256"},{"name":"_timestamp","type":"uint256","indexed":false,"internalType":"uint256"}],"anonymous":false},{"type":"event","name":"OwnershipTransferred","inputs":[{"name":"previousOwner","type":"address","indexed":true,"internalType":"address"},{"name":"newOwner","type":"address","indexed":true,"internalType":"address"}],"anonymous":false},{"type":"error","name":"ContractAlreadyRegistered","inputs":[]},{"type":"error","name":"ContractIsNotUtilityContract","inputs":[]},{"type":"error","name":"ContractNotActive","inputs":[]},{"type":"error","name":"ContractNotRegistered","inputs":[]},{"type":"error","name":"FailedDeployment","inputs":[]},{"type":"error","name":"InitializationFailed","inputs":[]},{"type":"error","name":"InsufficientBalance","inputs":[{"name":"balance","type":"uint256","internalType":"uint256"},{"name":"needed","type":"uint256","internalType":"uint256"}]},{"type":"error","name":"NotEnoughFunds","inputs":[]},{"type":"error","name":"OwnableInvalidOwner","inputs":[{"name":"owner","type":"address","internalType":"address"}]},{"type":"error","name":"OwnableUnauthorizedAccount","inputs":[{"name":"account","type":"address","internalType":"address"}]},{"type":"error","name":"TransferFailed","inputs":[]}],"bytecode":{"object":"0x6080604052335f73ffffffffffffffffffffffffffffffffffffffff168173ffffffffffffffffffffffffffffffffffffffff1603610075575f6040517f1e4fbdf700000000000000000000000000000000000000000000000000000000815260040161006c919061018a565b60405180910390fd5b6100848161008a60201b60201c565b506101a3565b5f5f5f9054906101000a900473ffffffffffffffffffffffffffffffffffffffff169050815f5f6101000a81548173ffffffffffffffffffffffffffffffffffffffff021916908373ffffffffffffffffffffffffffffffffffffffff1602179055508173ffffffffffffffffffffffffffffffffffffffff168173ffffffffffffffffffffffffffffffffffffffff167f8be0079c531659141344cd1fd0a4f28419497f9722a3daafe3b4186f6b6457e060405160405180910390a35050565b5f73ffffffffffffffffffffffffffffffffffffffff82169050919050565b5f6101748261014b565b9050919050565b6101848161016a565b82525050565b5f60208201905061019d5f83018461017b565b92915050565b6115de806101b05f395ff3fe60806040526004361061009b575f3560e01c8063670cec3711610063578063670cec37146101a5578063715018a6146101cd5780638da5cb5b146101e357806394be71971461020d578063e97fac0514610235578063f2fde38b146102655761009b565b806301ffc9a71461009f5780630d159b3f146100db57806331a7653514610103578063459675551461012b5780634d58045314610167575b5f5ffd5b3480156100aa575f5ffd5b506100c560048036038101906100c09190611067565b61028d565b6040516100d291906110ac565b60405180910390f35b3480156100e6575f5ffd5b5061010160048036038101906100fc919061117c565b610306565b005b34801561010e575f5ffd5b50610129600480360381019061012491906111cc565b610525565b005b348015610136575f5ffd5b50610151600480360381019061014c91906111f7565b61063b565b60405161015e9190611244565b60405180910390f35b348015610172575f5ffd5b5061018d600480360381019061018891906111cc565b610683565b60405161019c9392919061126c565b60405180910390f35b3480156101b0575f5ffd5b506101cb60048036038101906101c691906111cc565b6106b5565b005b3480156101d8575f5ffd5b506101e16107cd565b005b3480156101ee575f5ffd5b506101f76107e0565b6040516102049190611244565b60405180910390f35b348015610218575f5ffd5b50610233600480360381019061022e91906111f7565b610807565b005b61024f600480360381019061024a9190611302565b610951565b60405161025c9190611244565b60405180910390f35b348015610270575f5ffd5b5061028b600480360381019061028691906111cc565b610cc7565b005b5f7f267fcfaf000000000000000000000000000000000000000000000000000000007bffffffffffffffffffffffffffffffffffffffffffffffffffffffff1916827bffffffffffffffffffffffffffffffffffffffffffffffffffffffff191614806102ff57506102fe82610d4b565b5b9050919050565b61030e610db4565b8273ffffffffffffffffffffffffffffffffffffffff166301ffc9a77fb4632c63000000000000000000000000000000000000000000000000000000006040518263ffffffff1660e01b8152600401610367919061136e565b602060405180830381865afa158015610382573d5f5f3e3d5ffd5b505050506040513d601f19601f820116820180604052508101906103a6919061139b565b6103dc576040517feb2876cd00000000000000000000000000000000000000000000000000000000815260040160405180910390fd5b5f60025f8573ffffffffffffffffffffffffffffffffffffffff1673ffffffffffffffffffffffffffffffffffffffff1681526020019081526020015f206002015414610455576040517f70bc3e8500000000000000000000000000000000000000000000000000000000815260040160405180910390fd5b604051806060016040528083815260200182151581526020014281525060025f8573ffffffffffffffffffffffffffffffffffffffff1673ffffffffffffffffffffffffffffffffffffffff1681526020019081526020015f205f820151815f01556020820151816001015f6101000a81548160ff021916908315150217905550604082015181600201559050507f04e5c77ae4e9e5b61ff3abeac1936c96fbd58c0bd1465c73362dccfeb31ee75a8383834260405161051894939291906113c6565b60405180910390a1505050565b61052d610db4565b5f60025f8373ffffffffffffffffffffffffffffffffffffffff1673ffffffffffffffffffffffffffffffffffffffff1681526020019081526020015f2060020154116105a6576040517f9ada36a100000000000000000000000000000000000000000000000000000000815260040160405180910390fd5b5f60025f8373ffffffffffffffffffffffffffffffffffffffff1673ffffffffffffffffffffffffffffffffffffffff1681526020019081526020015f206001015f6101000a81548160ff0219169083151502179055507f434ee15f55ff3aeee926d0d2cdc10861189dfdc47305a9ea5d0504102c408515815f4260405161063093929190611409565b60405180910390a150565b6001602052815f5260405f208181548110610654575f80fd5b905f5260205f20015f915091509054906101000a900473ffffffffffffffffffffffffffffffffffffffff1681565b6002602052805f5260405f205f91509050805f015490806001015f9054906101000a900460ff16908060020154905083565b6106bd610db4565b5f60025f8373ffffffffffffffffffffffffffffffffffffffff1673ffffffffffffffffffffffffffffffffffffffff1681526020019081526020015f206002015411610736576040517f9ada36a100000000000000000000000000000000000000000000000000000000815260040160405180910390fd5b600160025f8373ffffffffffffffffffffffffffffffffffffffff1673ffffffffffffffffffffffffffffffffffffffff1681526020019081526020015f206001015f6101000a81548160ff0219169083151502179055507f434ee15f55ff3aeee926d0d2cdc10861189dfdc47305a9ea5d0504102c408515816001426040516107c293929190611409565b60405180910390a150565b6107d5610db4565b6107de5f610e3b565b565b5f5f5f9054906101000a900473ffffffffffffffffffffffffffffffffffffffff16905090565b61080f610db4565b5f60025f8473ffffffffffffffffffffffffffffffffffffffff1673ffffffffffffffffffffffffffffffffffffffff1681526020019081526020015f206002015411610888576040517f9ada36a100000000000000000000000000000000000000000000000000000000815260040160405180910390fd5b5f60025f8473ffffffffffffffffffffffffffffffffffffffff1673ffffffffffffffffffffffffffffffffffffffff1681526020019081526020015f205f015490508160025f8573ffffffffffffffffffffffffffffffffffffffff1673ffffffffffffffffffffffffffffffffffffffff1681526020019081526020015f205f01819055507fae754cde05a89e748dcec68ddb7845dfa44d041f114d95bf8d37338b6e0c9a5d83828442604051610944949392919061143e565b60405180910390a1505050565b5f5f60025f8673ffffffffffffffffffffffffffffffffffffffff1673ffffffffffffffffffffffffffffffffffffffff1681526020019081526020015f206040518060600160405290815f8201548152602001600182015f9054906101000a900460ff1615151515815260200160028201548152505090508060200151610a05576040517f4e00e51300000000000000000000000000000000000000000000000000000000815260040160405180910390fd5b805f0151341015610a42576040517f81b5ad6800000000000000000000000000000000000000000000000000000000815260040160405180910390fd5b5f816040015111610a7f576040517f9ada36a100000000000000000000000000000000000000000000000000000000815260040160405180910390fd5b5f610a8986610efc565b90508073ffffffffffffffffffffffffffffffffffffffff1663439fab9186866040518363ffffffff1660e01b8152600401610ac69291906114db565b6020604051808303815f875af1158015610ae2573d5f5f3e3d5ffd5b505050506040513d601f19601f82011682018060405250810190610b06919061139b565b610b3c576040517f19b991a800000000000000000000000000000000000000000000000000000000815260040160405180910390fd5b5f610b456107e0565b73ffffffffffffffffffffffffffffffffffffffff1634604051610b689061152a565b5f6040518083038185875af1925050503d805f8114610ba2576040519150601f19603f3d011682016040523d82523d5f602084013e610ba7565b606091505b5050905080610be2576040517f90b8ec1800000000000000000000000000000000000000000000000000000000815260040160405180910390fd5b60015f3373ffffffffffffffffffffffffffffffffffffffff1673ffffffffffffffffffffffffffffffffffffffff1681526020019081526020015f2082908060018154018082558091505060019003905f5260205f20015f9091909190916101000a81548173ffffffffffffffffffffffffffffffffffffffff021916908373ffffffffffffffffffffffffffffffffffffffff1602179055507f4335dea2303bafa4bcabf73562ea6cf86520c11cda707391eac6afaf50c46ab833833442604051610cb2949392919061153e565b60405180910390a18193505050509392505050565b610ccf610db4565b5f73ffffffffffffffffffffffffffffffffffffffff168173ffffffffffffffffffffffffffffffffffffffff1603610d3f575f6040517f1e4fbdf7000000000000000000000000000000000000000000000000000000008152600401610d369190611244565b60405180910390fd5b610d4881610e3b565b50565b5f7f01ffc9a7000000000000000000000000000000000000000000000000000000007bffffffffffffffffffffffffffffffffffffffffffffffffffffffff1916827bffffffffffffffffffffffffffffffffffffffffffffffffffffffff1916149050919050565b610dbc610f0e565b73ffffffffffffffffffffffffffffffffffffffff16610dda6107e0565b73ffffffffffffffffffffffffffffffffffffffff1614610e3957610dfd610f0e565b6040517f118cdaa7000000000000000000000000000000000000000000000000000000008152600401610e309190611244565b60405180910390fd5b565b5f5f5f9054906101000a900473ffffffffffffffffffffffffffffffffffffffff169050815f5f6101000a81548173ffffffffffffffffffffffffffffffffffffffff021916908373ffffffffffffffffffffffffffffffffffffffff1602179055508173ffffffffffffffffffffffffffffffffffffffff168173ffffffffffffffffffffffffffffffffffffffff167f8be0079c531659141344cd1fd0a4f28419497f9722a3daafe3b4186f6b6457e060405160405180910390a35050565b5f610f07825f610f15565b9050919050565b5f33905090565b5f81471015610f5d5747826040517fcf479181000000000000000000000000000000000000000000000000000000008152600401610f54929190611581565b60405180910390fd5b763d602d80600a3d3981f3363d3d373d3d3d363d730000008360601b60e81c175f526e5af43d82803e903d91602b57fd5bf38360781b176020526037600983f090505f73ffffffffffffffffffffffffffffffffffffffff168173ffffffffffffffffffffffffffffffffffffffff1603611004576040517fb06ebf3d00000000000000000000000000000000000000000000000000000000815260040160405180910390fd5b92915050565b5f5ffd5b5f5ffd5b5f7fffffffff0000000000000000000000000000000000000000000000000000000082169050919050565b61104681611012565b8114611050575f5ffd5b50565b5f813590506110618161103d565b92915050565b5f6020828403121561107c5761107b61100a565b5b5f61108984828501611053565b91505092915050565b5f8115159050919050565b6110a681611092565b82525050565b5f6020820190506110bf5f83018461109d565b92915050565b5f73ffffffffffffffffffffffffffffffffffffffff82169050919050565b5f6110ee826110c5565b9050919050565b6110fe816110e4565b8114611108575f5ffd5b50565b5f81359050611119816110f5565b92915050565b5f819050919050565b6111318161111f565b811461113b575f5ffd5b50565b5f8135905061114c81611128565b92915050565b61115b81611092565b8114611165575f5ffd5b50565b5f8135905061117681611152565b92915050565b5f5f5f606084860312156111935761119261100a565b5b5f6111a08682870161110b565b93505060206111b18682870161113e565b92505060406111c286828701611168565b9150509250925092565b5f602082840312156111e1576111e061100a565b5b5f6111ee8482850161110b565b91505092915050565b5f5f6040838503121561120d5761120c61100a565b5b5f61121a8582860161110b565b925050602061122b8582860161113e565b9150509250929050565b61123e816110e4565b82525050565b5f6020820190506112575f830184611235565b92915050565b6112668161111f565b82525050565b5f60608201905061127f5f83018661125d565b61128c602083018561109d565b611299604083018461125d565b949350505050565b5f5ffd5b5f5ffd5b5f5ffd5b5f5f83601f8401126112c2576112c16112a1565b5b8235905067ffffffffffffffff8111156112df576112de6112a5565b5b6020830191508360018202830111156112fb576112fa6112a9565b5b9250929050565b5f5f5f604084860312156113195761131861100a565b5b5f6113268682870161110b565b935050602084013567ffffffffffffffff8111156113475761134661100e565b5b611353868287016112ad565b92509250509250925092565b61136881611012565b82525050565b5f6020820190506113815f83018461135f565b92915050565b5f8151905061139581611152565b92915050565b5f602082840312156113b0576113af61100a565b5b5f6113bd84828501611387565b91505092915050565b5f6080820190506113d95f830187611235565b6113e6602083018661125d565b6113f3604083018561109d565b611400606083018461125d565b95945050505050565b5f60608201905061141c5f830186611235565b611429602083018561109d565b611436604083018461125d565b949350505050565b5f6080820190506114515f830187611235565b61145e602083018661125d565b61146b604083018561125d565b611478606083018461125d565b95945050505050565b5f82825260208201905092915050565b828183375f83830152505050565b5f601f19601f8301169050919050565b5f6114ba8385611481565b93506114c7838584611491565b6114d08361149f565b840190509392505050565b5f6020820190508181035f8301526114f48184866114af565b90509392505050565b5f81905092915050565b50565b5f6115155f836114fd565b915061152082611507565b5f82019050919050565b5f6115348261150a565b9150819050919050565b5f6080820190506115515f830187611235565b61155e6020830186611235565b61156b604083018561125d565b611578606083018461125d565b95945050505050565b5f6040820190506115945f83018561125d565b6115a1602083018461125d565b939250505056fea26469706673582212203338bb23abded5411cbcc5348f70ab90b25c198faadb1c2a345515776ae5f08664736f6c634300081d0033","linkReferences":{}},"methodIdentifiers":{"activateContract(address)":"670cec37","addNewContract(address,uint256,bool)":"0d159b3f","contractsData(address)":"4d580453","deactivateContract(address)":"31a76535","deploy(address,bytes)":"e97fac05","deployedContracts(address,uint256)":"45967555","owner()":"8da5cb5b","renounceOwnership()":"715018a6","supportsInterface(bytes4)":"01ffc9a7","transferOwnership(address)":"f2fde38b","updateFee(address,uint256)":"94be7197"},"id":10}