{"abi":[{"type":"constructor","inputs":[],"stateMutability":"payable"},{"type":"function","name":"activateContract","inputs":[{"name":"_address","type":"address","internalType":"address"}],"outputs":[],"stateMutability":"nonpayable"},{"type":"function","name":"addNewContract","inputs":[{"name":"_contractAddress","type":"address","internalType":"address"},{"name":"_fee","type":"uint256","internalType":"uint256"},{"name":"_isActive","type":"bool","internalType":"bool"}],"outputs":[],"stateMutability":"nonpayable"},{"type":"function","name":"contractsData","inputs":[{"name":"","type":"address","internalType":"address"}],"outputs":[{"name":"fee","type":"uint256","internalType":"uint256"},{"name":"isActive","type":"bool","internalType":"bool"},{"name":"registredAt","type":"uint256","internalType":"uint256"}],"stateMutability":"view"},{"type":"function","name":"deactivateContract","inputs":[{"name":"_address","type":"address","internalType":"address"}],"outputs":[],"stateMutability":"nonpayable"},{"type":"function","name":"deploy","inputs":[{"name":"_utilityContract","type":"address","internalType":"address"},{"name":"_initData","type":"bytes","internalType":"bytes"}],"outputs":[{"name":"","type":"address","internalType":"address"}],"stateMutability":"payable"},{"type":"function","name":"deployedContracts","inputs":[{"name":"","type":"address","internalType":"address"},{"name":"","type":"uint256","internalType":"uint256"}],"outputs":[{"name":"","type":"address","internalType":"address"}],"stateMutability":"view"},{"type":"function","name":"owner","inputs":[],"outputs":[{"name":"","type":"address","internalType":"address"}],"stateMutability":"view"},{"type":"function","name":"renounceOwnership","inputs":[],"outputs":[],"stateMutability":"nonpayable"},{"type":"function","name":"supportsInterface","inputs":[{"name":"interfaceId","type":"bytes4","internalType":"bytes4"}],"outputs":[{"name":"","type":"bool","internalType":"bool"}],"stateMutability":"view"},{"type":"function","name":"transferOwnership","inputs":[{"name":"newOwner","type":"address","internalType":"address"}],"outputs":[],"stateMutability":"nonpayable"},{"type":"function","name":"updateFee","inputs":[{"name":"_contractAddress","type":"address","internalType":"address"},{"name":"_newFee","type":"uint256","internalType":"uint256"}],"outputs":[],"stateMutability":"nonpayable"},{"type":"event","name":"ContractFeeUpdated","inputs":[{"name":"_contractAddress","type":"address","indexed":false,"internalType":"address"},{"name":"_oldFee","type":"uint256","indexed":false,"internalType":"uint256"},{"name":"_newFee","type":"uint256","indexed":false,"internalType":"uint256"},{"name":"_timestamp","type":"uint256","indexed":false,"internalType":"uint256"}],"anonymous":false},{"type":"event","name":"ContractStatusUpdated","inputs":[{"name":"_contractAddress","type":"address","indexed":false,"internalType":"address"},{"name":"_isActive","type":"bool","indexed":false,"internalType":"bool"},{"name":"_timestamp","type":"uint256","indexed":false,"internalType":"uint256"}],"anonymous":false},{"type":"event","name":"NewContractAdded","inputs":[{"name":"_contractAddress","type":"address","indexed":false,"internalType":"address"},{"name":"_fee","type":"uint256","indexed":false,"internalType":"uint256"},{"name":"_isActive","type":"bool","indexed":false,"internalType":"bool"},{"name":"_timestamp","type":"uint256","indexed":false,"internalType":"uint256"}],"anonymous":false},{"type":"event","name":"NewDeployment","inputs":[{"name":"_deployer","type":"address","indexed":false,"internalType":"address"},{"name":"_contractAddress","type":"address","indexed":false,"internalType":"address"},{"name":"_fee","type":"uint256","indexed":false,"internalType":"uint256"},{"name":"_timestamp","type":"uint256","indexed":false,"internalType":"uint256"}],"anonymous":false},{"type":"event","name":"OwnershipTransferred","inputs":[{"name":"previousOwner","type":"address","indexed":true,"internalType":"address"},{"name":"newOwner","type":"address","indexed":true,"internalType":"address"}],"anonymous":false},{"type":"error","name":"ContractDoesNotRegistered","inputs":[]},{"type":"error","name":"ContractIsNotUtilityContract","inputs":[]},{"type":"error","name":"ContractNotActive","inputs":[]},{"type":"error","name":"FailedDeployment","inputs":[]},{"type":"error","name":"InitializationFailed","inputs":[]},{"type":"error","name":"InsufficientBalance","inputs":[{"name":"balance","type":"uint256","internalType":"uint256"},{"name":"needed","type":"uint256","internalType":"uint256"}]},{"type":"error","name":"NotEnoughtFunds","inputs":[]},{"type":"error","name":"OwnableInvalidOwner","inputs":[{"name":"owner","type":"address","internalType":"address"}]},{"type":"error","name":"OwnableUnauthorizedAccount","inputs":[{"name":"account","type":"address","internalType":"address"}]},{"type":"error","name":"TransferFailed","inputs":[]}],"bytecode":{"object":"0x6080604052335f73ffffffffffffffffffffffffffffffffffffffff168173ffffffffffffffffffffffffffffffffffffffff1603610075575f6040517f1e4fbdf700000000000000000000000000000000000000000000000000000000815260040161006c919061018a565b60405180910390fd5b6100848161008a60201b60201c565b506101a3565b5f5f5f9054906101000a900473ffffffffffffffffffffffffffffffffffffffff169050815f5f6101000a81548173ffffffffffffffffffffffffffffffffffffffff021916908373ffffffffffffffffffffffffffffffffffffffff1602179055508173ffffffffffffffffffffffffffffffffffffffff168173ffffffffffffffffffffffffffffffffffffffff167f8be0079c531659141344cd1fd0a4f28419497f9722a3daafe3b4186f6b6457e060405160405180910390a35050565b5f73ffffffffffffffffffffffffffffffffffffffff82169050919050565b5f6101748261014b565b9050919050565b6101848161016a565b82525050565b5f60208201905061019d5f83018461017b565b92915050565b611565806101b05f395ff3fe60806040526004361061009b575f3560e01c8063670cec3711610063578063670cec37146101a5578063715018a6146101cd5780638da5cb5b146101e357806394be71971461020d578063e97fac0514610235578063f2fde38b146102655761009b565b806301ffc9a71461009f5780630d159b3f146100db57806331a7653514610103578063459675551461012b5780634d58045314610167575b5f5ffd5b3480156100aa575f5ffd5b506100c560048036038101906100c09190610fee565b61028d565b6040516100d29190611033565b60405180910390f35b3480156100e6575f5ffd5b5061010160048036038101906100fc9190611103565b610306565b005b34801561010e575f5ffd5b5061012960048036038101906101249190611153565b6104ac565b005b348015610136575f5ffd5b50610151600480360381019061014c919061117e565b6105c2565b60405161015e91906111cb565b60405180910390f35b348015610172575f5ffd5b5061018d60048036038101906101889190611153565b61060a565b60405161019c939291906111f3565b60405180910390f35b3480156101b0575f5ffd5b506101cb60048036038101906101c69190611153565b61063c565b005b3480156101d8575f5ffd5b506101e1610754565b005b3480156101ee575f5ffd5b506101f7610767565b60405161020491906111cb565b60405180910390f35b348015610218575f5ffd5b50610233600480360381019061022e919061117e565b61078e565b005b61024f600480360381019061024a9190611289565b6108d8565b60405161025c91906111cb565b60405180910390f35b348015610270575f5ffd5b5061028b60048036038101906102869190611153565b610c4e565b005b5f7f267fcfaf000000000000000000000000000000000000000000000000000000007bffffffffffffffffffffffffffffffffffffffffffffffffffffffff1916827bffffffffffffffffffffffffffffffffffffffffffffffffffffffff191614806102ff57506102fe82610cd2565b5b9050919050565b61030e610d3b565b8273ffffffffffffffffffffffffffffffffffffffff166301ffc9a77fb4632c63000000000000000000000000000000000000000000000000000000006040518263ffffffff1660e01b815260040161036791906112f5565b602060405180830381865afa158015610382573d5f5f3e3d5ffd5b505050506040513d601f19601f820116820180604052508101906103a69190611322565b6103dc576040517feb2876cd00000000000000000000000000000000000000000000000000000000815260040160405180910390fd5b604051806060016040528083815260200182151581526020014281525060025f8573ffffffffffffffffffffffffffffffffffffffff1673ffffffffffffffffffffffffffffffffffffffff1681526020019081526020015f205f820151815f01556020820151816001015f6101000a81548160ff021916908315150217905550604082015181600201559050507f04e5c77ae4e9e5b61ff3abeac1936c96fbd58c0bd1465c73362dccfeb31ee75a8383834260405161049f949392919061134d565b60405180910390a1505050565b6104b4610d3b565b5f60025f8373ffffffffffffffffffffffffffffffffffffffff1673ffffffffffffffffffffffffffffffffffffffff1681526020019081526020015f20600201541161052d576040517fe87feefd00000000000000000000000000000000000000000000000000000000815260040160405180910390fd5b5f60025f8373ffffffffffffffffffffffffffffffffffffffff1673ffffffffffffffffffffffffffffffffffffffff1681526020019081526020015f206001015f6101000a81548160ff0219169083151502179055507f434ee15f55ff3aeee926d0d2cdc10861189dfdc47305a9ea5d0504102c408515815f426040516105b793929190611390565b60405180910390a150565b6001602052815f5260405f2081815481106105db575f80fd5b905f5260205f20015f915091509054906101000a900473ffffffffffffffffffffffffffffffffffffffff1681565b6002602052805f5260405f205f91509050805f015490806001015f9054906101000a900460ff16908060020154905083565b610644610d3b565b5f60025f8373ffffffffffffffffffffffffffffffffffffffff1673ffffffffffffffffffffffffffffffffffffffff1681526020019081526020015f2060020154116106bd576040517fe87feefd00000000000000000000000000000000000000000000000000000000815260040160405180910390fd5b600160025f8373ffffffffffffffffffffffffffffffffffffffff1673ffffffffffffffffffffffffffffffffffffffff1681526020019081526020015f206001015f6101000a81548160ff0219169083151502179055507f434ee15f55ff3aeee926d0d2cdc10861189dfdc47305a9ea5d0504102c4085158160014260405161074993929190611390565b60405180910390a150565b61075c610d3b565b6107655f610dc2565b565b5f5f5f9054906101000a900473ffffffffffffffffffffffffffffffffffffffff16905090565b610796610d3b565b5f60025f8473ffffffffffffffffffffffffffffffffffffffff1673ffffffffffffffffffffffffffffffffffffffff1681526020019081526020015f20600201541161080f576040517fe87feefd00000000000000000000000000000000000000000000000000000000815260040160405180910390fd5b5f60025f8473ffffffffffffffffffffffffffffffffffffffff1673ffffffffffffffffffffffffffffffffffffffff1681526020019081526020015f205f015490508160025f8573ffffffffffffffffffffffffffffffffffffffff1673ffffffffffffffffffffffffffffffffffffffff1681526020019081526020015f205f01819055507fae754cde05a89e748dcec68ddb7845dfa44d041f114d95bf8d37338b6e0c9a5d838284426040516108cb94939291906113c5565b60405180910390a1505050565b5f5f60025f8673ffffffffffffffffffffffffffffffffffffffff1673ffffffffffffffffffffffffffffffffffffffff1681526020019081526020015f206040518060600160405290815f8201548152602001600182015f9054906101000a900460ff161515151581526020016002820154815250509050806020015161098c576040517f4e00e51300000000000000000000000000000000000000000000000000000000815260040160405180910390fd5b805f01513410156109c9576040517fc1463a4000000000000000000000000000000000000000000000000000000000815260040160405180910390fd5b5f816040015111610a06576040517fe87feefd00000000000000000000000000000000000000000000000000000000815260040160405180910390fd5b5f610a1086610e83565b90508073ffffffffffffffffffffffffffffffffffffffff1663439fab9186866040518363ffffffff1660e01b8152600401610a4d929190611462565b6020604051808303815f875af1158015610a69573d5f5f3e3d5ffd5b505050506040513d601f19601f82011682018060405250810190610a8d9190611322565b610ac3576040517f19b991a800000000000000000000000000000000000000000000000000000000815260040160405180910390fd5b5f610acc610767565b73ffffffffffffffffffffffffffffffffffffffff1634604051610aef906114b1565b5f6040518083038185875af1925050503d805f8114610b29576040519150601f19603f3d011682016040523d82523d5f602084013e610b2e565b606091505b5050905080610b69576040517f90b8ec1800000000000000000000000000000000000000000000000000000000815260040160405180910390fd5b60015f3373ffffffffffffffffffffffffffffffffffffffff1673ffffffffffffffffffffffffffffffffffffffff1681526020019081526020015f2082908060018154018082558091505060019003905f5260205f20015f9091909190916101000a81548173ffffffffffffffffffffffffffffffffffffffff021916908373ffffffffffffffffffffffffffffffffffffffff1602179055507f4335dea2303bafa4bcabf73562ea6cf86520c11cda707391eac6afaf50c46ab833833442604051610c3994939291906114c5565b60405180910390a18193505050509392505050565b610c56610d3b565b5f73ffffffffffffffffffffffffffffffffffffffff168173ffffffffffffffffffffffffffffffffffffffff1603610cc6575f6040517f1e4fbdf7000000000000000000000000000000000000000000000000000000008152600401610cbd91906111cb565b60405180910390fd5b610ccf81610dc2565b50565b5f7f01ffc9a7000000000000000000000000000000000000000000000000000000007bffffffffffffffffffffffffffffffffffffffffffffffffffffffff1916827bffffffffffffffffffffffffffffffffffffffffffffffffffffffff1916149050919050565b610d43610e95565b73ffffffffffffffffffffffffffffffffffffffff16610d61610767565b73ffffffffffffffffffffffffffffffffffffffff1614610dc057610d84610e95565b6040517f118cdaa7000000000000000000000000000000000000000000000000000000008152600401610db791906111cb565b60405180910390fd5b565b5f5f5f9054906101000a900473ffffffffffffffffffffffffffffffffffffffff169050815f5f6101000a81548173ffffffffffffffffffffffffffffffffffffffff021916908373ffffffffffffffffffffffffffffffffffffffff1602179055508173ffffffffffffffffffffffffffffffffffffffff168173ffffffffffffffffffffffffffffffffffffffff167f8be0079c531659141344cd1fd0a4f28419497f9722a3daafe3b4186f6b6457e060405160405180910390a35050565b5f610e8e825f610e9c565b9050919050565b5f33905090565b5f81471015610ee45747826040517fcf479181000000000000000000000000000000000000000000000000000000008152600401610edb929190611508565b60405180910390fd5b763d602d80600a3d3981f3363d3d373d3d3d363d730000008360601b60e81c175f526e5af43d82803e903d91602b57fd5bf38360781b176020526037600983f090505f73ffffffffffffffffffffffffffffffffffffffff168173ffffffffffffffffffffffffffffffffffffffff1603610f8b576040517fb06ebf3d00000000000000000000000000000000000000000000000000000000815260040160405180910390fd5b92915050565b5f5ffd5b5f5ffd5b5f7fffffffff0000000000000000000000000000000000000000000000000000000082169050919050565b610fcd81610f99565b8114610fd7575f5ffd5b50565b5f81359050610fe881610fc4565b92915050565b5f6020828403121561100357611002610f91565b5b5f61101084828501610fda565b91505092915050565b5f8115159050919050565b61102d81611019565b82525050565b5f6020820190506110465f830184611024565b92915050565b5f73ffffffffffffffffffffffffffffffffffffffff82169050919050565b5f6110758261104c565b9050919050565b6110858161106b565b811461108f575f5ffd5b50565b5f813590506110a08161107c565b92915050565b5f819050919050565b6110b8816110a6565b81146110c2575f5ffd5b50565b5f813590506110d3816110af565b92915050565b6110e281611019565b81146110ec575f5ffd5b50565b5f813590506110fd816110d9565b92915050565b5f5f5f6060848603121561111a57611119610f91565b5b5f61112786828701611092565b9350506020611138868287016110c5565b9250506040611149868287016110ef565b9150509250925092565b5f6020828403121561116857611167610f91565b5b5f61117584828501611092565b91505092915050565b5f5f6040838503121561119457611193610f91565b5b5f6111a185828601611092565b92505060206111b2858286016110c5565b9150509250929050565b6111c58161106b565b82525050565b5f6020820190506111de5f8301846111bc565b92915050565b6111ed816110a6565b82525050565b5f6060820190506112065f8301866111e4565b6112136020830185611024565b61122060408301846111e4565b949350505050565b5f5ffd5b5f5ffd5b5f5ffd5b5f5f83601f84011261124957611248611228565b5b8235905067ffffffffffffffff8111156112665761126561122c565b5b60208301915083600182028301111561128257611281611230565b5b9250929050565b5f5f5f604084860312156112a05761129f610f91565b5b5f6112ad86828701611092565b935050602084013567ffffffffffffffff8111156112ce576112cd610f95565b5b6112da86828701611234565b92509250509250925092565b6112ef81610f99565b82525050565b5f6020820190506113085f8301846112e6565b92915050565b5f8151905061131c816110d9565b92915050565b5f6020828403121561133757611336610f91565b5b5f6113448482850161130e565b91505092915050565b5f6080820190506113605f8301876111bc565b61136d60208301866111e4565b61137a6040830185611024565b61138760608301846111e4565b95945050505050565b5f6060820190506113a35f8301866111bc565b6113b06020830185611024565b6113bd60408301846111e4565b949350505050565b5f6080820190506113d85f8301876111bc565b6113e560208301866111e4565b6113f260408301856111e4565b6113ff60608301846111e4565b95945050505050565b5f82825260208201905092915050565b828183375f83830152505050565b5f601f19601f8301169050919050565b5f6114418385611408565b935061144e838584611418565b61145783611426565b840190509392505050565b5f6020820190508181035f83015261147b818486611436565b90509392505050565b5f81905092915050565b50565b5f61149c5f83611484565b91506114a78261148e565b5f82019050919050565b5f6114bb82611491565b9150819050919050565b5f6080820190506114d85f8301876111bc565b6114e560208301866111bc565b6114f260408301856111e4565b6114ff60608301846111e4565b95945050505050565b5f60408201905061151b5f8301856111e4565b61152860208301846111e4565b939250505056fea2646970667358221220d008aa092aaf077f40fc1da6f70dc307115df2516ff1d0a2329cb7cedbb3b46764736f6c634300081d0033","linkReferences":{}},"methodIdentifiers":{"activateContract(address)":"670cec37","addNewContract(address,uint256,bool)":"0d159b3f","contractsData(address)":"4d580453","deactivateContract(address)":"31a76535","deploy(address,bytes)":"e97fac05","deployedContracts(address,uint256)":"45967555","owner()":"8da5cb5b","renounceOwnership()":"715018a6","supportsInterface(bytes4)":"01ffc9a7","transferOwnership(address)":"f2fde38b","updateFee(address,uint256)":"94be7197"},"id":10}