{"abi":[{"type":"constructor","inputs":[],"stateMutability":"payable"},{"type":"function","name":"MAX_AIRDROP_BATCH_SIZE","inputs":[],"outputs":[{"name":"","type":"uint256","internalType":"uint256"}],"stateMutability":"view"},{"type":"function","name":"airdrop","inputs":[{"name":"receivers","type":"address[]","internalType":"address[]"},{"name":"tokenIds","type":"uint256[]","internalType":"uint256[]"}],"outputs":[],"stateMutability":"nonpayable"},{"type":"function","name":"deployManager","inputs":[],"outputs":[{"name":"","type":"address","internalType":"address"}],"stateMutability":"view"},{"type":"function","name":"getDeployManager","inputs":[],"outputs":[{"name":"","type":"address","internalType":"address"}],"stateMutability":"view"},{"type":"function","name":"getInitData","inputs":[{"name":"_deployManager","type":"address","internalType":"address"},{"name":"_token","type":"address","internalType":"address"},{"name":"_treasury","type":"address","internalType":"address"},{"name":"_owner","type":"address","internalType":"address"}],"outputs":[{"name":"","type":"bytes","internalType":"bytes"}],"stateMutability":"pure"},{"type":"function","name":"initialize","inputs":[{"name":"_initData","type":"bytes","internalType":"bytes"}],"outputs":[{"name":"","type":"bool","internalType":"bool"}],"stateMutability":"nonpayable"},{"type":"function","name":"owner","inputs":[],"outputs":[{"name":"","type":"address","internalType":"address"}],"stateMutability":"view"},{"type":"function","name":"renounceOwnership","inputs":[],"outputs":[],"stateMutability":"nonpayable"},{"type":"function","name":"supportsInterface","inputs":[{"name":"interfaceId","type":"bytes4","internalType":"bytes4"}],"outputs":[{"name":"","type":"bool","internalType":"bool"}],"stateMutability":"view"},{"type":"function","name":"token","inputs":[],"outputs":[{"name":"","type":"address","internalType":"contract IERC721"}],"stateMutability":"view"},{"type":"function","name":"transferOwnership","inputs":[{"name":"newOwner","type":"address","internalType":"address"}],"outputs":[],"stateMutability":"nonpayable"},{"type":"function","name":"treasury","inputs":[],"outputs":[{"name":"","type":"address","internalType":"address"}],"stateMutability":"view"},{"type":"event","name":"OwnershipTransferred","inputs":[{"name":"previousOwner","type":"address","indexed":true,"internalType":"address"},{"name":"newOwner","type":"address","indexed":true,"internalType":"address"}],"anonymous":false},{"type":"error","name":"AlreadyInitialized","inputs":[]},{"type":"error","name":"ArraysLengthMismatch","inputs":[]},{"type":"error","name":"BatchSizeExceeded","inputs":[]},{"type":"error","name":"DeployManagerCannotBeZero","inputs":[]},{"type":"error","name":"FailedToDeployManager","inputs":[]},{"type":"error","name":"NeedToApproveTokens","inputs":[]},{"type":"error","name":"NotDeployManager","inputs":[]},{"type":"error","name":"OwnableInvalidOwner","inputs":[{"name":"owner","type":"address","internalType":"address"}]},{"type":"error","name":"OwnableUnauthorizedAccount","inputs":[{"name":"account","type":"address","internalType":"address"}]}],"bytecode":{"object":"0x6080604052335f73ffffffffffffffffffffffffffffffffffffffff168173ffffffffffffffffffffffffffffffffffffffff1603610075575f6040517f1e4fbdf700000000000000000000000000000000000000000000000000000000815260040161006c919061018c565b60405180910390fd5b6100848161008a60201b60201c565b506101a5565b5f60015f9054906101000a900473ffffffffffffffffffffffffffffffffffffffff1690508160015f6101000a81548173ffffffffffffffffffffffffffffffffffffffff021916908373ffffffffffffffffffffffffffffffffffffffff1602179055508173ffffffffffffffffffffffffffffffffffffffff168173ffffffffffffffffffffffffffffffffffffffff167f8be0079c531659141344cd1fd0a4f28419497f9722a3daafe3b4186f6b6457e060405160405180910390a35050565b5f73ffffffffffffffffffffffffffffffffffffffff82169050919050565b5f6101768261014d565b9050919050565b6101868161016c565b82525050565b5f60208201905061019f5f83018461017d565b92915050565b611336806101b25f395ff3fe608060405234801561000f575f5ffd5b50600436106100b2575f3560e01c80638da5cb5b1161006f5780638da5cb5b1461018a57806393394029146101a8578063b277332d146101c6578063f2fde38b146101e4578063f7fc87f214610200578063fc0c546a1461021e576100b2565b806301ffc9a7146100b65780631431f87a146100e6578063439fab911461011657806361d027b3146101465780636724348214610164578063715018a614610180575b5f5ffd5b6100d060048036038101906100cb9190610bd1565b61023c565b6040516100dd9190610c16565b60405180910390f35b61010060048036038101906100fb9190610c89565b6102b5565b60405161010d9190610d5d565b60405180910390f35b610130600480360381019061012b9190610ea9565b6102e7565b60405161013d9190610c16565b60405180910390f35b61014e610409565b60405161015b9190610eff565b60405180910390f35b61017e60048036038101906101799190610fca565b61042e565b005b6101886106b9565b005b6101926106cc565b60405161019f9190610eff565b60405180910390f35b6101b06106f4565b6040516101bd9190610eff565b60405180910390f35b6101ce610718565b6040516101db9190611060565b60405180910390f35b6101fe60048036038101906101f99190611079565b61071e565b005b6102086107a2565b6040516102159190610eff565b60405180910390f35b6102266107c9565b60405161023391906110ff565b60405180910390f35b5f7fb4632c63000000000000000000000000000000000000000000000000000000007bffffffffffffffffffffffffffffffffffffffffffffffffffffffff1916827bffffffffffffffffffffffffffffffffffffffffffffffffffffffff191614806102ae57506102ad826107ee565b5b9050919050565b6060848484846040516020016102ce9493929190611118565b6040516020818303038152906040529050949350505050565b5f600360149054906101000a900460ff161561032f576040517f0dc149f000000000000000000000000000000000000000000000000000000000815260040160405180910390fd5b5f5f5f5f858060200190518101906103479190611196565b935093509350935061035884610857565b8260025f6101000a81548173ffffffffffffffffffffffffffffffffffffffff021916908373ffffffffffffffffffffffffffffffffffffffff1602179055508160035f6101000a81548173ffffffffffffffffffffffffffffffffffffffff021916908373ffffffffffffffffffffffffffffffffffffffff1602179055506103e18161071e565b6001600360146101000a81548160ff0219169083151502179055506001945050505050919050565b60035f9054906101000a900473ffffffffffffffffffffffffffffffffffffffff1681565b6104366108d8565b61012c828290501115610475576040517fabcf3d2300000000000000000000000000000000000000000000000000000000815260040160405180910390fd5b8181905084849050146104b4576040517ffc23596000000000000000000000000000000000000000000000000000000000815260040160405180910390fd5b60025f9054906101000a900473ffffffffffffffffffffffffffffffffffffffff1673ffffffffffffffffffffffffffffffffffffffff1663e985e9c560035f9054906101000a900473ffffffffffffffffffffffffffffffffffffffff16306040518363ffffffff1660e01b81526004016105319291906111fa565b602060405180830381865afa15801561054c573d5f5f3e3d5ffd5b505050506040513d601f19601f82011682018060405250810190610570919061124b565b6105a6576040517f9bacfd9a00000000000000000000000000000000000000000000000000000000815260040160405180910390fd5b5f60035f9054906101000a900473ffffffffffffffffffffffffffffffffffffffff1690505f5f90505b838390508110156106b15760025f9054906101000a900473ffffffffffffffffffffffffffffffffffffffff1673ffffffffffffffffffffffffffffffffffffffff166342842e0e8388888581811061062c5761062b611276565b5b90506020020160208101906106419190611079565b87878681811061065457610653611276565b5b905060200201356040518463ffffffff1660e01b8152600401610679939291906112a3565b5f604051808303815f87803b158015610690575f5ffd5b505af11580156106a2573d5f5f3e3d5ffd5b505050508060010190506105d0565b505050505050565b6106c16108d8565b6106ca5f61095f565b565b5f60015f9054906101000a900473ffffffffffffffffffffffffffffffffffffffff16905090565b5f5f9054906101000a900473ffffffffffffffffffffffffffffffffffffffff1681565b61012c81565b6107266108d8565b5f73ffffffffffffffffffffffffffffffffffffffff168173ffffffffffffffffffffffffffffffffffffffff1603610796575f6040517f1e4fbdf700000000000000000000000000000000000000000000000000000000815260040161078d9190610eff565b60405180910390fd5b61079f8161095f565b50565b5f5f5f9054906101000a900473ffffffffffffffffffffffffffffffffffffffff16905090565b60025f9054906101000a900473ffffffffffffffffffffffffffffffffffffffff1681565b5f7f01ffc9a7000000000000000000000000000000000000000000000000000000007bffffffffffffffffffffffffffffffffffffffffffffffffffffffff1916827bffffffffffffffffffffffffffffffffffffffffffffffffffffffff1916149050919050565b61086081610a22565b610896576040517f820fe9f800000000000000000000000000000000000000000000000000000000815260040160405180910390fd5b805f5f6101000a81548173ffffffffffffffffffffffffffffffffffffffff021916908373ffffffffffffffffffffffffffffffffffffffff16021790555050565b6108e0610b64565b73ffffffffffffffffffffffffffffffffffffffff166108fe6106cc565b73ffffffffffffffffffffffffffffffffffffffff161461095d57610921610b64565b6040517f118cdaa70000000000000000000000000000000000000000000000000000000081526004016109549190610eff565b60405180910390fd5b565b5f60015f9054906101000a900473ffffffffffffffffffffffffffffffffffffffff1690508160015f6101000a81548173ffffffffffffffffffffffffffffffffffffffff021916908373ffffffffffffffffffffffffffffffffffffffff1602179055508173ffffffffffffffffffffffffffffffffffffffff168173ffffffffffffffffffffffffffffffffffffffff167f8be0079c531659141344cd1fd0a4f28419497f9722a3daafe3b4186f6b6457e060405160405180910390a35050565b5f5f73ffffffffffffffffffffffffffffffffffffffff168273ffffffffffffffffffffffffffffffffffffffff1603610a88576040517f7cc06ca200000000000000000000000000000000000000000000000000000000815260040160405180910390fd5b5f7f267fcfaf0000000000000000000000000000000000000000000000000000000090508273ffffffffffffffffffffffffffffffffffffffff166301ffc9a7826040518263ffffffff1660e01b8152600401610ae591906112e7565b602060405180830381865afa158015610b00573d5f5f3e3d5ffd5b505050506040513d601f19601f82011682018060405250810190610b24919061124b565b610b5a576040517f5f0e0ffc00000000000000000000000000000000000000000000000000000000815260040160405180910390fd5b6001915050919050565b5f33905090565b5f604051905090565b5f5ffd5b5f5ffd5b5f7fffffffff0000000000000000000000000000000000000000000000000000000082169050919050565b610bb081610b7c565b8114610bba575f5ffd5b50565b5f81359050610bcb81610ba7565b92915050565b5f60208284031215610be657610be5610b74565b5b5f610bf384828501610bbd565b91505092915050565b5f8115159050919050565b610c1081610bfc565b82525050565b5f602082019050610c295f830184610c07565b92915050565b5f73ffffffffffffffffffffffffffffffffffffffff82169050919050565b5f610c5882610c2f565b9050919050565b610c6881610c4e565b8114610c72575f5ffd5b50565b5f81359050610c8381610c5f565b92915050565b5f5f5f5f60808587031215610ca157610ca0610b74565b5b5f610cae87828801610c75565b9450506020610cbf87828801610c75565b9350506040610cd087828801610c75565b9250506060610ce187828801610c75565b91505092959194509250565b5f81519050919050565b5f82825260208201905092915050565b8281835e5f83830152505050565b5f601f19601f8301169050919050565b5f610d2f82610ced565b610d398185610cf7565b9350610d49818560208601610d07565b610d5281610d15565b840191505092915050565b5f6020820190508181035f830152610d758184610d25565b905092915050565b5f5ffd5b5f5ffd5b7f4e487b71000000000000000000000000000000000000000000000000000000005f52604160045260245ffd5b610dbb82610d15565b810181811067ffffffffffffffff82111715610dda57610dd9610d85565b5b80604052505050565b5f610dec610b6b565b9050610df88282610db2565b919050565b5f67ffffffffffffffff821115610e1757610e16610d85565b5b610e2082610d15565b9050602081019050919050565b828183375f83830152505050565b5f610e4d610e4884610dfd565b610de3565b905082815260208101848484011115610e6957610e68610d81565b5b610e74848285610e2d565b509392505050565b5f82601f830112610e9057610e8f610d7d565b5b8135610ea0848260208601610e3b565b91505092915050565b5f60208284031215610ebe57610ebd610b74565b5b5f82013567ffffffffffffffff811115610edb57610eda610b78565b5b610ee784828501610e7c565b91505092915050565b610ef981610c4e565b82525050565b5f602082019050610f125f830184610ef0565b92915050565b5f5ffd5b5f5ffd5b5f5f83601f840112610f3557610f34610d7d565b5b8235905067ffffffffffffffff811115610f5257610f51610f18565b5b602083019150836020820283011115610f6e57610f6d610f1c565b5b9250929050565b5f5f83601f840112610f8a57610f89610d7d565b5b8235905067ffffffffffffffff811115610fa757610fa6610f18565b5b602083019150836020820283011115610fc357610fc2610f1c565b5b9250929050565b5f5f5f5f60408587031215610fe257610fe1610b74565b5b5f85013567ffffffffffffffff811115610fff57610ffe610b78565b5b61100b87828801610f20565b9450945050602085013567ffffffffffffffff81111561102e5761102d610b78565b5b61103a87828801610f75565b925092505092959194509250565b5f819050919050565b61105a81611048565b82525050565b5f6020820190506110735f830184611051565b92915050565b5f6020828403121561108e5761108d610b74565b5b5f61109b84828501610c75565b91505092915050565b5f819050919050565b5f6110c76110c26110bd84610c2f565b6110a4565b610c2f565b9050919050565b5f6110d8826110ad565b9050919050565b5f6110e9826110ce565b9050919050565b6110f9816110df565b82525050565b5f6020820190506111125f8301846110f0565b92915050565b5f60808201905061112b5f830187610ef0565b6111386020830186610ef0565b6111456040830185610ef0565b6111526060830184610ef0565b95945050505050565b5f61116582610c2f565b9050919050565b6111758161115b565b811461117f575f5ffd5b50565b5f815190506111908161116c565b92915050565b5f5f5f5f608085870312156111ae576111ad610b74565b5b5f6111bb87828801611182565b94505060206111cc87828801611182565b93505060406111dd87828801611182565b92505060606111ee87828801611182565b91505092959194509250565b5f60408201905061120d5f830185610ef0565b61121a6020830184610ef0565b9392505050565b61122a81610bfc565b8114611234575f5ffd5b50565b5f8151905061124581611221565b92915050565b5f602082840312156112605761125f610b74565b5b5f61126d84828501611237565b91505092915050565b7f4e487b71000000000000000000000000000000000000000000000000000000005f52603260045260245ffd5b5f6060820190506112b65f830186610ef0565b6112c36020830185610ef0565b6112d06040830184611051565b949350505050565b6112e181610b7c565b82525050565b5f6020820190506112fa5f8301846112d8565b9291505056fea2646970667358221220b5bb5268b3ba069f03048c70a18a68ccef6c894e460df2bc8baa78a3ab08bebf64736f6c634300081d0033","linkReferences":{}},"methodIdentifiers":{"MAX_AIRDROP_BATCH_SIZE()":"b277332d","airdrop(address[],uint256[])":"67243482","deployManager()":"93394029","getDeployManager()":"f7fc87f2","getInitData(address,address,address,address)":"1431f87a","initialize(bytes)":"439fab91","owner()":"8da5cb5b","renounceOwnership()":"715018a6","supportsInterface(bytes4)":"01ffc9a7","token()":"fc0c546a","transferOwnership(address)":"f2fde38b","treasury()":"61d027b3"},"id":14}