{"abi":[{"type":"constructor","inputs":[],"stateMutability":"payable"},{"type":"function","name":"MAX_AIRDROP_BATCH_SIZE","inputs":[],"outputs":[{"name":"","type":"uint256","internalType":"uint256"}],"stateMutability":"view"},{"type":"function","name":"airdrop","inputs":[{"name":"receivers","type":"address[]","internalType":"address[]"},{"name":"tokenIds","type":"uint256[]","internalType":"uint256[]"}],"outputs":[],"stateMutability":"nonpayable"},{"type":"function","name":"deployManager","inputs":[],"outputs":[{"name":"","type":"address","internalType":"address"}],"stateMutability":"view"},{"type":"function","name":"getDeployManager","inputs":[],"outputs":[{"name":"","type":"address","internalType":"address"}],"stateMutability":"view"},{"type":"function","name":"getInitData","inputs":[{"name":"_deployManager","type":"address","internalType":"address"},{"name":"_token","type":"address","internalType":"address"},{"name":"_treasury","type":"address","internalType":"address"},{"name":"_owner","type":"address","internalType":"address"}],"outputs":[{"name":"","type":"bytes","internalType":"bytes"}],"stateMutability":"pure"},{"type":"function","name":"initialize","inputs":[{"name":"_initData","type":"bytes","internalType":"bytes"}],"outputs":[{"name":"","type":"bool","internalType":"bool"}],"stateMutability":"nonpayable"},{"type":"function","name":"initialized","inputs":[],"outputs":[{"name":"","type":"bool","internalType":"bool"}],"stateMutability":"view"},{"type":"function","name":"owner","inputs":[],"outputs":[{"name":"","type":"address","internalType":"address"}],"stateMutability":"view"},{"type":"function","name":"renounceOwnership","inputs":[],"outputs":[],"stateMutability":"nonpayable"},{"type":"function","name":"supportsInterface","inputs":[{"name":"interfaceId","type":"bytes4","internalType":"bytes4"}],"outputs":[{"name":"","type":"bool","internalType":"bool"}],"stateMutability":"view"},{"type":"function","name":"token","inputs":[],"outputs":[{"name":"","type":"address","internalType":"contract IERC721"}],"stateMutability":"view"},{"type":"function","name":"transferOwnership","inputs":[{"name":"newOwner","type":"address","internalType":"address"}],"outputs":[],"stateMutability":"nonpayable"},{"type":"function","name":"treasury","inputs":[],"outputs":[{"name":"","type":"address","internalType":"address"}],"stateMutability":"view"},{"type":"event","name":"OwnershipTransferred","inputs":[{"name":"previousOwner","type":"address","indexed":true,"internalType":"address"},{"name":"newOwner","type":"address","indexed":true,"internalType":"address"}],"anonymous":false},{"type":"error","name":"AlreadyInitialized","inputs":[]},{"type":"error","name":"ArraysLengthMismatch","inputs":[]},{"type":"error","name":"BatchSizeExceeded","inputs":[]},{"type":"error","name":"DeployManagerCannotBeZero","inputs":[]},{"type":"error","name":"FailedToDeployManager","inputs":[]},{"type":"error","name":"NeedToApproveTokens","inputs":[]},{"type":"error","name":"NotDeployManager","inputs":[]},{"type":"error","name":"OwnableInvalidOwner","inputs":[{"name":"owner","type":"address","internalType":"address"}]},{"type":"error","name":"OwnableUnauthorizedAccount","inputs":[{"name":"account","type":"address","internalType":"address"}]}],"bytecode":{"object":"0x6080604052335f73ffffffffffffffffffffffffffffffffffffffff168173ffffffffffffffffffffffffffffffffffffffff1603610075575f6040517f1e4fbdf700000000000000000000000000000000000000000000000000000000815260040161006c919061018c565b60405180910390fd5b6100848161008a60201b60201c565b506101a5565b5f60015f9054906101000a900473ffffffffffffffffffffffffffffffffffffffff1690508160015f6101000a81548173ffffffffffffffffffffffffffffffffffffffff021916908373ffffffffffffffffffffffffffffffffffffffff1602179055508173ffffffffffffffffffffffffffffffffffffffff168173ffffffffffffffffffffffffffffffffffffffff167f8be0079c531659141344cd1fd0a4f28419497f9722a3daafe3b4186f6b6457e060405160405180910390a35050565b5f73ffffffffffffffffffffffffffffffffffffffff82169050919050565b5f6101768261014d565b9050919050565b6101868161016c565b82525050565b5f60208201905061019f5f83018461017d565b92915050565b61137f806101b25f395ff3fe608060405234801561000f575f5ffd5b50600436106100cd575f3560e01c8063715018a61161008a578063b277332d11610064578063b277332d146101ff578063f2fde38b1461021d578063f7fc87f214610239578063fc0c546a14610257576100cd565b8063715018a6146101b95780638da5cb5b146101c357806393394029146101e1576100cd565b806301ffc9a7146100d15780631431f87a14610101578063158ef93e14610131578063439fab911461014f57806361d027b31461017f578063672434821461019d575b5f5ffd5b6100eb60048036038101906100e69190610c1a565b610275565b6040516100f89190610c5f565b60405180910390f35b61011b60048036038101906101169190610cd2565b6102ee565b6040516101289190610da6565b60405180910390f35b610139610320565b6040516101469190610c5f565b60405180910390f35b61016960048036038101906101649190610ef2565b610331565b6040516101769190610c5f565b60405180910390f35b61018761044f565b6040516101949190610f48565b60405180910390f35b6101b760048036038101906101b29190611013565b610474565b005b6101c16106ff565b005b6101cb610712565b6040516101d89190610f48565b60405180910390f35b6101e961073a565b6040516101f69190610f48565b60405180910390f35b61020761075f565b60405161021491906110a9565b60405180910390f35b610237600480360381019061023291906110c2565b610765565b005b6102416107e9565b60405161024e9190610f48565b60405180910390f35b61025f610811565b60405161026c9190611148565b60405180910390f35b5f7fb4632c63000000000000000000000000000000000000000000000000000000007bffffffffffffffffffffffffffffffffffffffffffffffffffffffff1916827bffffffffffffffffffffffffffffffffffffffffffffffffffffffff191614806102e757506102e682610836565b5b9050919050565b6060848484846040516020016103079493929190611161565b6040516020818303038152906040529050949350505050565b5f5f9054906101000a900460ff1681565b5f5f5f9054906101000a900460ff1615610377576040517f0dc149f000000000000000000000000000000000000000000000000000000000815260040160405180910390fd5b5f5f5f5f8580602001905181019061038f91906111df565b93509350935093506103a08461089f565b8260025f6101000a81548173ffffffffffffffffffffffffffffffffffffffff021916908373ffffffffffffffffffffffffffffffffffffffff1602179055508160035f6101000a81548173ffffffffffffffffffffffffffffffffffffffff021916908373ffffffffffffffffffffffffffffffffffffffff16021790555061042981610765565b60015f5f6101000a81548160ff0219169083151502179055506001945050505050919050565b60035f9054906101000a900473ffffffffffffffffffffffffffffffffffffffff1681565b61047c610921565b61012c8282905011156104bb576040517fabcf3d2300000000000000000000000000000000000000000000000000000000815260040160405180910390fd5b8181905084849050146104fa576040517ffc23596000000000000000000000000000000000000000000000000000000000815260040160405180910390fd5b60025f9054906101000a900473ffffffffffffffffffffffffffffffffffffffff1673ffffffffffffffffffffffffffffffffffffffff1663e985e9c560035f9054906101000a900473ffffffffffffffffffffffffffffffffffffffff16306040518363ffffffff1660e01b8152600401610577929190611243565b602060405180830381865afa158015610592573d5f5f3e3d5ffd5b505050506040513d601f19601f820116820180604052508101906105b69190611294565b6105ec576040517f9bacfd9a00000000000000000000000000000000000000000000000000000000815260040160405180910390fd5b5f60035f9054906101000a900473ffffffffffffffffffffffffffffffffffffffff1690505f5f90505b838390508110156106f75760025f9054906101000a900473ffffffffffffffffffffffffffffffffffffffff1673ffffffffffffffffffffffffffffffffffffffff166342842e0e83888885818110610672576106716112bf565b5b905060200201602081019061068791906110c2565b87878681811061069a576106996112bf565b5b905060200201356040518463ffffffff1660e01b81526004016106bf939291906112ec565b5f604051808303815f87803b1580156106d6575f5ffd5b505af11580156106e8573d5f5f3e3d5ffd5b50505050806001019050610616565b505050505050565b610707610921565b6107105f6109a8565b565b5f60015f9054906101000a900473ffffffffffffffffffffffffffffffffffffffff16905090565b5f60019054906101000a900473ffffffffffffffffffffffffffffffffffffffff1681565b61012c81565b61076d610921565b5f73ffffffffffffffffffffffffffffffffffffffff168173ffffffffffffffffffffffffffffffffffffffff16036107dd575f6040517f1e4fbdf70000000000000000000000000000000000000000000000000000000081526004016107d49190610f48565b60405180910390fd5b6107e6816109a8565b50565b5f5f60019054906101000a900473ffffffffffffffffffffffffffffffffffffffff16905090565b60025f9054906101000a900473ffffffffffffffffffffffffffffffffffffffff1681565b5f7f01ffc9a7000000000000000000000000000000000000000000000000000000007bffffffffffffffffffffffffffffffffffffffffffffffffffffffff1916827bffffffffffffffffffffffffffffffffffffffffffffffffffffffff1916149050919050565b6108a881610a6b565b6108de576040517f820fe9f800000000000000000000000000000000000000000000000000000000815260040160405180910390fd5b805f60016101000a81548173ffffffffffffffffffffffffffffffffffffffff021916908373ffffffffffffffffffffffffffffffffffffffff16021790555050565b610929610bad565b73ffffffffffffffffffffffffffffffffffffffff16610947610712565b73ffffffffffffffffffffffffffffffffffffffff16146109a65761096a610bad565b6040517f118cdaa700000000000000000000000000000000000000000000000000000000815260040161099d9190610f48565b60405180910390fd5b565b5f60015f9054906101000a900473ffffffffffffffffffffffffffffffffffffffff1690508160015f6101000a81548173ffffffffffffffffffffffffffffffffffffffff021916908373ffffffffffffffffffffffffffffffffffffffff1602179055508173ffffffffffffffffffffffffffffffffffffffff168173ffffffffffffffffffffffffffffffffffffffff167f8be0079c531659141344cd1fd0a4f28419497f9722a3daafe3b4186f6b6457e060405160405180910390a35050565b5f5f73ffffffffffffffffffffffffffffffffffffffff168273ffffffffffffffffffffffffffffffffffffffff1603610ad1576040517f7cc06ca200000000000000000000000000000000000000000000000000000000815260040160405180910390fd5b5f7f267fcfaf0000000000000000000000000000000000000000000000000000000090508273ffffffffffffffffffffffffffffffffffffffff166301ffc9a7826040518263ffffffff1660e01b8152600401610b2e9190611330565b602060405180830381865afa158015610b49573d5f5f3e3d5ffd5b505050506040513d601f19601f82011682018060405250810190610b6d9190611294565b610ba3576040517f5f0e0ffc00000000000000000000000000000000000000000000000000000000815260040160405180910390fd5b6001915050919050565b5f33905090565b5f604051905090565b5f5ffd5b5f5ffd5b5f7fffffffff0000000000000000000000000000000000000000000000000000000082169050919050565b610bf981610bc5565b8114610c03575f5ffd5b50565b5f81359050610c1481610bf0565b92915050565b5f60208284031215610c2f57610c2e610bbd565b5b5f610c3c84828501610c06565b91505092915050565b5f8115159050919050565b610c5981610c45565b82525050565b5f602082019050610c725f830184610c50565b92915050565b5f73ffffffffffffffffffffffffffffffffffffffff82169050919050565b5f610ca182610c78565b9050919050565b610cb181610c97565b8114610cbb575f5ffd5b50565b5f81359050610ccc81610ca8565b92915050565b5f5f5f5f60808587031215610cea57610ce9610bbd565b5b5f610cf787828801610cbe565b9450506020610d0887828801610cbe565b9350506040610d1987828801610cbe565b9250506060610d2a87828801610cbe565b91505092959194509250565b5f81519050919050565b5f82825260208201905092915050565b8281835e5f83830152505050565b5f601f19601f8301169050919050565b5f610d7882610d36565b610d828185610d40565b9350610d92818560208601610d50565b610d9b81610d5e565b840191505092915050565b5f6020820190508181035f830152610dbe8184610d6e565b905092915050565b5f5ffd5b5f5ffd5b7f4e487b71000000000000000000000000000000000000000000000000000000005f52604160045260245ffd5b610e0482610d5e565b810181811067ffffffffffffffff82111715610e2357610e22610dce565b5b80604052505050565b5f610e35610bb4565b9050610e418282610dfb565b919050565b5f67ffffffffffffffff821115610e6057610e5f610dce565b5b610e6982610d5e565b9050602081019050919050565b828183375f83830152505050565b5f610e96610e9184610e46565b610e2c565b905082815260208101848484011115610eb257610eb1610dca565b5b610ebd848285610e76565b509392505050565b5f82601f830112610ed957610ed8610dc6565b5b8135610ee9848260208601610e84565b91505092915050565b5f60208284031215610f0757610f06610bbd565b5b5f82013567ffffffffffffffff811115610f2457610f23610bc1565b5b610f3084828501610ec5565b91505092915050565b610f4281610c97565b82525050565b5f602082019050610f5b5f830184610f39565b92915050565b5f5ffd5b5f5ffd5b5f5f83601f840112610f7e57610f7d610dc6565b5b8235905067ffffffffffffffff811115610f9b57610f9a610f61565b5b602083019150836020820283011115610fb757610fb6610f65565b5b9250929050565b5f5f83601f840112610fd357610fd2610dc6565b5b8235905067ffffffffffffffff811115610ff057610fef610f61565b5b60208301915083602082028301111561100c5761100b610f65565b5b9250929050565b5f5f5f5f6040858703121561102b5761102a610bbd565b5b5f85013567ffffffffffffffff81111561104857611047610bc1565b5b61105487828801610f69565b9450945050602085013567ffffffffffffffff81111561107757611076610bc1565b5b61108387828801610fbe565b925092505092959194509250565b5f819050919050565b6110a381611091565b82525050565b5f6020820190506110bc5f83018461109a565b92915050565b5f602082840312156110d7576110d6610bbd565b5b5f6110e484828501610cbe565b91505092915050565b5f819050919050565b5f61111061110b61110684610c78565b6110ed565b610c78565b9050919050565b5f611121826110f6565b9050919050565b5f61113282611117565b9050919050565b61114281611128565b82525050565b5f60208201905061115b5f830184611139565b92915050565b5f6080820190506111745f830187610f39565b6111816020830186610f39565b61118e6040830185610f39565b61119b6060830184610f39565b95945050505050565b5f6111ae82610c78565b9050919050565b6111be816111a4565b81146111c8575f5ffd5b50565b5f815190506111d9816111b5565b92915050565b5f5f5f5f608085870312156111f7576111f6610bbd565b5b5f611204878288016111cb565b9450506020611215878288016111cb565b9350506040611226878288016111cb565b9250506060611237878288016111cb565b91505092959194509250565b5f6040820190506112565f830185610f39565b6112636020830184610f39565b9392505050565b61127381610c45565b811461127d575f5ffd5b50565b5f8151905061128e8161126a565b92915050565b5f602082840312156112a9576112a8610bbd565b5b5f6112b684828501611280565b91505092915050565b7f4e487b71000000000000000000000000000000000000000000000000000000005f52603260045260245ffd5b5f6060820190506112ff5f830186610f39565b61130c6020830185610f39565b611319604083018461109a565b949350505050565b61132a81610bc5565b82525050565b5f6020820190506113435f830184611321565b9291505056fea2646970667358221220be1ff8b27d9df39a5efbb35be9eeaf37183df3f25417f3c1178c36e0ef14001264736f6c634300081d0033","linkReferences":{}},"methodIdentifiers":{"MAX_AIRDROP_BATCH_SIZE()":"b277332d","airdrop(address[],uint256[])":"67243482","deployManager()":"93394029","getDeployManager()":"f7fc87f2","getInitData(address,address,address,address)":"1431f87a","initialize(bytes)":"439fab91","initialized()":"158ef93e","owner()":"8da5cb5b","renounceOwnership()":"715018a6","supportsInterface(bytes4)":"01ffc9a7","token()":"fc0c546a","transferOwnership(address)":"f2fde38b","treasury()":"61d027b3"},"id":14}